:04000000E0EF04F039
:10000800F0A003D0F090010E156EF0A203D0F0928C
:06001800010E166E11003E
:0C001E009390BA840C0E0F0157131200CF
:0C002A009298BA840C0E0F0154131200BF
:0C003600939ABA840C0E0F015D131200A7
:0A0042009494BA840C0EBD12120053
:0A004C009492BA840C0E66121200A2
:100056000B6A0A6A096A00500402F4CF09F0F3CF6A
:1000660008F001500502F4CF0BF0F3CF0AF0005070
:100076000502F3500926F4500A22E86A0B220150C1
:100086000402F3500926F4500A22E86A0B2208C03B
:1000960000F009C001F00AC002F00BC003F0120024
:1000A600BB50010F006E016A000E01221BC004F056
:1000B600000E056ECDDF060E026E00C004F001C014
:1000C60005F0025005E005320432059EFF0FFAD70F
:1000D600040E016E04C000F0015004E000360090EA
:1000E600FF0FFBD7300E0014036E04C000F005C0EE
:1000F60001F001320032019E01320032019E00C041
:0C010600BEFF0F0EBD160350BD1212000C
:10011200BB50010F006E016A000E01221BC004F0E9
:10012200000E056E97DF060E026E00C004F001C0DD
:1001320005F0025005E005320432059EFF0FFAD7A2
:10014200040E016E04C000F0015004E0003600907D
:10015200FF0FFBD7300E0014036E04C000F005C081
:1001620001F001320032019E01320032019E00C0D4
:0C01720067FF0F0E6616035066121200A5
:10017E00BB50010F006E016A000E01221BC004F07D
:10018E00000E056E61DF060E026E00C004F001C0A7
:10019E0005F0025005E005320432059EFF0FFAD736
:1001AE00040E016E04C000F0015004E00036009011
:1001BE00FF0FFBD7300E0014036E04C000F005C015
:1001CE0001F001320032019E01320032019E00C068
:0E01DE0058FF0F0E0F01571703505713120052
:1001EC00BB50010F006E016A000E01221BC004F00F
:1001FC00000E056E2ADF060E026E00C004F001C070
:10020C0005F0025005E005320432059EFF0FFAD7C7
:10021C00040E016E04C000F0015004E000360090A2
:10022C00FF0FFBD7300E0014036E04C000F005C0A6
:10023C0001F001320032019E01320032019E00C0F9
:0E024C005EFF0F0E0F015D1703505D131200D1
:0C025A00F3DEF7DEEBDEDEDEE3DE12009A
:10026600F9DF1B6A1DDF1B6A51DFA00E1B6EBBDFA9
:060276001B6A82DF12008A
:10027C00FF0E1B6E12DFFF0E1B6E45DFFF0E1B6E9B
:0A028C00AFDFFF0E1B6E75DF1200DE
:10029600E1DFFF0E1B6E04DF1B6A38DFCD0E1B6E1F
:0802A600A2DF1B6A69DF1200F0
:1002AE00D5DFAA0E1B6EF8DE1B6A2CDF8C0E1B6EC2
:0802BE0096DF1B6A5DDF1200F0
:1002C600C9DF1B6AEDDE1B6A21DF1B6A8CDFB40EF9
:1002D6001B6E52DF030E0B6E080E0C6E770E0D6E44
:1002E6000D2EFED70C2EFCD70B2EFAD7C4DF12002C
:1002F600B1DFAA0E1B6ED4DE1B6A08DF1B6A73DF32
:060306001B6A3ADF120041
:10030C00ACDF030E0B6E8A0E0C6E550E0D6E0D2EA1
:10031C00FED70C2EFCD70B2EFAD700000000A8DF5E
:02032C001200BD
:10032E00BFDF340E0C6EF10E0D6E0D2EFED70C2EA1
:10033E00FCD700000000A8DF030E0B6E8A0E0C6EB9
:10034E00550E0D6E0D2EFED70C2EFCD70B2EFAD79A
:06035E0000000000120087
:100364001B6A9FDE1B6AD3DE1B6A3EDF1B6A05DF46
:02037400120075
:08037600676A6698669A12009E
:08037E00BE6ABD98BD9A120091
:100386000900F5CFE6FF0006FBE10106F9E11200E0
:10039600000E80B6010E176E186A000E186E036AFC
:1003A60080B4032A03C000F0000E016E0036013649
:1003B60000900050172601501822036A80B2032AC3
:1003C60003C000F0000E016E0036013600900036C4
:1003D600013600900050172601501822036A80B09B
:1003E600032A030E026E03C000F0000E016E0250D7
:1003F60005E0003600900136FF0FFAD700501726A9
:100406000150182265D2808880B802D0809A01D027
:10041600808A80BA02D0809E01D0808E80BE02D0B3
:10042600809C01D0808CBED2809C808E80BE02D003
:10043600809A01D0808A80BA02D0809801D08088C4
:1004460081A404D081A202D02FDF5ED081B41FD058
:1004560081B21DD010DF020E0B6E040E0C6EBA0EAA
:100466000D6E0D2EFED70C2EFCD70B2EFAD70000E4
:1004760027DF020E0B6E040E0C6EBA0E0D6E0D2EDD
:10048600FED70C2EFCD70B2EFAD700003DD081B23A
:100496001DD0F1DE020E0B6E040E0C6EBA0E0D6E42
:1004A6000D2EFED70C2EFCD70B2EFAD700002BDF15
:1004B600020E0B6E040E0C6EBA0E0D6E0D2EFED7CE
:1004C6000C2EFCD70B2EFAD700001ED081B41CD000
:1004D600D2DE020E0B6E040E0C6EBA0E0D6E0D2ED3
:1004E600FED70C2EFCD70B2EFAD7000001DF020E2A
:1004F6000B6E040E0C6EBA0E0D6E0D2EFED70C2E64
:10050600FCD70B2EFAD700009BD7809E808C80BC30
:1005160002D0809A01D0808A80BA02D0809801D019
:100526008088030E0B6E8A0E0C6E550E0D6E0D2E08
:10053600FED70C2EFCD70B2EFAD70000000082B097
:100546002ED081B82CD082BC2AD0808880B802D028
:10055600809A01D0808A80BA02D0809E01D0808E97
:1005660080BE02D0809C01D0808C9EDE340E0C6E44
:10057600F10E0D6E0D2EFED70C2EFCD700000000DE
:10058600EEDE020E0B6E040E0C6EBA0E0D6E0D2E06
:10059600FED70C2EFCD70B2EFAD70000CDD082A0AA
:1005A60020D081B81ED082BC1CD0809C808880B8A8
:1005B60002D0809A01D0808A80BA02D0809E01D073
:1005C600808E4EDE020E0B6E040E0C6EBA0E0D6E93
:1005D6000D2EFED70C2EFCD70B2EFAD700004BDEC5
:1005E600ABD082B012D081A810D082BC0ED0809E33
:1005F600808880B802D0809A01D0808A80BA02D0E2
:10060600809C01D0808C90DE97D082A01DD081A8DE
:100616001BD082BC19D0809E80BE02D0809C01D0A7
:10062600808C808880B802D0809A01D0808A18DEBB
:10063600340E0C6EF10E0D6E0D2EFED70C2EFCD761
:100646000000000071DE78D082B020D081B81ED0C4
:1006560082AC1CD0809A808880B802D0809E01D05F
:10066600808E80BE02D0809C01D0808C41DE020E3E
:100676000B6E040E0C6EBA0E0D6E0D2EFED70C2EE2
:10068600FCD70B2EFAD70000F6DD56D082A012D08A
:1006960081B810D082AC0ED0809A80BA02D0809CED
:1006A60001D0808C808880B802D0809E01D0808E58
:1006B60056DE42D082B01BD081A819D082AC17D0AA
:1006C600809A80BA02D0809E01D0808E809880B8B1
:1006D60002D0809C01D0808C0BDE4E0E0C6EEB0E91
:1006E6000D6E0D2EFED70C2EFCD71EDE25D082A059
:1006F60012D081A810D082AC0ED0809A80BA02D0D7
:10070600809E01D0808E80BE02D0809C01D0808CDD
:1007160080880ADE11D0809880B802D0809A01D0F5
:10072600808A80BA02D0809E01D0808E80BE02D0A0
:10073600809C01D0808C13DE02D7809E80BE02D0C2
:10074600809C01D0808C80B802D0809A01D0808AAB
:10075600EBDD28D1809A808C80BC02D0809E01D0AF
:10076600808E80BE02D0809801D08088C1DD030EC5
:100776000B6E8A0E0C6E550E0D6E0D2EFED70C2EC0
:10078600FCD70B2EFAD700000000E9DD290E0B6E10
:10079600960E0C6E7F0E0D6E0D2EFED70C2EFCD710
:1007A6000B2EFAD7FFD0809C80BC02D0809A01D055
:1007B600808A808E80BE02D0809801D0808898DDA5
:1007C600F1D0809A80BA02D0809E01D0808E808C33
:1007D60080BC02D0809801D0808872DDE3D0809CF6
:1007E60080BC02D0809E01D0808E80BE02D0809ACE
:1007F60001D0808A8088D6D08098808C80BC02D038
:10080600809A01D0808A80BA02D0809E01D0808EE4
:10081600C9D0809880B802D0809C01D0808C808A14
:1008260080BA02D0809E01D0808EBCD0809E80BED1
:1008360002D0809801D08088808C80BC02D0809ABB
:1008460001D0808AAFD0809880B802D0809E01D037
:10085600808E80BE02D0809C01D0808C808AA2D0FF
:10086600809A80BA02D0809801D08088808C80BC23
:1008760002D0809E01D0808E95D0809C80BC02D014
:10088600809A01D0808A80BA02D0809801D0808870
:10089600808E88D0809E80BE02D0809A01D0808AC9
:1008A60080BA02D0809801D08088808C7BD08098D6
:1008B60080B802D0809A01D0808A80BA02D0809E09
:1008C60001D0808E80BE02D0809C01D0808C6AD000
:1008D600000E181802E1000E1718D8B494D5000EB1
:1008E600181802E1010E1718D8B49ED5000E181874
:1008F60002E1020E1718D8B408D6000E181802E145
:10090600030E1718D8B419D7000E181802E1040EF2
:100916001718D8B41FD7000E181802E1050E1718BD
:10092600D8B441D7000E181802E1060E1718D8B42D
:1009360048D7000E181802E1070E1718D8B44FD77B
:10094600000E181802E1080E1718D8B455D7000E75
:10095600181802E1090E1718D8B45BD7000E18183C
:1009660002E10A0E1718D8B461D7000E181802E172
:100976000B0E1718D8B467D7000E181802E10C0E24
:100986001718D8B46DD7000E181802E10D0E1718F7
:10099600D8B473D7000E181802E10E0E1718D8B483
:0609A60079D785D712008D
:0A09AC000F01586B5799579B12007A
:0A09B6000F015E6B5D995D9B12005E
:1009C000156A166A660ED36E806A816A826A0F0E95
:1009D000926EDE0E936EF90E946E0F01386B396BCA
:1009E0003A6BF086F088F19AF198F28EF28CBA9018
:1009F000BA92630EBB6EC3DCBA90BA92630EBB6E42
:100A0000BADCBA90BA92630EBB6ED5DFBA90BA92D6
:100A1000630EBB6ECBDF1B6A53EC00F01B6A89ECE4
:100A200000F01B6AF6EC00F01B6ABFEC00F021EC52
:100A300000F026EC00F01BEC00F00FEC00F0809CC6
:100A4000808E80BE02D0809A01D0808A80BA02D087
:100A5000809801D08088040E0B6E0C0E0C6E330E45
:100A60000D6E0D2EFED70C2EFCD70B2EFAD70000E4
:100A70000000809E808C80BC02D0809A01D0808A49
:100A800080BA02D0809801D08088040E0B6E0C0EC4
:100A90000C6E330E0D6E0D2EFED70C2EFCD70B2ECA
:100AA000FAD700000000809A808C80BC02D0809E23
:100AB00001D0808E80BE02D0809801D08088040E44
:100AC0000B6E0C0E0C6E330E0D6E0D2EFED70C2E13
:100AD000FCD70B2EFAD7000000008098808A80BADD
:100AE00002D0809E01D0808E80BE02D0809C01D03A
:100AF000808C040E0B6E0C0E0C6E330E0D6E0D2ED4
:100B0000FED70C2EFCD70B2EFAD700000000808CED
:100B100080BC02D0809E01D0808E80BE02D0809AA0
:100B200001D0808A80BA02D0809801D080880B0ED4
:100B30000B6E260E0C6E5D0E0D6E0D2EFED70C2E5E
:100B4000FCD70B2EFAD70000000025DCFED7FFD71C
:020000040030CA
:0D00010078183CFFBD81FF0FC00FE00F40DD
:00000001FF
