:04000000BAEF07F05C
:10000800F0A005D0F090010E3A6E010E396EF0A204
:0E00180005D0F092010E3B6E010E396E110004
:0C0026009390BA840C0E0F0157131200C7
:0C0032009298BA840C0E0F0154131200B7
:10003E000B6A0A6A096A00500402F4CF09F0F3CF82
:10004E0008F001500502F4CF0BF0F3CF0AF0005088
:10005E000502F3500926F4500A22E86A0B220150D9
:10006E000402F3500926F4500A22E86A0B2208C053
:10007E0000F009C001F00AC002F00BC003F012003C
:0A008E009494BA840C0EBD12120007
:0A0098009492BA840C0E6612120056
:0C00A200939ABA840C0E0F015D1312003B
:1000AE00BB50010F006E016A000E01224CC004F01D
:1000BE00000E056EBDDF060E026E00C004F001C01C
:1000CE0005F0025005E005320432059EFF0FFAD707
:1000DE00040E016E04C000F0015004E000360090E2
:1000EE00FF0FFBD7300E0014036E04C000F005C0E6
:1000FE0001F001320032019E01320032019E00C039
:0E010E005EFF0F0E0F015D1703505D13120010
:10011C00BB50010F006E016A000E01224CC004F0AE
:10012C00000E056E86DF060E026E00C004F001C0E4
:10013C0005F0025005E005320432059EFF0FFAD798
:10014C00040E016E04C000F0015004E00036009073
:10015C00FF0FFBD7300E0014036E04C000F005C077
:10016C0001F001320032019E01320032019E00C0CA
:0E017C0058FF0F0E0F015717035057131200B4
:10018A00BB50010F006E016A000E01224CC004F040
:10019A00000E056E4FDF060E026E00C004F001C0AD
:1001AA0005F0025005E005320432059EFF0FFAD72A
:1001BA00040E016E04C000F0015004E00036009005
:1001CA00FF0FFBD7300E0014036E04C000F005C009
:1001DA0001F001320032019E01320032019E00C05C
:0C01EA0067FF0F0E66160350661212002D
:0C01F6004BDF4FDF53DF14DF19DF120076
:10020200BB50010F006E016A000E01224CC004F0C7
:10021200000E056E13DF060E026E00C004F001C070
:1002220005F0025005E005320432059EFF0FFAD7B1
:10023200040E016E04C000F0015004E0003600908C
:10024200FF0FFBD7300E0014036E04C000F005C090
:1002520001F001320032019E01320032019E00C0E3
:0C026200BEFF0F0EBD160350BD121200AF
:10026E00C3DFFF0E4C6EC6DF4C6A88DFCD0E4C6EC0
:08027E0017DF4C6A4CDF12008F
:10028600B7DF4C6ABBDF4C6A7DDFC80E4C6E0CDFF5
:060296004C6A41DF12007A
:10029C00F29E35C004F036C005F037C006F038C009
:1002AC0007F0F28E04C000F005C001F006C002F0A9
:0602BC0007C003F0120070
:1002C200FF0E4C6E9DDFFF0E4C6E5EDFFF0E4C6E1E
:0A02D200EDDEFF0E4C6E21DF12007E
:1002DC00DFDF00C048F001C049F002C04AF003C0A3
:1002EC004BF044D0BEDF48C026F049C027F04AC0CE
:1002FC0028F04BC029F0010E2A6E41D048C001F005
:10030C0049C002F04AC003F04BC004F02650015E15
:10031C002750025A2850035A2950045A000E045CE4
:10032C0008E1000E035C05E1000E025C02E1140E14
:10033C00015C0BE396DF48C026F049C027F04AC0A9
:10034C0028F04BC029F0020E2A6E19D082BC0AD0BC
:10035C0088DF48C026F049C027F04AC028F04BC0BF
:10036C0029F003D0A8DF2A6A256A09D02A50000A8E
:10037C00B9E02A50010AC2E02A50020AE7E0120052
:10038C0034DFAA0E4C6E37DF4C6AF9DE4C6A89DE1C
:06039C004C6ABEDE1200F7
:1003A20029DFC80E4C6E2CDF4C6AEEDE8C0E4C6ED2
:0803B2007DDE4C6AB2DE120090
:1003BA004C6A22DF4C6AE4DE4C6A74DE4C6AA9DEBF
:0203CA0012001F
:1003CC0014DF4C6A18DF4C6ADADE4C6A6ADEB40E53
:0603DC004C6E9EDE1200D3
:1003E20009DFE60E4C6E0CDF4C6ACEDE4C6A5EDE36
:0603F2004C6A93DE1200CC
:1003F80046DF030E0B6E8A0E0C6E550E0D6E0D2E1B
:10040800FED70C2EFCD70B2EFAD70000000055DFC4
:020418001200D0
:10041A0081A404D081A202D0BFDF5ED081B41FD0F4
:10042A0081B21DD049DF020E0B6E040E0C6EBA0E9D
:10043A000D6E0D2EFED70C2EFCD70B2EFAD7000010
:10044A00C0DF020E0B6E040E0C6EBA0E0D6E0D2E70
:10045A00FED70C2EFCD70B2EFAD700003DD081B266
:10046A001DD02ADF020E0B6E040E0C6EBA0E0D6E34
:10047A000D2EFED70C2EFCD70B2EFAD70000B7DFB5
:10048A00020E0B6E040E0C6EBA0E0D6E0D2EFED7FA
:10049A000C2EFCD70B2EFAD700001ED081B41CD02C
:1004AA000BDF020E0B6E040E0C6EBA0E0D6E0D2EC5
:1004BA00FED70C2EFCD70B2EFAD7000062DF020EF5
:1004CA000B6E040E0C6EBA0E0D6E0D2EFED70C2E90
:0A04DA00FCD70B2EFAD70000120029
:1004E400DBDE00C044F001C045F002C046F003C0AA
:1004F40047F056D054DF44C02CF045C02DF046C020
:100504002EF047C02FF0010E306E56D044C001F0DB
:1005140045C002F046C003F047C004F02C50015E11
:100524002D50025A2E50035A2F50045A000E045CC8
:1005340008E1000E035C05E1000E025C02E1320EEC
:10054400015C0BE338DF44C02CF045C02DF046C0FD
:100554002EF047C02FF0020E306E2ED044C001F0B2
:1005640045C002F046C003F047C004F02C50015EC1
:100574002D50025A2E50035A2F50045A000E045C78
:1005840008E1000E035C05E1000E025C02E1640E6A
:10059400015C02E3030E306E0FD0256A306A0CD082
:1005A4003050000AA7E03050010AB0E03050020A8F
:0A05B400D5E03050030AF1E0120018
:1005BE006EDE00C044F001C045F002C046F003C03C
:1005CE0047F057D059DE44C016F045C017F046C06C
:1005DE0018F047C019F0010E1A6E54D044C001F045
:1005EE0045C002F046C003F047C004F01650015E4D
:1005FE001750025A1850035A1950045A000E045C30
:10060E0008E1000E035C05E1000E025C02E1640EDF
:10061E00015C0CE34FDE44C016F045C017F046C037
:10062E0018F047C019F0020E1A6E01D025DE2AD03E
:10063E0044C001F045C002F046C003F047C004F0CC
:10064E001650015E1750025A1850035A1950045A88
:10065E00000E045C08E1000E035C05E1000E025C76
:10066E0002E1640E015C03E31A6A256A01D022DE00
:10067E0009D01A50000AA6E01A50010AAFE01A502B
:06068E00020AD6E0120092
:1006940003DE00C044F001C045F002C046F003C0D0
:1006A40047F01AD0EEDD44C031F045C032F046C008
:1006B40033F047C034F0010E2B6E17D082B006D051
:1006C40082AC04D081B802D0020E2B6E0ED004DEB0
:1006D400256A010E2B6E09D02B50010AE3E02B5042
:0C06E400010AECE02B50020AF2E01200C8
:1006F000D5DD00C044F001C045F002C046F003C0A3
:1007000047F061D06EDE44C01BF045C01CF046C00F
:100710001DF047C01EF0010E156E5ED081B803D0EB
:10072000256A156A59D044C001F045C002F046C0A0
:1007300003F047C004F01B50015E1C50025A1D50CC
:10074000035A1E50045A000E045C08E1000E035CBC
:1007500005E1000E025C02E1640E015C0CE3B1DD18
:1007600044C01BF045C01CF046C01DF047C01EF041
:10077000020E156E01D035DE2FD081B803D0256A68
:10078000156A2AD044C001F045C002F046C003F00B
:1007900047C004F01B50015E1C50025A1D50035A02
:1007A0001E50045A000E045C08E1000E035C05E1D3
:1007B000000E025C02E1640E015C03E3256A156A27
:1007C00001D07FDD09D01550000A9CE01550010AC8
:0A07D000A5E01550020AD1E0120066
:1007DA0060DD00C044F001C045F002C046F003C02D
:1007EA0047F019D0CEDD44C020F045C021F046C004
:1007FA0022F047C023F0010E246E16D082B006D034
:10080A0082AC04D081B802D0020E246E0DD061DD14
:10081A00256A246A09D02450000AE4E02450010A17
:0A082A00EDE02450020AF3E0120092
:1008340054D027DD82AC03D0030E256E28D02CDDE6
:1008440000C004F001C005F002C006F003C007F0C8
:100854003C50045E3D50055A3E50065A3F50075ADC
:100864000750000808E10650000805E1055000089B
:1008740002E10450C8080BE2010E1F6E0DDD00C03A
:100884003CF001C03DF002C03EF003C03FF02BD06D
:100894007BDD82AC03D0030E256E1ED0FDDC00C0D0
:1008A40004F001C005F002C006F003C007F03C509C
:1008B400045E3D50055A3E50065A3F50075A0750B1
:1008C400000808E10650000805E10550000802E1AF
:1008D4000450C808D8A0256A06D01F50000AA9E011
:0808E4001F50010AD5E01200CB
:1008EC00395206E0E8DC93DD396A256A2A6AEBD0D6
:1008FC00CCD082B007D082BC05D081B803D0010E19
:10090C00256E4AD082A007D082BC05D081B803D016
:10091C00020E256E41D082B007D082AC05D081B8D2
:10092C0003D0030E256E38D082A007D082AC05D040
:10093C0081B803D0040E256E2FD082B007D082BCB4
:10094C0005D081A803D0050E256E26D082A011D02B
:10095C0082BC0FD081A80DD0060E256E1F6A98DCC4
:10096C0000C03CF001C03DF002C03EF003C03FF0BF
:10097C0013D082B007D082AC05D081A803D0070E6B
:10098C00256E0AD082A007D082AC05D081A803D0F6
:10099C00080E256E01D00BDD96D0808880B802D071
:1009AC00809A01D0808A80BA02D0809E01D0808E3D
:1009BC0080BE02D0809C01D0808C8EDD84D0809C47
:1009CC00808880B802D0809A01D0808A80BA02D008
:1009DC00809E01D0808EEDDD76D0809E808880B8A0
:1009EC0002D0809A01D0808A80BA02D0809C01D03B
:1009FC00808C6EDC68D0809E80BE02D0809C01D042
:100A0C00808C808880B802D0809A01D0808A3CDEAD
:100A1C005AD0809A808880B802D0809E01D0808E77
:100A2C0080BE02D0809C01D0808C5CDE4CD0809A41
:100A3C0080BA02D0809C01D0808C808880B802D093
:100A4C00809E01D0808EF0DE3ED0809A80BA02D09B
:100A5C00809E01D0808E808880B802D0809C01D08E
:100A6C00808CB5DE30D0809A80BA02D0809E01D0C6
:100A7C00808E80BE02D0809C01D0808C808828DC47
:100A8C0022D095DC256A2A6A1ED02550000AD8B4DB
:100A9C0030D72550010AD8B480D72550020A8FE0F0
:100AAC002550030A9AE02550040AA5E02550050AB2
:100ABC00B0E02550060ABBE02550070AC6E02550D9
:080ACC00080AD1E0DED7120098
:080AD400676A6698669A120039
:080ADC00BE6ABD98BD9A12002C
:100AE400030ED56E830ED66EF28AF294F28E120045
:0A0AF4000F015E6B5D995D9B12001F
:100AFE000900F5CFE6FF0006FBE10106F9E1120061
:100B0E00000E80B6010E406E416A000E416E036A01
:100B1E0080B4032A03C000F0000E016E00360136C9
:100B2E0000900050402601504122036A80B2032AF1
:100B3E0003C000F0000E016E003601360090003644
:100B4E00013600900050402601504122036A80B0C9
:100B5E00032A030E026E03C000F0000E016E025057
:100B6E0005E0003600900136FF0FFAD70050402600
:100B7E000150412288D1808880B802D0809A01D05D
:100B8E00808A80BA02D0809E01D0808E80BE02D034
:100B9E00809C01D0808CE1D1809C808E80BE02D062
:100BAE00809A01D0808A80BA02D0809801D0808845
:100BBE0081A405D081A203D0D1EC01F068D081B41C
:100BCE0021D081B21FD061EC01F0020E0B6E040E2B
:100BDE000C6EBA0E0D6E0D2EFED70C2EFCD70B2EF4
:100BEE00FAD70000E6EC01F0020E0B6E040E0C6E4E
:100BFE00BA0E0D6E0D2EFED70C2EFCD70B2EFAD77D
:100C0E00000045D081B221D061EC01F0020E0B6ED6
:100C1E00040E0C6EBA0E0D6E0D2EFED70C2EFCD7DA
:100C2E000B2EFAD7000043EC01F0020E0B6E040EF1
:100C3E000C6EBA0E0D6E0D2EFED70C2EFCD70B2E93
:100C4E00FAD7000061EC01F022D081B420D061EC23
:100C5E0001F0020E0B6E040E0C6EBA0E0D6E0D2E02
:100C6E00FED70C2EFCD70B2EFAD70000C6EC01F0E7
:100C7E00020E0B6E040E0C6EBA0E0D6E0D2EFED7FE
:100C8E000C2EFCD70B2EFAD7000061EC01F065D1CB
:100C9E00809E808C80BC02D0809A01D0808A80BADF
:100CAE0002D0809801D080881ADE57D1809E80BEF7
:100CBE0002D0809C01D0808C80B802D0809A01D066
:100CCE00808AD1EC01F0150E0B6E4B0E0C6EBE0E23
:100CDE000D6E0D2EFED70C2EFCD70B2EFAD7000064
:100CEE0061EC01F0060E0B6E130E0C6EAD0E0D6E5A
:100CFE000D2EFED70C2EFCD70B2EFAD700000000BF
:100D0E002CD1809A808C80BC02D0809E01D0808EA7
:100D1E0080BE02D0809801D08088C6EC01F0030E10
:100D2E000B6E8A0E0C6E550E0D6E0D2EFED70C2E02
:100D3E00FCD70B2EFAD700000000DDEC01F0290ED7
:100D4E000B6E960E0C6E7F0E0D6E0D2EFED70C2EAC
:100D5E00FCD70B2EFAD701D1809C80BC02D0809A92
:100D6E0001D0808A808E80BE02D0809801D080888B
:100D7E00C6EC01F0F2D0809A80BA02D0809E01D0EB
:100D8E00808E808C80BC02D0809801D08088E6EC6A
:100D9E0001F0E3D0809C80BC02D0809E01D0808E7A
:100DAE0080BE02D0809A01D0808A8088D6D080986A
:100DBE00808C80BC02D0809A01D0808A80BA02D00A
:100DCE00809E01D0808EC9D0809880B802D0809C41
:100DDE0001D0808C808A80BA02D0809E01D0808E15
:100DEE00BCD0809E80BE02D0809801D08088808C3E
:100DFE0080BC02D0809A01D0808AAFD0809880B813
:100E0E0002D0809E01D0808E80BE02D0809C01D008
:100E1E00808C808AA2D0809A80BA02D0809801D02D
:100E2E008088808C80BC02D0809E01D0808E95D030
:100E3E00809C80BC02D0809A01D0808A80BA02D079
:100E4E00809801D08088808E88D0809E80BE02D00F
:100E5E00809A01D0808A80BA02D0809801D0808892
:100E6E00808C7BD0809880B802D0809A01D0808A06
:100E7E0080BA02D0809E01D0808E80BE02D0809C2F
:100E8E0001D0808C6AD0000E411802E1000E40188D
:100E9E00D8B471D6000E411802E1010E4018D8B434
:100EAE007BD6000E411802E1020E4018D8B4F0D6DF
:100EBE00000E411802E1030E4018D8B4F7D6000E0A
:100ECE00411802E1040E4018D8B41BD7000E411889
:100EDE0002E1050E4018D8B43FD7000E411802E1CA
:100EEE00060E4018D8B447D7000E411802E1070E7F
:100EFE004018D8B44FD7000E411802E1080E401822
:100F0E00D8B455D7000E411802E1090E4018D8B4D6
:100F1E005BD7000E411802E10A0E4018D8B461D713
:100F2E00000E411802E10B0E4018D8B467D7000E20
:100F3E00411802E10C0E4018D8B46DD7000E4118BE
:100F4E0002E10D0E4018D8B473D7000E411802E11D
:0C0F5E000E0E4018D8B479D785D71200C9
:0A0F6A000F01586B5799579B1200B6
:100F740049EC09F0B5DD660ED36E806A816A826A37
:100F84000F0E926EDE0E936EF90E946E0F01386B97
:100F9400396B3A6BF086F088F19AF198F28EF28C04
:100FA400BA90BA92630EBB6E97DDBA90BA92630E92
:100FB400BB6E8EDDBA90BA92630EBB6E99DDBA90A9
:100FC400BA92630EBB6ECFDF4C6A01EC01F04C6A3F
:100FD400C5EC00F04C6A57EC00F04C6A8EEC00F063
:100FE40047EC00F04CEC00F051EC00F013EC00F096
:100FF40081BE97D0809C808E80BE02D0809A01D022
:10100400808A80BA02D0809801D08088040E0B6E4A
:101014000C0E0C6E330E0D6E0D2EFED70C2EFCD75F
:101024000B2EFAD700000000809E808C80BC02D07A
:10103400809A01D0808A80BA02D0809801D08088BA
:10104400040E0B6E0C0E0C6E330E0D6E0D2EFED7B1
:101054000C2EFCD70B2EFAD700000000809A808C4F
:1010640080BC02D0809E01D0808E80BE02D0809849
:1010740001D08088040E0B6E0C0E0C6E330E0D6EB8
:101084000D2EFED70C2EFCD70B2EFAD70000000035
:101094008098808A80BA02D0809E01D0808E80BEE3
:1010A40002D0809C01D0808C040E0B6E0C0E0C6E52
:1010B400330E0D6E0D2EFED70C2EFCD70B2EFAD749
:1010C40000000000808C80BC02D0809E01D0808E05
:1010D40080BE02D0809A01D0808A80BA02D08098E3
:1010E40001D080880B0E0B6E260E0C6E5D0E0D6EFD
:1010F4000D2EFED70C2EFCD70B2EFAD700000000C5
:10110400DDEC01F0030E0B6E8A0E0C6E550E0D6EA7
:101114000D2EFED70C2EFCD70B2EFAD700000000A4
:1011240067D781BE9BD0DDEC01F081BE97D0809C57
:10113400808E80BE02D0809A01D0808A80BA02D08C
:10114400809801D08088040E0B6E0C0E0C6E330E4A
:101154000D6E0D2EFED70C2EFCD70B2EFAD70000E9
:101164000000809E808C80BC02D0809A01D0808A4E
:1011740080BA02D0809801D08088040E0B6E0C0EC9
:101184000C6E330E0D6E0D2EFED70C2EFCD70B2ECF
:10119400FAD700000000809A808C80BC02D0809E28
:1011A40001D0808E80BE02D0809801D08088040E49
:1011B4000B6E0C0E0C6E330E0D6E0D2EFED70C2E18
:1011C400FCD70B2EFAD7000000008098808A80BAE2
:1011D40002D0809E01D0808E80BE02D0809C01D03F
:1011E400808C040E0B6E0C0E0C6E330E0D6E0D2ED9
:1011F400FED70C2EFCD70B2EFAD700000000808CF3
:1012040080BC02D0809E01D0808E80BE02D0809AA5
:1012140001D0808A80BA02D0809801D080880B0ED9
:101224000B6E260E0C6E5D0E0D6E0D2EFED70C2E63
:10123400FCD70B2EFAD700000000DDEC01F0030E02
:101244000B6E8A0E0C6E550E0D6E0D2EFED70C2EE7
:10125400FCD70B2EFAD70000000067D756DC61D705
:02126400FFD7B2
:1012920010EE15F02B0E006E010E016E660EF66E4C
:0E12A200120EF76E000EF86E7FEC05F01200D3
:011266000087
:041267000000000083
:01126B000082
:04126C00000000007E
:01127000007D
:041271000000000079
:011275000078
:011276000077
:041277000000000073
:01127B000072
:01127C000170
:04127D00000000006D
:01128100006C
:041282000000000068
:041286000000000064
:01128A000063
:01128B000062
:01128C000061
:04128D00000000005D
:020000040030CA
:0D00010078183CFFBD81FF0FC00FE00F40DD
:00000001FF
