:04000000CFEF05F049
:10000800F0A005D0F090010E176E010E166EF0A24A
:0E00180005D0F092010E186E010E166E11004A
:0C002600939ABA840C0E0F015D131200B7
:0C0032009390BA840C0E0F0157131200BB
:0C003E009298BA840C0E0F0154131200AB
:0A004A009494BA840C0EBD1212004B
:100054000B6A0A6A096A00500402F4CF09F0F3CF6C
:1000640008F001500502F4CF0BF0F3CF0AF0005072
:100074000502F3500926F4500A22E86A0B220150C3
:100084000402F3500926F4500A22E86A0B2208C03D
:1000940000F009C001F00AC002F00BC003F0120026
:0A00A4009492BA840C0E661212004A
:1000AE00BB50010F006E016A000E01221DC004F04C
:1000BE00000E056EC8DF060E026E00C004F001C011
:1000CE0005F0025005E005320432059EFF0FFAD707
:1000DE00040E016E04C000F0015004E000360090E2
:1000EE00FF0FFBD7300E0014036E04C000F005C0E6
:1000FE0001F001320032019E01320032019E00C039
:0C010E0067FF0F0E661603506612120009
:10011A00BB50010F006E016A000E01221DC004F0DF
:10012A00000E056E92DF060E026E00C004F001C0DA
:10013A0005F0025005E005320432059EFF0FFAD79A
:10014A00040E016E04C000F0015004E00036009075
:10015A00FF0FFBD7300E0014036E04C000F005C079
:10016A0001F001320032019E01320032019E00C0CC
:0C017A00BEFF0F0EBD160350BD12120098
:10018600BB50010F006E016A000E01221DC004F073
:10019600000E056E5CDF060E026E00C004F001C0A4
:1001A60005F0025005E005320432059EFF0FFAD72E
:1001B600040E016E04C000F0015004E00036009009
:1001C600FF0FFBD7300E0014036E04C000F005C00D
:1001D60001F001320032019E01320032019E00C060
:0E01E6005EFF0F0E0F015D1703505D13120038
:0C01F4002ADF56DF16DF1BDF20DF1200C1
:10020000BB50010F006E016A000E01221DC004F0F8
:10021000000E056E1FDF060E026E00C004F001C066
:1002200005F0025005E005320432059EFF0FFAD7B3
:10023000040E016E04C000F0015004E0003600908E
:10024000FF0FFBD7300E0014036E04C000F005C092
:1002500001F001320032019E01320032019E00C0E5
:0E02600058FF0F0E0F015717035057131200CF
:10026E00FF0E1D6E53DFFF0E1D6E1ADFFF0E1D6E8D
:0A027E0083DFFF0E1D6EBDDF1200CE
:10028800B5DF1D6A46DF1D6A0EDFA00E1D6E77DF23
:060298001D6AB2DF120036
:10029E00AADFAA0E1D6E3ADF1D6A02DF1D6A6CDF31
:0602AE001D6AA7DF12002B
:1002B400E9DF030E0B6E8A0E0C6E550E0D6E0D2EBD
:1002C400FED70C2EFCD70B2EFAD700000000CDDF92
:0202D400120016
:1002D6008EDFAA0E1D6E1EDF1D6AE6DE8C0E1D6EFB
:0802E6004FDF1D6A8ADF1200E0
:1002EE0082DFFF0E1D6E12DF1D6ADADECD0E1D6E71
:0802FE0043DF1D6A7EDF1200E0
:1003060076DF1D6A07DF1D6ACFDE1D6A39DFB40E90
:100316001D6E73DF030E0B6E080E0C6E770E0D6EE0
:100326000D2EFED70C2EFCD70B2EFAD79DDF120012
:1003360081A404D081A202D0CBDF5ED081B41FD0CD
:1003460081B21DD091DF020E0B6E040E0C6EBA0E3A
:100356000D6E0D2EFED70C2EFCD70B2EFAD70000F5
:10036600CFDF020E0B6E040E0C6EBA0E0D6E0D2E46
:10037600FED70C2EFCD70B2EFAD700003DD081B24B
:100386001DD072DF020E0B6E040E0C6EBA0E0D6ED1
:100396000D2EFED70C2EFCD70B2EFAD7000087DFCA
:1003A600020E0B6E040E0C6EBA0E0D6E0D2EFED7DF
:1003B6000C2EFCD70B2EFAD700001ED081B41CD011
:1003C60053DF020E0B6E040E0C6EBA0E0D6E0D2E62
:1003D600FED70C2EFCD70B2EFAD700005DDF020EDF
:1003E6000B6E040E0C6EBA0E0D6E0D2EFED70C2E75
:0A03F600FCD70B2EFAD7000012000E
:100400001D6A8BDE1D6A53DE1D6ABDDE1D6AF8DEC5
:020410001200D8
:1004120061DF340E0C6EF10E0D6E0D2EFED70C2E1A
:10042200FCD70000000062DF030E0B6E8A0E0C6E1A
:10043200550E0D6E0D2EFED70C2EFCD70B2EFAD7B5
:06044200000000001200A2
:10044800D5DEE60E1D6E65DE1D6A2DDE1D6A97DEA1
:060458001D6AD2DE120055
:10045E00165204E069DF166A156A67D144D182B07C
:10046E0007D082BC05D081B803D0010E156E40D0E6
:10047E0082A007D082BC05D081B803D0020E156EC3
:10048E0037D082B007D082AC05D081B803D0030E2E
:10049E00156E2ED082A007D082AC05D081B803D0C5
:1004AE00040E156E25D082B007D082BC05D081A86F
:1004BE0003D0050E156E1CD082A007D082BC05D0CD
:1004CE0081A803D0060E156E13D082B007D082AC71
:1004DE0005D081A803D0070E156E0AD082A007D0D2
:1004EE0082AC05D081A803D0080E156E01D081DF35
:1004FE001CD1808880B802D0809A01D0808A80BAC0
:10050E0002D0809E01D0808E80BE02D0809C01D011
:10051E00808CDADE030E0B6E8A0E0C6E550E0D6E8F
:10052E000D2EFED70C2EFCD70B2EFAD70000000096
:10053E0060DF030E0B6E080E0C6E770E0D6E0D2E19
:10054E00FED70C2EFCD70B2EFAD7156AEED0809C58
:10055E00808880B802D0809A01D0808A80BA02D07A
:10056E00809E01D0808E89DE020E0B6E040E0C6E04
:10057E00BA0E0D6E0D2EFED70C2EFCD70B2EFAD703
:10058E0000006EDE020E0B6E040E0C6EBA0E0D6EB9
:10059E000D2EFED70C2EFCD70B2EFAD70000156AA7
:1005AE00C4D0809E808880B802D0809A01D0808A84
:1005BE0080BA02D0809C01D0808C24DF156AB5D021
:1005CE00809E80BE02D0809C01D0808C808880B8B6
:1005DE0002D0809A01D0808A50DE340E0C6EF10E5D
:1005EE000D6E0D2EFED70C2EFCD700000000020E55
:1005FE000B6E040E0C6EBA0E0D6E0D2EFED70C2E5B
:10060E00FCD70B2EFAD70000156A8FD0809A8088FF
:10061E0080B802D0809E01D0808E80BE02D0809C99
:10062E0001D0808C0ADF050E0B6E0F0E0C6EF10ED4
:10063E000D6E0D2EFED70C2EFCD70B2EFAD710DE1C
:10064E00820E0C6EDD0E0D6E0D2EFED70C2EFCD70F
:10065E0000000000156A69D0809A80BA02D0809C92
:10066E0001D0808C808880B802D0809E01D0808E90
:10067E00C0DE156A5AD0809A80BA02D0809E01D010
:10068E00808E808880B802D0809C01D0808CD5DE90
:10069E00050E0B6E0F0E0C6EF10E0D6E0D2EFED79F
:1006AE000C2EFCD70B2EFAD7DBDD820E0C6EDD0E78
:1006BE000D6E0D2EFED70C2EFCD700000000156A15
:1006CE0034D0809A80BA02D0809E01D0808E80BEB7
:1006DE0002D0809C01D0808C808894DE156A25D053
:1006EE0088DE156A22D01550000AD8B4B8D6155037
:1006FE00010AD8B4FED61550020AD8B428D7155020
:10070E00030AD8B44ED71550040AD8B459D7155089
:10071E00050AD8B47BD71550060A9EE01550070A75
:0C072E00AAE01550080ACDE0DBD712004D
:0A073A000F015E6B5D995D9B1200DC
:08074400676A6698669A1200CC
:08074C00BE6ABD98BD9A1200BF
:100754000900F5CFE6FF0006FBE10106F9E112000E
:10076400000E80B6010E196E1A6A000E1A6E036A24
:1007740080B4032A03C000F0000E016E0036013677
:1007840000900050192601501A22036A80B2032AED
:1007940003C000F0000E016E0036013600900036F2
:1007A400013600900050192601501A22036A80B0C5
:1007B400032A030E026E03C000F0000E016E025005
:1007C40005E0003600900136FF0FFAD700501926D5
:1007D40001501A2272D1808880B802D0809A01D048
:1007E400808A80BA02D0809E01D0808E80BE02D0E2
:1007F400809C01D0808CCBD1809C808E80BE02D026
:10080400809A01D0808A80BA02D0809801D08088F2
:1008140081A404D081A202D05CDD5ED081B41FD05B
:1008240081B21DD022DD020E0B6E040E0C6EBA0EC8
:100834000D6E0D2EFED70C2EFCD70B2EFAD7000012
:1008440060DD020E0B6E040E0C6EBA0E0D6E0D2ED4
:10085400FED70C2EFCD70B2EFAD700003DD081B268
:100864001DD003DD020E0B6E040E0C6EBA0E0D6E5F
:100874000D2EFED70C2EFCD70B2EFAD7000018DD58
:10088400020E0B6E040E0C6EBA0E0D6E0D2EFED7FC
:100894000C2EFCD70B2EFAD700001ED081B41CD02E
:1008A400E4DC020E0B6E040E0C6EBA0E0D6E0D2EF1
:1008B400FED70C2EFCD70B2EFAD70000EEDC020E6E
:1008C4000B6E040E0C6EBA0E0D6E0D2EFED70C2E92
:1008D400FCD70B2EFAD700005AD1809E808C80BCA6
:1008E40002D0809A01D0808A80BA02D0809801D048
:1008F4008088B3DD4CD1809E80BE02D0809C01D024
:10090400808C80B802D0809A01D0808A9BDD050E4D
:100914000B6E0F0E0C6EF10E0D6E0D2EFED70C2EFF
:10092400FCD70B2EFAD7A1DC820E0C6EDD0E0D6EF9
:100934000D2EFED70C2EFCD70000000028D1809A83
:10094400808C80BC02D0809E01D0808E80BE02D07C
:10095400809801D08088A1DC030E0B6E8A0E0C6E89
:10096400550E0D6E0D2EFED70C2EFCD70B2EFAD77E
:100974000000000043DD290E0B6E960E0C6E7F0EF8
:100984000D6E0D2EFED70C2EFCD70B2EFAD7FFD0F2
:10099400809C80BC02D0809A01D0808A808E80BEE8
:1009A40002D0809801D0808878DCF1D0809A80BA17
:1009B40002D0809E01D0808E808C80BC02D0809832
:1009C40001D080889EDCE3D0809C80BC02D0809ED5
:1009D40001D0808E80BE02D0809A01D0808A808827
:1009E400D6D08098808C80BC02D0809A01D0808A36
:1009F40080BA02D0809E01D0808EC9D0809880B801
:100A040002D0809C01D0808C808A80BA02D0809EE3
:100A140001D0808EBCD0809E80BE02D0809801D050
:100A24008088808C80BC02D0809A01D0808AAFD02C
:100A3400809880B802D0809E01D0808E80BE02D083
:100A4400809C01D0808C808AA2D0809A80BA02D007
:100A5400809801D08088808C80BC02D0809E01D098
:100A6400808E95D0809C80BC02D0809A01D0808AF0
:100A740080BA02D0809801D08088808E88D0809EF1
:100A840080BE02D0809A01D0808A80BA02D0809839
:100A940001D08088808C7BD0809880B802D0809AE6
:100AA40001D0808A80BA02D0809E01D0808E80BE20
:100AB40002D0809C01D0808C6AD0000E1A1802E10A
:100AC400000E1918D8B487D6000E1A1802E1010EC8
:100AD4001918D8B491D6000E1A1802E1020E19188A
:100AE400D8B4FBD6000E1A1802E1030E1918D8B4B4
:100AF40002D7000E1A1802E1040E1918D8B41FD731
:100B0400000E1A1802E1050E1918D8B441D7000EC8
:100B14001A1802E1060E1918D8B448D7000E1A188C
:100B240002E1070E1918D8B44FD7000E1A1802E1C3
:100B3400080E1918D8B455D7000E1A1802E1090E78
:100B44001918D8B45BD7000E1A1802E10A0E191846
:100B5400D8B461D7000E1A1802E10B0E1918D8B4D4
:100B640067D7000E1A1802E10C0E1918D8B46DD705
:100B7400000E1A1802E10D0E1918D8B473D7000E1E
:100B84001A1802E10E0E1918D8B479D785D71200B5
:0A0B94000F01586B5799579B120090
:100B9E0049EC07F0660ED36E806A816A826A0F0E88
:100BAE00926EDE0E936EF90E946E0F01386B396BEA
:100BBE003A6BF086F088F19AF198F28EF28CBA9038
:100BCE00BA92630EBB6EBBDDBA90BA92630EBB6E69
:100BDE00B2DDBA90BA92630EBB6EA8DDBA90BA922D
:100BEE00630EBB6ED0DF1D6A8DEC00F01D6A57ECF4
:100BFE0000F01D6AC3EC00F01D6A00EC01F025EC5C
:100C0E0000F052EC00F013EC00F019EC00F081BE95
:100C1E0097D0809C808E80BE02D0809A01D0808A30
:100C2E0080BA02D0809801D08088040E0B6E0C0E14
:100C3E000C6E330E0D6E0D2EFED70C2EFCD70B2E1A
:100C4E00FAD700000000809E808C80BC02D0809A73
:100C5E0001D0808A80BA02D0809801D08088040E9C
:100C6E000B6E0C0E0C6E330E0D6E0D2EFED70C2E63
:100C7E00FCD70B2EFAD700000000809A808C80BC27
:100C8E0002D0809E01D0808E80BE02D0809801D08E
:100C9E008088040E0B6E0C0E0C6E330E0D6E0D2E28
:100CAE00FED70C2EFCD70B2EFAD700000000809832
:100CBE00808A80BA02D0809E01D0808E80BE02D003
:100CCE00809C01D0808C040E0B6E0C0E0C6E330EBD
:100CDE000D6E0D2EFED70C2EFCD70B2EFAD7000064
:100CEE000000808C80BC02D0809E01D0808E80BEA1
:100CFE0002D0809A01D0808A80BA02D0809801D02A
:100D0E0080880B0E0B6E260E0C6E5D0E0D6E0D2E6C
:100D1E00FED70C2EFCD70B2EFAD70000000000ECED
:100D2E0002F0030E0B6E8A0E0C6E550E0D6E0D2E0E
:100D3E00FED70C2EFCD70B2EFAD70000000067D77B
:100D4E0081BE9BD000EC02F081BE97D0809C808E3D
:100D5E0080BE02D0809A01D0808A80BA02D080985C
:100D6E0001D08088040E0B6E0C0E0C6E330E0D6EC1
:100D7E000D2EFED70C2EFCD70B2EFAD7000000003E
:100D8E00809E808C80BC02D0809A01D0808A80BAEE
:100D9E0002D0809801D08088040E0B6E0C0E0C6E63
:100DAE00330E0D6E0D2EFED70C2EFCD70B2EFAD752
:100DBE0000000000809A808C80BC02D0809E01D002
:100DCE00808E80BE02D0809801D08088040E0B6E7B
:100DDE000C0E0C6E330E0D6E0D2EFED70C2EFCD798
:100DEE000B2EFAD7000000008098808A80BA02D0BD
:100DFE00809E01D0808E80BE02D0809C01D0808CDF
:100E0E00040E0B6E0C0E0C6E330E0D6E0D2EFED7E9
:100E1E000C2EFCD70B2EFAD700000000808C80BC65
:100E2E0002D0809E01D0808E80BE02D0809A01D0EA
:100E3E00808A80BA02D0809801D080880B0E0B6E0B
:100E4E00260E0C6E5D0E0D6E0D2EFED70C2EFCD7E3
:100E5E000B2EFAD70000000000EC02F0030E0B6E12
:100E6E008A0E0C6E550E0D6E0D2EFED70C2EFCD767
:100E7E000B2EFAD70000000067D76DDC61D7FFD7C5
:100E920010EE15F0040E006E010E016E8E0EF66E4F
:0E0EA2000E0EF76E000EF86EAAEC03F01200B2
:010E8E000063
:010E8F000062
:010E90000061
:010E91000060
:020000040030CA
:0D00010078183CFFBD81FF0FC00FE00F40DD
:00000001FF
