:0400000092EF01F08A
:10000800F0A003D0F090010E166EF0A203D0F0928B
:06001800010E156E11003F
:0A001E009494BA840C0EBD12120077
:0A0028009288F00E0F015417120029
:0C003200939ABA840C0E0F015D131200AB
:0A003E009492BA840C0E66121200B0
:080048009482F00E661612000E
:080050009484F00EBD161200AD
:0A0058009380F00E0F0157171200FD
:0A006200938AF00E0F015D171200E3
:0C006C009390BA840C0E0F015713120081
:100078000B6A0A6A096A00500402F4CF09F0F3CF48
:1000880008F001500502F4CF0BF0F3CF0AF000504E
:100098000502F3500926F4500A22E86A0B2201509F
:1000A8000402F3500926F4500A22E86A0B2208C019
:1000B80000F009C001F00AC002F00BC003F0120002
:0C00C8009298BA840C0E0F015413120021
:1000D400BB50010F006E016A000E01221BC004F028
:1000E400000E056EC7DF060E026E00C004F001C0EC
:1000F40005F0025005E005320432059EFF0FFAD7E1
:10010400040E016E04C000F0015004E000360090BB
:10011400FF0FFBD7300E0014036E04C000F005C0BF
:1001240001F001320032019E01320032019E00C012
:0C013400BEFF0F0EBD160350BD121200DE
:10014000BB50010F006E016A000E01221BC004F0BB
:10015000000E056E91DF060E026E00C004F001C0B5
:1001600005F0025005E005320432059EFF0FFAD774
:10017000040E016E04C000F0015004E0003600904F
:10018000FF0FFBD7300E0014036E04C000F005C053
:1001900001F001320032019E01320032019E00C0A6
:0C01A00067FF0F0E661603506612120077
:0C01AC0038DF47DF40DF5CDF89DF120036
:0C01B8004BDF46DF52DF4CDF33DF12006C
:1001C400BB50010F006E016A000E01221BC004F037
:1001D400000E056E4FDF060E026E00C004F001C073
:1001E40005F0025005E005320432059EFF0FFAD7F0
:1001F400040E016E04C000F0015004E000360090CB
:10020400FF0FFBD7300E0014036E04C000F005C0CE
:1002140001F001320032019E01320032019E00C021
:0E02240058FF0F0E0F0157170350571312000B
:10023200BB50010F006E016A000E01221BC004F0C8
:10024200000E056E18DF060E026E00C004F001C03B
:1002520005F0025005E005320432059EFF0FFAD781
:10026200040E016E04C000F0015004E0003600905C
:10027200FF0FFBD7300E0014036E04C000F005C060
:1002820001F001320032019E01320032019E00C0B3
:0E0292005EFF0F0E0F015D1703505D1312008B
:0A02A0000F015E6B5D995D9B12007B
:1002AA000900F5CFE6FF0006FBE10106F9E11200BD
:0802BA00676A6698669A12005B
:0802C200BE6ABD98BD9A12004E
:0A02CA000F01586B5799579B120063
:1002D4006BDFC80E1B6EFCDE1B6A30DF1B6AA7DFF8
:0602E4001B6A6EDF120030
:1002EA0060DFFF0E1B6EF1DE1B6A25DFCD0E1B6E73
:0802FA009BDF1B6A62DF1200AA
:0C0302005ADF8B948B928A9A8A9012002A
:10030E004EDF1B6AE0DE1B6A14DFA00E1B6E8ADF57
:06031E001B6A51DF120012
:10032400156A166A660ED36E806A816A826A0F0E37
:10033400926EDE0E936EF90E946E0F01386B396B6C
:100344003A6BF086F088F19AF198F28EF28CBA90BA
:10035400BA92630EBB6EB3DFBA90BA92630EBB6EF1
:10036400AADFBA90BA92630EBB6E98DFBA90BA92C3
:10037400630EBB6EA8DF1B6AABDE1B6ADFDE1B6A83
:1003840056DF1B6A1DDF49DE58DE51DE6DDE809CC0
:10039400808E80BE02D0809A01D0808A80BA02D03A
:1003A400809801D08088040E0B6E0C0E0C6E330EF8
:1003B4000D6E0D2EFED70C2EFCD70B2EFAD7000097
:1003C4000000809E808C80BC02D0809A01D0808AFC
:1003D40080BA02D0809801D08088040E0B6E0C0E77
:1003E4000C6E330E0D6E0D2EFED70C2EFCD70B2E7D
:1003F400FAD700000000809A808C80BC02D0809ED6
:1004040001D0808E80BE02D0809801D08088040EF6
:100414000B6E0C0E0C6E330E0D6E0D2EFED70C2EC5
:10042400FCD70B2EFAD7000000008098808A80BA8F
:1004340002D0809E01D0808E80BE02D0809C01D0EC
:10044400808C040E0B6E0C0E0C6E330E0D6E0D2E86
:10045400FED70C2EFCD70B2EFAD700000000808CA0
:1004640080BC02D0809E01D0808E80BE02D0809A53
:1004740001D0808A80BA02D0809801D08088165238
:1004840004E0166A3CDF41DF07D0155204E0156A28
:0C04940036DF1EDF01D027DFF2D7FFD7D4
:020000040030CA
:0D00010078183CFFBD81FF0FC00FE00F40DD
:00000001FF
