:040000002AEF05F0EE
:10000800F0A003D0F090010E166EF0A203D0F0928B
:06001800010E176E11003D
:0C001E009390BA840C0E0F0157131200CF
:0C002A009298BA840C0E0F0154131200BF
:0C003600939ABA840C0E0F015D131200A7
:0A0042009494BA840C0EBD12120053
:0A004C009492BA840C0E66121200A2
:100056000B6A0A6A096A00500402F4CF09F0F3CF6A
:1000660008F001500502F4CF0BF0F3CF0AF0005070
:100076000502F3500926F4500A22E86A0B220150C1
:100086000402F3500926F4500A22E86A0B2208C03B
:1000960000F009C001F00AC002F00BC003F0120024
:1000A600BB50010F006E016A000E01221CC004F055
:1000B600000E056ECDDF060E026E00C004F001C014
:1000C60005F0025005E005320432059EFF0FFAD70F
:1000D600040E016E04C000F0015004E000360090EA
:1000E600FF0FFBD7300E0014036E04C000F005C0EE
:1000F60001F001320032019E01320032019E00C041
:0E01060058FF0F0E0F0157170350571312002A
:0C01140096DF9ADF8EDF81DF86DF1200AD
:10012000BB50010F006E016A000E01221CC004F0DA
:10013000000E056E90DF060E026E00C004F001C0D6
:1001400005F0025005E005320432059EFF0FFAD794
:10015000040E016E04C000F0015004E0003600906F
:10016000FF0FFBD7300E0014036E04C000F005C073
:1001700001F001320032019E01320032019E00C0C6
:0E0180005EFF0F0E0F015D1703505D1312009E
:10018E00BB50010F006E016A000E01221CC004F06C
:10019E00000E056E59DF060E026E00C004F001C09F
:1001AE0005F0025005E005320432059EFF0FFAD726
:1001BE00040E016E04C000F0015004E00036009001
:1001CE00FF0FFBD7300E0014036E04C000F005C005
:1001DE0001F001320032019E01320032019E00C058
:0C01EE00BEFF0F0EBD160350BD12120024
:1001FA00BB50010F006E016A000E01221CC004F000
:10020A00000E056E23DF060E026E00C004F001C068
:10021A0005F0025005E005320432059EFF0FFAD7B9
:10022A00040E016E04C000F0015004E00036009094
:10023A00FF0FFBD7300E0014036E04C000F005C098
:10024A0001F001320032019E01320032019E00C0EB
:0C025A0067FF0F0E6616035066121200BC
:1002660056DFAA0E1C6E90DF1C6AC4DF8C0E1C6E55
:0802760054DF1C6A15DF1200C1
:10027E004ADFFF0E1C6E84DF1C6AB8DFCD0E1C6ECB
:08028E0048DF1C6A09DF1200C1
:100296003EDFAA0E1C6E78DF1C6AACDF1C6A3DDFEF
:0602A6001C6AFEDE1200DE
:1002AC0033DF1C6A6EDF1C6AA2DFA00E1C6E32DF0D
:0602BC001C6AF3DE1200D3
:1002C200FF0E1C6E63DFFF0E1C6E96DFFF0E1C6EB0
:0A02D20026DFFF0E1C6EE6DE1200B0
:1002DC00C4DF340E0C6EF10E0D6E0D2EFED70C2EEF
:1002EC00FCD700000000C5DF030E0B6E8A0E0C6EEF
:1002FC00550E0D6E0D2EFED70C2EFCD70B2EFAD7ED
:06030C00000000001200D9
:100312001C6A3CDF1C6A70DF1C6A01DF1C6AC2DED9
:020322001200C7
:10032400F7DE1C6A32DF1C6A66DF1C6AF7DEB40E75
:100334001C6EB7DE030E0B6E080E0C6E770E0D6E80
:100344000D2EFED70C2EFCD70B2EFAD7B8DF1200D9
:1003540030D182B007D082BC05D081B803D0010E61
:10036400156E40D082A007D082BC05D081B803D0DE
:10037400020E156E37D082B007D082AC05D081B89A
:1003840003D0030E156E2ED082A007D082AC05D008
:1003940081B803D0040E156E25D082B007D082BC7C
:1003A40005D081A803D0050E156E1CD082A007D0FD
:1003B40082BC05D081A803D0060E156E13D082B07E
:1003C40007D082AC05D081A803D0070E156E0AD0E1
:1003D40082A007D082AC05D081A803D0080E156E88
:1003E40001D095DF08D1808880B802D0809A01D0EE
:1003F400808A80BA02D0809E01D0808E80BE02D0D6
:10040400809C01D0808C2DDF030E0B6E8A0E0C6E47
:10041400550E0D6E0D2EFED70C2EFCD70B2EFAD7D3
:100424000000000074DF030E0B6E080E0C6E770ED6
:100434000D6E0D2EFED70C2EFCD70B2EFAD7156A97
:10044400DAD0809C808880B802D0809A01D0808ADB
:1004540080BA02D0809E01D0808E26DF020E0B6E01
:10046400040E0C6EBA0E0D6E0D2EFED70C2EFCD79C
:100474000B2EFAD7000023DF030E0B6E8A0E0C6ED0
:10048400550E0D6E0D2EFED70C2EFCD70B2EFAD763
:1004940000000000156AAFD0809E808880B802D02A
:1004A400809A01D0808A80BA02D0809C01D0808C4E
:1004B40013DF156AA0D0809E80BE02D0809C01D03C
:1004C400808C808880B802D0809A01D0808AECDE4B
:1004D400340E0C6EF10E0D6E0D2EFED70C2EFCD7C5
:1004E40000000000F9DE156A86D0809A808880B802
:1004F40002D0809E01D0808E80BE02D0809C01D02C
:10050400808CC7DE020E0B6E040E0C6EBA0E0D6EDE
:100514000D2EFED70C2EFCD70B2EFAD70000CFDE03
:10052400030E0B6E8A0E0C6E550E0D6E0D2EFED73D
:100534000C2EFCD70B2EFAD700000000156A5BD0F6
:10054400809A80BA02D0809C01D0808C808880B848
:1005540002D0809E01D0808EDADE156A4CD0809A5B
:1005640080BA02D0809E01D0808E808880B802D06C
:10057400809C01D0808C8DDE4E0E0C6EEB0E0D6EC9
:100584000D2EFED70C2EFCD7A7DE156A34D0809A28
:1005940080BA02D0809E01D0808E80BE02D0809C22
:1005A40001D0808C808898DE156A25D0B0DE156A6B
:1005B40022D01550000AD8B4CCD61550010AD8B4AC
:1005C40012D71550020AD8B43CD71550030AD8B430
:1005D40063D71550040AD8B46ED71550050AD8B499
:1005E40084D71550060AACE01550070AB8E0155038
:0805F400080ACDE0DBD712007C
:1005FC0057DE030E0B6E8A0E0C6E550E0D6E0D2E05
:10060C00FED70C2EFCD70B2EFAD70000000053DEC1
:02061C001200CA
:08061E00676A6698669A1200F3
:08062600BE6ABD98BD9A1200E6
:10062E000900F5CFE6FF0006FBE10106F9E1120035
:10063E00000E80B6010E186E196A000E196E036A4E
:10064E0080B4032A03C000F0000E016E003601369E
:10065E0000900050182601501922036A80B2032A16
:10066E0003C000F0000E016E003601360090003619
:10067E00013600900050182601501922036A80B0EE
:10068E00032A030E026E03C000F0000E016E02502C
:10069E0005E0003600900136FF0FFAD700501826FD
:1006AE00015019225BD1808880B802D0809A01D087
:1006BE00808A80BA02D0809E01D0808E80BE02D009
:1006CE00809C01D0808CB4D1809C808E80BE02D064
:1006DE00809A01D0808A80BA02D0809801D080881A
:1006EE0081A404D081A202D0B7DD5ED081B41FD028
:1006FE0081B21DD0DFDD020E0B6E040E0C6EBA0E33
:10070E000D6E0D2EFED70C2EFCD70B2EFAD7000039
:10071E0002DE020E0B6E040E0C6EBA0E0D6E0D2E58
:10072E00FED70C2EFCD70B2EFAD700003DD081B28F
:10073E001DD0C0DD020E0B6E040E0C6EBA0E0D6EC9
:10074E000D2EFED70C2EFCD70B2EFAD700004FDF46
:10075E00020E0B6E040E0C6EBA0E0D6E0D2EFED723
:10076E000C2EFCD70B2EFAD700001ED081B41CD055
:10077E00A1DD020E0B6E040E0C6EBA0E0D6E0D2E5A
:10078E00FED70C2EFCD70B2EFAD700007DDD020E05
:10079E000B6E040E0C6EBA0E0D6E0D2EFED70C2EB9
:1007AE00FCD70B2EFAD7000043D1809E808C80BCE4
:1007BE0002D0809A01D0808A80BA02D0809801D06F
:1007CE008088C1DD35D1809E80BE02D0809C01D054
:1007DE00808C80B802D0809A01D0808A78DD28D1B2
:1007EE00809A808C80BC02D0809E01D0808E80BE8C
:1007FE0002D0809801D0808847DD030E0B6E8A0EE2
:10080E000C6E550E0D6E0D2EFED70C2EFCD70B2E2C
:10081E00FAD70000000076DD290E0B6E960E0C6ED8
:10082E007F0E0D6E0D2EFED70C2EFCD70B2EFAD78B
:10083E00FFD0809C80BC02D0809A01D0808A808EAE
:10084E0080BE02D0809801D080881EDDF1D0809AC3
:10085E0080BA02D0809E01D0808E808C80BC02D067
:10086E00809801D0808857DDE3D0809C80BC02D078
:10087E00809E01D0808E80BE02D0809A01D0808A68
:10088E008088D6D08098808C80BC02D0809A01D08F
:10089E00808A80BA02D0809E01D0808EC9D0809886
:1008AE0080B802D0809C01D0808C808A80BA02D021
:1008BE00809E01D0808EBCD0809E80BE02D080985B
:1008CE0001D08088808C80BC02D0809A01D0808A32
:1008DE00AFD0809880B802D0809E01D0808E80BE2E
:1008EE0002D0809C01D0808C808AA2D0809A80BA5F
:1008FE0002D0809801D08088808C80BC02D0809EEF
:10090E0001D0808E95D0809C80BC02D0809A01D080
:10091E00808A80BA02D0809801D08088808E88D05C
:10092E00809E80BE02D0809A01D0808A80BA02D08A
:10093E00809801D08088808C7BD0809880B802D03F
:10094E00809A01D0808A80BA02D0809E01D0808E9B
:10095E0080BE02D0809C01D0808C6AD0000E191807
:10096E0002E1000E1818D8B49ED6000E191802E136
:10097E00010E1818D8B4A8D6000E191802E1020EEE
:10098E001818D8B412D7000E191802E1030E181851
:10099E00D8B419D7000E191802E1040E1818D8B4DD
:1009AE001FD7000E191802E1050E1818D8B441D73A
:1009BE00000E191802E1060E1818D8B448D7000E0A
:1009CE00191802E1070E1818D8B44FD7000E1918CF
:1009DE0002E1080E1818D8B455D7000E191802E106
:1009EE00090E1818D8B45BD7000E191802E10A0EBA
:1009FE001818D8B461D7000E191802E10B0E18188A
:100A0E00D8B467D7000E191802E10C0E1818D8B416
:100A1E006DD7000E191802E10D0E1818D8B473D741
:100A2E00000E191802E10E0E1818D8B479D785D712
:020A3E001200A4
:0A0A40000F01586B5799579B1200E5
:0A0A4A000F015E6B5D995D9B1200C9
:100A5400156A166A176A660ED36E806A816A826A9C
:100A64000F0E926EDE0E936EF90E946E0F01386BBC
:100A7400396B3A6BF086F088F19AF198F28EF28C29
:100A8400BA90BA92630EBB6ECCDDBA90BA92630E82
:100A9400BB6EC3DDBA90BA92630EBB6ED4DFBA905C
:100AA400BA92630EBB6ECADF1C6AC7EC00F01C6A04
:100AB400FDEC00F01C6A90EC00F01C6A53EC00F0B2
:100AC40021EC00F026EC00F01BEC00F00FEC00F041
:100AD40081BE97D0809C808E80BE02D0809A01D047
:100AE400808A80BA02D0809801D08088040E0B6E70
:100AF4000C0E0C6E330E0D6E0D2EFED70C2EFCD785
:100B04000B2EFAD700000000809E808C80BC02D09F
:100B1400809A01D0808A80BA02D0809801D08088DF
:100B2400040E0B6E0C0E0C6E330E0D6E0D2EFED7D6
:100B34000C2EFCD70B2EFAD700000000809A808C74
:100B440080BC02D0809E01D0808E80BE02D080986E
:100B540001D08088040E0B6E0C0E0C6E330E0D6EDD
:100B64000D2EFED70C2EFCD70B2EFAD7000000005A
:100B74008098808A80BA02D0809E01D0808E80BE08
:100B840002D0809C01D0808C040E0B6E0C0E0C6E77
:100B9400330E0D6E0D2EFED70C2EFCD70B2EFAD76E
:100BA40000000000808C80BC02D0809E01D0808E2A
:100BB40080BE02D0809A01D0808A80BA02D0809808
:100BC40001D080880B0E0B6E260E0C6E5D0E0D6E22
:100BD4000D2EFED70C2EFCD70B2EFAD700000000EA
:100BE40089EC01F0030E0B6E8A0E0C6E550E0D6E21
:100BF4000D2EFED70C2EFCD70B2EFAD700000000CA
:100C040067D781BE9BD089EC01F081BE97D0809CD0
:100C1400808E80BE02D0809A01D0808A80BA02D0B1
:100C2400809801D08088040E0B6E0C0E0C6E330E6F
:100C34000D6E0D2EFED70C2EFCD70B2EFAD700000E
:100C44000000809E808C80BC02D0809A01D0808A73
:100C540080BA02D0809801D08088040E0B6E0C0EEE
:100C64000C6E330E0D6E0D2EFED70C2EFCD70B2EF4
:100C7400FAD700000000809A808C80BC02D0809E4D
:100C840001D0808E80BE02D0809801D08088040E6E
:100C94000B6E0C0E0C6E330E0D6E0D2EFED70C2E3D
:100CA400FCD70B2EFAD7000000008098808A80BA07
:100CB40002D0809E01D0808E80BE02D0809C01D064
:100CC400808C040E0B6E0C0E0C6E330E0D6E0D2EFE
:100CD400FED70C2EFCD70B2EFAD700000000808C18
:100CE40080BC02D0809E01D0808E80BE02D0809ACB
:100CF40001D0808A80BA02D0809801D080880B0EFF
:100D04000B6E260E0C6E5D0E0D6E0D2EFED70C2E88
:100D1400FCD70B2EFAD70000000089EC01F0030E7B
:100D24000B6E8A0E0C6E550E0D6E0D2EFED70C2E0C
:100D3400FCD70B2EFAD70000000067D77EDC61D702
:020D4400FFD7D7
:020000040030CA
:0D00010078183CFFBD81FF0FC00FE00F40DD
:00000001FF
