:0400000060EF05F0B8
:10000800F0A003D0F090010E166EF0A203D0F0928B
:06001800010E176E11003D
:0C001E009298BA840C0E0F0154131200CB
:10002A000B6A0A6A096A00500402F4CF09F0F3CF96
:10003A0008F001500502F4CF0BF0F3CF0AF000509C
:10004A000502F3500926F4500A22E86A0B220150ED
:10005A000402F3500926F4500A22E86A0B2208C067
:10006A0000F009C001F00AC002F00BC003F0120050
:0C007A009390BA840C0E0F015713120073
:0A0086009492BA840C0E6612120068
:0C009000939ABA840C0E0F015D1312004D
:0A009C009494BA840C0EBD121200F9
:1000A600BB50010F006E016A000E01221CC004F055
:1000B600000E056EB7DF060E026E00C004F001C02A
:1000C60005F0025005E005320432059EFF0FFAD70F
:1000D600040E016E04C000F0015004E000360090EA
:1000E600FF0FFBD7300E0014036E04C000F005C0EE
:1000F60001F001320032019E01320032019E00C041
:0E01060058FF0F0E0F0157170350571312002A
:0C011400C3DFB7DFBBDFAFDF80DF12000E
:10012000BB50010F006E016A000E01221CC004F0DA
:10013000000E056E7ADF060E026E00C004F001C0EC
:1001400005F0025005E005320432059EFF0FFAD794
:10015000040E016E04C000F0015004E0003600906F
:10016000FF0FFBD7300E0014036E04C000F005C073
:1001700001F001320032019E01320032019E00C0C6
:0C01800067FF0F0E661603506612120097
:10018C00BB50010F006E016A000E01221CC004F06E
:10019C00000E056E44DF060E026E00C004F001C0B6
:1001AC0005F0025005E005320432059EFF0FFAD728
:1001BC00040E016E04C000F0015004E00036009003
:1001CC00FF0FFBD7300E0014036E04C000F005C007
:1001DC0001F001320032019E01320032019E00C05A
:0E01EC005EFF0F0E0F015D1703505D13120032
:1001FA00BB50010F006E016A000E01221CC004F000
:10020A00000E056E0DDF060E026E00C004F001C07E
:10021A0005F0025005E005320432059EFF0FFAD7B9
:10022A00040E016E04C000F0015004E00036009094
:10023A00FF0FFBD7300E0014036E04C000F005C098
:10024A0001F001320032019E01320032019E00C0EB
:0C025A00BEFF0F0EBD160350BD121200B7
:1002660056DFAA0E1C6EC6DF1C6A57DF8C0E1C6E8C
:080276008ADF1C6A15DF12008B
:10027E004ADFFF0E1C6EBADF1C6A4BDFCD0E1C6E02
:08028E007EDF1C6A09DF12008B
:100296003EDFE60E1C6EAEDF1C6A3FDF1C6A73DFB4
:0602A6001C6AFEDE1200DE
:1002AC00DCDF340E0C6EF10E0D6E0D2EFED70C2E07
:1002BC00FCD700000000DDDF030E0B6E8A0E0C6E07
:1002CC00550E0D6E0D2EFED70C2EFCD70B2EFAD71D
:0602DC000000000012000A
:1002E200FF0E1C6E89DFFF0E1C6E19DFFF0E1C6EE7
:0A02F2004CDFFF0E1C6ED6DE12007A
:1002FC001C6A7DDF1C6A0EDF1C6A42DF1C6ACDDEC5
:02030C001200DD
:10030E0002DF1C6A73DF1C6A04DFA00E1C6E37DF6F
:06031E001C6AC2DE1200A1
:10032400F4DF030E0B6E8A0E0C6E550E0D6E0D2E41
:10033400FED70C2EFCD70B2EFAD700000000CFDF1F
:020344001200A5
:10034600E6DE1C6A57DF1C6AE8DE1C6A1CDFB40E98
:100356001C6EA6DE030E0B6E080E0C6E770E0D6E6F
:100366000D2EFED70C2EFCD70B2EFAD7B7DF1200B8
:1003760044D182B007D082BC05D081B803D0010E2B
:10038600156E40D082A007D082BC05D081B803D0BC
:10039600020E156E37D082B007D082AC05D081B878
:1003A60003D0030E156E2ED082A007D082AC05D0E6
:1003B60081B803D0040E156E25D082B007D082BC5A
:1003C60005D081A803D0050E156E1CD082A007D0DB
:1003D60082BC05D081A803D0060E156E13D082B05C
:1003E60007D082AC05D081A803D0070E156E0AD0BF
:1003F60082A007D082AC05D081A803D0080E156E66
:1004060001D079DF1CD1808880B802D0809A01D0D3
:10041600808A80BA02D0809E01D0808E80BE02D0B3
:10042600809C01D0808C1CDF030E0B6E8A0E0C6E36
:10043600550E0D6E0D2EFED70C2EFCD70B2EFAD7B1
:100446000000000058DF030E0B6E080E0C6E770ED0
:100456000D6E0D2EFED70C2EFCD70B2EFAD7156A75
:10046600EED0809C808880B802D0809A01D0808AA5
:1004760080BA02D0809E01D0808E46DF020E0B6EBF
:10048600040E0C6EBA0E0D6E0D2EFED70C2EFCD77A
:100496000B2EFAD7000022DF020E0B6E040E0C6E36
:1004A600BA0E0D6E0D2EFED70C2EFCD70B2EFAD7DC
:1004B6000000156AC4D0809E808880B802D0809AD9
:1004C60001D0808A80BA02D0809C01D0808CEBDE7D
:1004D600156AB5D0809E80BE02D0809C01D0808CEB
:1004E600808880B802D0809A01D0808A0DDF340ED1
:1004F6000C6EF10E0D6E0D2EFED70C2EFCD70000E5
:100506000000020E0B6E040E0C6EBA0E0D6E0D2E52
:10051600FED70C2EFCD70B2EFAD70000156A8FD00B
:10052600809A808880B802D0809E01D0808E80BE5E
:1005360002D0809C01D0808CABDE050E0B6E0F0EB8
:100546000C6EF10E0D6E0D2EFED70C2EFCD70B2E5B
:10055600FAD7C4DE820E0C6EDD0E0D6E0D2EFED7A2
:100566000C2EFCD700000000156A69D0809A80BA6C
:1005760002D0809C01D0808C808880B802D0809E7A
:1005860001D0808EB8DE156A5AD0809A80BA02D021
:10059600809E01D0808E808880B802D0809C01D059
:1005A600808C76DE050E0B6E0F0E0C6EF10E0D6E48
:1005B6000D2EFED70C2EFCD70B2EFAD78FDE820E11
:1005C6000C6EDD0E0D6E0D2EFED70C2EFCD7000028
:1005D6000000156A34D0809A80BA02D0809E01D07D
:1005E600808E80BE02D0809C01D0808C80885BDEAD
:1005F600156A25D080DE156A22D01550000AD8B4B7
:10060600B8D61550010AD8B4FED61550020AD8B489
:1006160028D71550030AD8B44ED71550040AD8B4B3
:1006260059D71550050AD8B47BD71550060A9EE04F
:100636001550070AAAE01550080ACDE0DBD71200CC
:1006460066DDAA0E1C6ED6DD1C6A67DD1C6A9BDDA4
:060656001C6A26DD120003
:0A065C000F015E6B5D995D9B1200BB
:08066600676A6698669A1200AB
:08066E00BE6ABD98BD9A12009E
:100676000900F5CFE6FF0006FBE10106F9E11200ED
:10068600000E80B6010E186E196A000E196E036A06
:1006960080B4032A03C000F0000E016E0036013656
:1006A60000900050182601501922036A80B2032ACE
:1006B60003C000F0000E016E0036013600900036D1
:1006C600013600900050182601501922036A80B0A6
:1006D600032A030E026E03C000F0000E016E0250E4
:1006E60005E0003600900136FF0FFAD700501826B5
:1006F6000150192272D1808880B802D0809A01D028
:10070600808A80BA02D0809E01D0808E80BE02D0C0
:10071600809C01D0808CCBD1809C808E80BE02D004
:10072600809A01D0808A80BA02D0809801D08088D1
:1007360081A404D081A202D093DD5ED081B41FD003
:1007460081B21DD0CBDD020E0B6E040E0C6EBA0EFE
:100756000D6E0D2EFED70C2EFCD70B2EFAD70000F1
:10076600EFDD020E0B6E040E0C6EBA0E0D6E0D2E24
:10077600FED70C2EFCD70B2EFAD700003DD081B247
:100786001DD0ACDD020E0B6E040E0C6EBA0E0D6E95
:100796000D2EFED70C2EFCD70B2EFAD70000BFDD90
:1007A600020E0B6E040E0C6EBA0E0D6E0D2EFED7DB
:1007B6000C2EFCD70B2EFAD700001ED081B41CD00D
:1007C6008DDD020E0B6E040E0C6EBA0E0D6E0D2E26
:1007D600FED70C2EFCD70B2EFAD7000031DF020E07
:1007E6000B6E040E0C6EBA0E0D6E0D2EFED70C2E71
:1007F600FCD70B2EFAD700005AD1809E808C80BC85
:1008060002D0809A01D0808A80BA02D0809801D026
:100816008088AEDD4CD1809E80BE02D0809C01D007
:10082600808C80B802D0809A01D0808A31DD050E96
:100836000B6E0F0E0C6EF10E0D6E0D2EFED70C2EDE
:10084600FCD70B2EFAD74ADD820E0C6EDD0E0D6E2E
:100856000D2EFED70C2EFCD70000000028D1809A62
:10086600808C80BC02D0809E01D0808E80BE02D05B
:10087600809801D08088E4DE030E0B6E8A0E0C6E23
:10088600550E0D6E0D2EFED70C2EFCD70B2EFAD75D
:100896000000000030DD290E0B6E960E0C6E7F0EEA
:1008A6000D6E0D2EFED70C2EFCD70B2EFAD7FFD0D1
:1008B600809C80BC02D0809A01D0808A808E80BEC7
:1008C60002D0809801D08088BBDEF1D0809A80BAB1
:1008D60002D0809E01D0808E808C80BC02D0809811
:1008E60001D080882DDDE3D0809C80BC02D0809E24
:1008F60001D0808E80BE02D0809A01D0808A808806
:10090600D6D08098808C80BC02D0809A01D0808A14
:1009160080BA02D0809E01D0808EC9D0809880B8DF
:1009260002D0809C01D0808C808A80BA02D0809EC2
:1009360001D0808EBCD0809E80BE02D0809801D02F
:100946008088808C80BC02D0809A01D0808AAFD00B
:10095600809880B802D0809E01D0808E80BE02D062
:10096600809C01D0808C808AA2D0809A80BA02D0E6
:10097600809801D08088808C80BC02D0809E01D077
:10098600808E95D0809C80BC02D0809A01D0808ACF
:1009960080BA02D0809801D08088808E88D0809ED0
:1009A60080BE02D0809A01D0808A80BA02D0809818
:1009B60001D08088808C7BD0809880B802D0809AC5
:1009C60001D0808A80BA02D0809E01D0808E80BEFF
:1009D60002D0809C01D0808C6AD0000E191802E1EA
:1009E600000E1818D8B487D6000E191802E1010EA9
:1009F6001818D8B491D6000E191802E1020E18186C
:100A0600D8B4FBD6000E191802E1030E1818D8B494
:100A160002D7000E191802E1040E1818D8B41FD711
:100A2600000E191802E1050E1818D8B441D7000EA9
:100A3600191802E1060E1818D8B448D7000E19186E
:100A460002E1070E1818D8B44FD7000E191802E1A4
:100A5600080E1818D8B455D7000E191802E1090E59
:100A66001818D8B45BD7000E191802E10A0E181828
:100A7600D8B461D7000E191802E10B0E1818D8B4B5
:100A860067D7000E191802E10C0E1818D8B46DD7E6
:100A9600000E191802E10D0E1818D8B473D7000EFF
:100AA600191802E10E0E1818D8B479D785D7120096
:0A0AB6000F01586B5799579B12006F
:100AC000DAEC06F0660ED36E806A816A826A0F0ED7
:100AD000926EDE0E936EF90E946E0F01386B396BC9
:100AE0003A6BF086F088F19AF198F28EF28CBA9017
:100AF000BA92630EBB6EBBDDBA90BA92630EBB6E48
:100B0000B2DDBA90BA92630EBB6EA8DDBA90BA920B
:100B1000630EBB6ED0DF1C6AFDEC00F01C6A90EC2B
:100B200000F01C6AC6EC00F01C6A53EC00F04EECBE
:100B300000F043EC00F048EC00F03DEC00F081BE2A
:100B400097D0809C808E80BE02D0809A01D0808A0F
:100B500080BA02D0809801D08088040E0B6E0C0EF3
:100B60000C6E330E0D6E0D2EFED70C2EFCD70B2EF9
:100B7000FAD700000000809E808C80BC02D0809A52
:100B800001D0808A80BA02D0809801D08088040E7B
:100B90000B6E0C0E0C6E330E0D6E0D2EFED70C2E42
:100BA000FCD70B2EFAD700000000809A808C80BC06
:100BB00002D0809E01D0808E80BE02D0809801D06D
:100BC0008088040E0B6E0C0E0C6E330E0D6E0D2E07
:100BD000FED70C2EFCD70B2EFAD700000000809811
:100BE000808A80BA02D0809E01D0808E80BE02D0E2
:100BF000809C01D0808C040E0B6E0C0E0C6E330E9C
:100C00000D6E0D2EFED70C2EFCD70B2EFAD7000042
:100C10000000808C80BC02D0809E01D0808E80BE7F
:100C200002D0809A01D0808A80BA02D0809801D008
:100C300080880B0E0B6E260E0C6E5D0E0D6E0D2E4B
:100C4000FED70C2EFCD70B2EFAD7000000007EEC4E
:100C500001F0030E0B6E8A0E0C6E550E0D6E0D2EEE
:100C6000FED70C2EFCD70B2EFAD70000000067D75A
:100C700081BE9BD07EEC01F081BE97D0809C808E9F
:100C800080BE02D0809A01D0808A80BA02D080983B
:100C900001D08088040E0B6E0C0E0C6E330E0D6EA0
:100CA0000D2EFED70C2EFCD70B2EFAD7000000001D
:100CB000809E808C80BC02D0809A01D0808A80BACD
:100CC00002D0809801D08088040E0B6E0C0E0C6E42
:100CD000330E0D6E0D2EFED70C2EFCD70B2EFAD731
:100CE00000000000809A808C80BC02D0809E01D0E1
:100CF000808E80BE02D0809801D08088040E0B6E5A
:100D00000C0E0C6E330E0D6E0D2EFED70C2EFCD776
:100D10000B2EFAD7000000008098808A80BA02D09B
:100D2000809E01D0808E80BE02D0809C01D0808CBD
:100D3000040E0B6E0C0E0C6E330E0D6E0D2EFED7C8
:100D40000C2EFCD70B2EFAD700000000808C80BC44
:100D500002D0809E01D0808E80BE02D0809A01D0C9
:100D6000808A80BA02D0809801D080880B0E0B6EEA
:100D7000260E0C6E5D0E0D6E0D2EFED70C2EFCD7C2
:100D80000B2EFAD7000000007EEC01F0030E0B6E74
:100D90008A0E0C6E550E0D6E0D2EFED70C2EFCD746
:100DA0000B2EFAD70000000067D76DDC61D7FFD7A4
:100DB40010EE15F0030E006E010E016EB00EF66E0D
:0E0DC4000D0EF76E000EF86E3BEC03F0120001
:010DB0000042
:010DB1000041
:010DB2000040
:020000040030CA
:0D00010078183CFFBD81FF0FC00FE00F40DD
:00000001FF
