:0400000066EF07F0B0
:10000800F0A005D0F090010E2F6E010E196EF0A22F
:0E00180005D0F092010E2E6E010E196E110031
:0A0026009492BA840C0E66121200C8
:0A0030009494BA840C0EBD12120065
:0C003A009390BA840C0E0F0157131200B3
:0C0046009298BA840C0E0F0154131200A3
:0C005200939ABA840C0E0F015D1312008B
:10005E000B6A0A6A096A00500402F4CF09F0F3CF62
:10006E0008F001500502F4CF0BF0F3CF0AF0005068
:10007E000502F3500926F4500A22E86A0B220150B9
:10008E000402F3500926F4500A22E86A0B2208C033
:10009E0000F009C001F00AC002F00BC003F012001C
:0C00AE00C0DFBADFCFDFC2DFC7DF120007
:1000BA00BB50010F006E016A000E012242C004F01B
:1000CA00000E056EC7DF060E026E00C004F001C006
:1000DA0005F0025005E005320432059EFF0FFAD7FB
:1000EA00040E016E04C000F0015004E000360090D6
:1000FA00FF0FFBD7300E0014036E04C000F005C0DA
:10010A0001F001320032019E01320032019E00C02C
:0C011A0067FF0F0E6616035066121200FD
:10012600BB50010F006E016A000E012242C004F0AE
:10013600000E056E91DF060E026E00C004F001C0CF
:1001460005F0025005E005320432059EFF0FFAD78E
:10015600040E016E04C000F0015004E00036009069
:10016600FF0FFBD7300E0014036E04C000F005C06D
:1001760001F001320032019E01320032019E00C0C0
:0C018600BEFF0F0EBD160350BD1212008C
:10019200BB50010F006E016A000E012242C004F042
:1001A200000E056E5BDF060E026E00C004F001C099
:1001B20005F0025005E005320432059EFF0FFAD722
:1001C200040E016E04C000F0015004E000360090FD
:1001D200FF0FFBD7300E0014036E04C000F005C001
:1001E20001F001320032019E01320032019E00C054
:0E01F20058FF0F0E0F0157170350571312003E
:10020000BB50010F006E016A000E012242C004F0D3
:10021000000E056E24DF060E026E00C004F001C061
:1002200005F0025005E005320432059EFF0FFAD7B3
:10023000040E016E04C000F0015004E0003600908E
:10024000FF0FFBD7300E0014036E04C000F005C092
:1002500001F001320032019E01320032019E00C0E5
:0E0260005EFF0F0E0F015D1703505D131200BD
:10026E00FF0E426E59DFFF0E426E20DFFF0E426E12
:0A027E00C0DFFF0E426E86DF1200A3
:1002880012DF426A4CDF426A14DFC80E426EB4DFE6
:06029800426A7BDF120048
:10029E00F29E1AC004F01BC005F01CC006F01DC073
:1002AE0007F0F28E04C000F005C001F006C002F0A7
:0602BE0007C003F012006E
:1002C400F4DEFF0E426E2DDF426AF5DECD0E426E85
:0802D40095DF426A5CDF1200B5
:1002DC00E8DEC80E426E21DF426AE9DE8C0E426E09
:0802EC0089DF426A50DF1200B5
:1002F400DCDE426A16DF426ADEDE426A7FDFB40E6B
:10030400426E45DF030E0B6E080E0C6E770E0D6EFB
:100314000D2EFED70C2EFCD70B2EFAD7A6DF12001B
:10032400C4DEAA0E426EFDDE426AC5DE426A66DFA4
:06033400426A2DDF1200F9
:10033A00426AF4DE426ABCDE426A5DDF426A24DF58
:02034A0012009F
:10034C00B0DEE60E426EE9DE426AB1DE426A52DF90
:06035C00426A19DF1200E5
:1003620092DF030E0B6E8A0E0C6E550E0D6E0D2E65
:10037200FED70C2EFCD70B2EFAD70000000076DF3A
:02038200120067
:100384008CDF00C03EF001C03FF002C040F003C06B
:1003940041F044D095DF3EC01EF03FC01FF040C086
:1003A40020F041C021F0010E276E41D03EC001F083
:1003B4003FC002F040C003F041C004F01E50015E93
:1003C4001F50025A2050035A2150045A000E045C54
:1003D40008E1000E035C05E1000E025C02E1140E6C
:1003E400015C0BE36DDF3EC01EF03FC01FF040C058
:1003F40020F041C021F0020E276E19D082BC0AD031
:100404005FDF3EC01EF03FC01FF040C020F041C07F
:1004140021F003D02ADF276A306A09D02750000A66
:10042400B9E02750010AC2E02750020AE7E01200AF
:1004340053DF340E0C6EF10E0D6E0D2EFED70C2E06
:10044400FCD7000000003CDF030E0B6E8A0E0C6E1E
:10045400550E0D6E0D2EFED70C2EFCD70B2EFAD793
:0604640000000000120080
:10046A0081A404D081A202D034DF5ED081B41FD02F
:10047A0081B21DD0F7DE020E0B6E040E0C6EBA0EA0
:10048A000D6E0D2EFED70C2EFCD70B2EFAD70000C0
:10049A002CDF020E0B6E040E0C6EBA0E0D6E0D2EB4
:1004AA00FED70C2EFCD70B2EFAD700003DD081B216
:1004BA001DD0D8DE020E0B6E040E0C6EBA0E0D6E37
:1004CA000D2EFED70C2EFCD70B2EFAD7000044DFD8
:1004DA00020E0B6E040E0C6EBA0E0D6E0D2EFED7AA
:1004EA000C2EFCD70B2EFAD700001ED081B41CD0DC
:1004FA00B9DE020E0B6E040E0C6EBA0E0D6E0D2EC8
:10050A00FED70C2EFCD70B2EFAD7000006DF020E00
:10051A000B6E040E0C6EBA0E0D6E0D2EFED70C2E3F
:0A052A00FCD70B2EFAD700001200D8
:10053400B4DE00C03AF001C03BF002C03CF003C09E
:100544003DF057D09FDE3AC032F03BC033F03CC0A0
:1005540034F03DC035F0010E316E54D03AC001F094
:100564003BC002F03CC003F03DC004F03250015ED9
:100574003350025A3450035A3550045A000E045C66
:1005840008E1000E035C05E1000E025C02E1640E6A
:10059400015C0CE36ADE3AC032F03BC033F03CC08D
:1005A40034F03DC035F0020E316E01D06BDE2AD03E
:1005B4003AC001F03BC002F03CC003F03DC004F07F
:1005C4003250015E3350025A3450035A3550045AA3
:1005D400000E045C08E1000E035C05E1000E025C01
:1005E40002E1640E015C03E3316A306A01D03DDE4E
:1005F40009D03150000AA6E03150010AAFE0315071
:06060400020AD6E012001C
:10060A0049DE00C03AF001C03BF002C03CF003C032
:10061A003DF056D05EDE3AC02AF03BC02BF03CC01B
:10062A002CF03DC02DF0010E296E56D03AC001F0D3
:10063A003BC002F03CC003F03DC004F02A50015E0A
:10064A002B50025A2C50035A2D50045A000E045CA7
:10065A0008E1000E035C05E1000E025C02E1320EC5
:10066A00015C0BE365DE3AC02AF03BC02BF03CC0CC
:10067A002CF03DC02DF0020E296E2ED03AC001F0AA
:10068A003BC002F03CC003F03DC004F02A50015EBA
:10069A002B50025A2C50035A2D50045A000E045C57
:1006AA0008E1000E035C05E1000E025C02E1640E43
:1006BA00015C02E3030E296E0FD0306A296A0CD05E
:1006CA002950000AA7E02950010AB0E02950020A7D
:0A06DA00D5E02950030AF1E01200F8
:1006E400DCDD00C03AF001C03BF002C03CF003C0C6
:1006F4003DF01AD0C7DD3AC023F03BC024F03CC023
:1007040025F03DC026F0010E226E17D082B006D02F
:1007140082AC04D081B802D0020E226E0ED030DE3C
:10072400306A010E226E09D02250010AE3E0225001
:0C073400010AECE02250020AF2E0120080
:10074000AEDD00C03AF001C03BF002C03CF003C097
:100750003DF061D0FBDD3AC015F03BC016F03CC067
:1007600017F03DC018F0010E286E5ED081B803D09E
:10077000306A286A59D03AC001F03BC002F03CC050
:1007800003F03DC004F01550015E1650025A175098
:10079000035A1850045A000E045C08E1000E035C72
:1007A00005E1000E025C02E1640E015C0CE35FDD1A
:1007B0003AC015F03BC016F03CC017F03DC018F031
:1007C000020E286E01D0C2DD2FD081B803D0306A6E
:1007D000286A2AD03AC001F03BC002F03CC003F0C6
:1007E0003DC004F01550015E1650025A1750035ACE
:1007F0001850045A000E045C08E1000E035C05E189
:10080000000E025C02E1640E015C03E3306A286AB8
:1008100001D02DDD09D02850000A9CE02850010AA3
:0A082000A5E02850020AD1E0120002
:10082A00195206E01FDD1CDE196A306A276AFCD0FD
:10083A00DBD082B007D082BC05D081B803D0010ECC
:10084A00306E40D082A007D082BC05D081B803D0D8
:10085A00020E306E37D082B007D082AC05D081B894
:10086A0003D0030E306E2ED082A007D082AC05D002
:10087A0081B803D0040E306E25D082B007D082BC76
:10088A0005D081A803D0050E306E1CD082A007D0F7
:10089A0082BC05D081A803D0060E306E13D082B078
:1008AA0007D082AC05D081A803D0070E306E0AD0DB
:1008BA0082A007D082AC05D081A803D0080E306E82
:1008CA0001D036DDB1D0808880B802D0809A01D0BC
:1008DA00808A80BA02D0809E01D0808E80BE02D0EB
:1008EA00809C01D0808C8CDE9FD0809C808880B8D0
:1008FA0002D0809A01D0808A80BA02D0809E01D02C
:10090A00808E13DE91D0809E808880B802D0809A33
:10091A0001D0808A80BA02D0809C01D0808C2DDDE3
:10092A0083D0809E80BE02D0809C01D0808C80883B
:10093A0080B802D0809A01D0808ACFDE75D0809AA2
:10094A00808880B802D0809E01D0808E80BE02D07E
:10095A00809C01D0808CEFDE67D0809A80BA02D06A
:10096A00809C01D0808C808880B802D0809E01D083
:10097A00808EDEDC306A58D0809A80BA02D0809E9F
:10098A0001D0808E808880B802D0809C01D0808C73
:10099A00D8DC050E0B6E0F0E0C6EF10E0D6E0D2EC1
:1009AA00FED70C2EFCD70B2EFAD75CDC820E0C6E0F
:1009BA00DD0E0D6E0D2EFED70C2EFCD700000000AA
:1009CA00306A32D0809A80BA02D0809E01D0808E5E
:1009DA0080BE02D0809C01D0808C808826DD306A5F
:1009EA0023D0A6DC306A20D03050000AD8B421D7F0
:1009FA003050010AD8B467D73050020AD8B475D734
:100A0A003050030AD8B47FD73050040A8AE03050F5
:100A1A00050A95E03050060AA0E03050070AACE01B
:0A0A2A003050080ACFE0DDD71200BB
:080A3400676A6698669A1200D9
:080A3C00BE6ABD98BD9A1200CC
:100A4400030ED56E830ED66EF28AF294F28E1200E5
:0A0A54000F015E6B5D995D9B1200BF
:100A5E000900F5CFE6FF0006FBE10106F9E1120001
:100A6E00000E80B6010E366E376A000E376E036AC0
:100A7E0080B4032A03C000F0000E016E003601366A
:100A8E0000900050362601503722036A80B2032AA6
:100A9E0003C000F0000E016E0036013600900036E5
:100AAE00013600900050362601503722036A80B07E
:100ABE00032A030E026E03C000F0000E016E0250F8
:100ACE0005E0003600900136FF0FFAD700503626AB
:100ADE000150372284D1808880B802D0809A01D00C
:100AEE00808A80BA02D0809E01D0808E80BE02D0D5
:100AFE00809C01D0808CDDD1809C808E80BE02D007
:100B0E00809A01D0808A80BA02D0809801D08088E5
:100B1E0081A405D081A203D06EEC01F064D081B423
:100B2E0021D081B21FD037EC01F0020E0B6E040EF5
:100B3E000C6EBA0E0D6E0D2EFED70C2EFCD70B2E94
:100B4E00FAD700007AEC01F0020E0B6E040E0C6E5A
:100B5E00BA0E0D6E0D2EFED70C2EFCD70B2EFAD71D
:100B6E00000041D081B21FD037EC01F0020E0B6EA7
:100B7E00040E0C6EBA0E0D6E0D2EFED70C2EFCD77B
:100B8E000B2EFAD70000B1EC01F0020E0B6E040E24
:100B9E000C6EBA0E0D6E0D2EFED70C2EFCD70B2E34
:100BAE00FAD7000020D081B41ED037EC01F0020E2F
:100BBE000B6E040E0C6EBA0E0D6E0D2EFED70C2E95
:100BCE00FCD70B2EFAD7000092EC01F0020E0B6E42
:100BDE00040E0C6EBA0E0D6E0D2EFED70C2EFCD71B
:100BEE000B2EFAD7000065D1809E808C80BC02D07F
:100BFE00809A01D0808A80BA02D0809801D08088F5
:100C0E000DDE57D1809E80BE02D0809C01D0808C9C
:100C1E0080B802D0809A01D0808A6EEC01F0150E59
:100C2E000B6E4B0E0C6EBE0E0D6E0D2EFED70C2ED9
:100C3E00FCD70B2EFAD7000037EC01F0060E0B6E28
:100C4E00130E0C6EAD0E0D6E0D2EFED70C2EFCD7A8
:100C5E000B2EFAD7000000002CD1809A808C80BC1D
:100C6E0002D0809E01D0808E80BE02D0809801D0AE
:100C7E00808892EC01F0030E0B6E8A0E0C6E550EF0
:100C8E000D6E0D2EFED70C2EFCD70B2EFAD70000B4
:100C9E0000009DEC01F0290E0B6E960E0C6E7F0E71
:100CAE000D6E0D2EFED70C2EFCD70B2EFAD701D1C2
:100CBE00809C80BC02D0809A01D0808A808E80BEBB
:100CCE0002D0809801D0808892EC01F0F2D0809A08
:100CDE0080BA02D0809E01D0808E808C80BC02D0E3
:100CEE00809801D080887AEC01F0E3D0809C80BCA3
:100CFE0002D0809E01D0808E80BE02D0809A01D01C
:100D0E00808A8088D6D08098808C80BC02D0809AD1
:100D1E0001D0808A80BA02D0809E01D0808EC9D048
:100D2E00809880B802D0809C01D0808C808A80BA56
:100D3E0002D0809E01D0808EBCD0809E80BE02D01C
:100D4E00809801D08088808C80BC02D0809A01D09F
:100D5E00808AAFD0809880B802D0809E01D0808EDD
:100D6E0080BE02D0809C01D0808C808AA2D0809AD6
:100D7E0080BA02D0809801D08088808C80BC02D04E
:100D8E00809E01D0808E95D0809C80BC02D0809AAF
:100D9E0001D0808A80BA02D0809801D08088808E5F
:100DAE0088D0809E80BE02D0809A01D0808A80BA80
:100DBE0002D0809801D08088808C7BD0809880B8BB
:100DCE0002D0809A01D0808A80BA02D0809E01D053
:100DDE00808E80BE02D0809C01D0808C6AD0000EA6
:100DEE00371802E1000E3618D8B475D6000E371833
:100DFE0002E1010E3618D8B47FD6000E371802E184
:100E0E00020E3618D8B4F0D6000E371802E1030ED3
:100E1E003618D8B4F7D6000E371802E1040E36187D
:100E2E00D8B41BD7000E371802E1050E3618D8B409
:100E3E003FD7000E371802E1060E3618D8B447D742
:100E4E00000E371802E1070E3618D8B44FD7000E31
:100E5E00371802E1080E3618D8B455D7000E3718D9
:100E6E0002E1090E3618D8B45BD7000E371802E12E
:100E7E000A0E3618D8B461D7000E371802E10B0EE1
:100E8E003618D8B467D7000E371802E10C0E361894
:100E9E00D8B46DD7000E371802E10D0E3618D8B43F
:100EAE0073D7000E371802E10E0E3618D8B479D764
:040EBE0085D71200C2
:0A0EC2000F01586B5799579B12005F
:100ECC00F0EC08F0B9DD660ED36E806A816A826A36
:100EDC000F0E926EDE0E936EF90E946E0F01386B40
:100EEC00396B3A6BF086F088F19AF198F28EF28CAD
:100EFC00BA90BA92630EBB6E9BDDBA90BA92630E37
:100F0C00BB6E92DDBA90BA92630EBB6E9DDDBA9049
:100F1C00BA92630EBB6ECFDF426A93EC00F0426A6A
:100F2C005DEC00F0426A00EC01F0426AC9EC00F0A2
:100F3C0018EC00F013EC00F029EC00F01DEC00F0C4
:100F4C0081BE97D0809C808E80BE02D0809A01D0CA
:100F5C00808A80BA02D0809801D08088040E0B6EF3
:100F6C000C0E0C6E330E0D6E0D2EFED70C2EFCD708
:100F7C000B2EFAD700000000809E808C80BC02D023
:100F8C00809A01D0808A80BA02D0809801D0808863
:100F9C00040E0B6E0C0E0C6E330E0D6E0D2EFED75A
:100FAC000C2EFCD70B2EFAD700000000809A808CF8
:100FBC0080BC02D0809E01D0808E80BE02D08098F2
:100FCC0001D08088040E0B6E0C0E0C6E330E0D6E61
:100FDC000D2EFED70C2EFCD70B2EFAD700000000DE
:100FEC008098808A80BA02D0809E01D0808E80BE8C
:100FFC0002D0809C01D0808C040E0B6E0C0E0C6EFB
:10100C00330E0D6E0D2EFED70C2EFCD70B2EFAD7F1
:10101C0000000000808C80BC02D0809E01D0808EAD
:10102C0080BE02D0809A01D0808A80BA02D080988B
:10103C0001D080880B0E0B6E260E0C6E5D0E0D6EA5
:10104C000D2EFED70C2EFCD70B2EFAD7000000006D
:10105C009DEC01F0030E0B6E8A0E0C6E550E0D6E90
:10106C000D2EFED70C2EFCD70B2EFAD7000000004D
:10107C0067D781BE9BD09DEC01F081BE97D0809C40
:10108C00808E80BE02D0809A01D0808A80BA02D035
:10109C00809801D08088040E0B6E0C0E0C6E330EF3
:1010AC000D6E0D2EFED70C2EFCD70B2EFAD7000092
:1010BC000000809E808C80BC02D0809A01D0808AF7
:1010CC0080BA02D0809801D08088040E0B6E0C0E72
:1010DC000C6E330E0D6E0D2EFED70C2EFCD70B2E78
:1010EC00FAD700000000809A808C80BC02D0809ED1
:1010FC0001D0808E80BE02D0809801D08088040EF2
:10110C000B6E0C0E0C6E330E0D6E0D2EFED70C2EC0
:10111C00FCD70B2EFAD7000000008098808A80BA8A
:10112C0002D0809E01D0808E80BE02D0809C01D0E7
:10113C00808C040E0B6E0C0E0C6E330E0D6E0D2E81
:10114C00FED70C2EFCD70B2EFAD700000000808C9B
:10115C0080BC02D0809E01D0808E80BE02D0809A4E
:10116C0001D0808A80BA02D0809801D080880B0E82
:10117C000B6E260E0C6E5D0E0D6E0D2EFED70C2E0C
:10118C00FCD70B2EFAD7000000009DEC01F0030EEB
:10119C000B6E8A0E0C6E550E0D6E0D2EFED70C2E90
:1011AC00FCD70B2EFAD70000000067D75ADC61D7AA
:0211BC00FFD75B
:1011E00010EE15F0210E006E010E016EBE0EF66EB1
:0E11F000110EF76E000EF86E2FEC05F01200D7
:0411BE00000000002D
:0111C200002C
:0411C3000000000028
:0411C7000000000024
:0111CB000122
:0411CC00000000001F
:0111D000001E
:0111D100001D
:0111D200001C
:0411D3000000000018
:0111D7000017
:0111D8000016
:0111D9000015
:0111DA000014
:0411DB000000000010
:020000040030CA
:0D00010078183CFFBD81FF0FC00FE00F40DD
:00000001FF
