:1000000094EF03F00000000000EF00F0000000009B
:0A0010000000000000000000F3D71C
:0C001C009298BA840C0E0F0154131200CD
:100028000B6A0A6A096A00500402F4CF09F0F3CF98
:1000380008F001500502F4CF0BF0F3CF0AF000509E
:100048000502F3500926F4500A22E86A0B220150EF
:100058000402F3500926F4500A22E86A0B2208C069
:1000680000F009C001F00AC002F00BC003F0120052
:080078009484F00EBD16120085
:0C0080009390BA840C0E0F01571312006D
:0A008C009494BA840C0EBD12120009
:0A0096009492BA840C0E6612120058
:0C00A000939ABA840C0E0F015D1312003D
:0A00AC009380F00E0F0157171200A9
:0A00B600938AF00E0F015D1712008F
:0800C0009482F00E6616120096
:0A00C8009288F00E0F015417120089
:1000D200BB50010F006E016A000E012219C004F02C
:1000E200000E056EA0DF060E026E00C004F001C015
:1000F20005F0025005E005320432059EFF0FFAD7E3
:10010200040E016E04C000F0015004E000360090BD
:10011200FF0FFBD7300E0014036E04C000F005C0C1
:1001220001F001320032019E01320032019E00C014
:0E01320058FF0F0E0F015717035057131200FE
:10014000BB50010F006E016A000E012219C004F0BD
:10015000000E056E69DF060E026E00C004F001C0DD
:1001600005F0025005E005320432059EFF0FFAD774
:10017000040E016E04C000F0015004E0003600904F
:10018000FF0FFBD7300E0014036E04C000F005C053
:1001900001F001320032019E01320032019E00C0A6
:0E01A0005EFF0F0E0F015D1703505D1312007E
:0C01AE0064DF87DF81DF7BDF88DF120069
:1001BA00BB50010F006E016A000E012219C004F043
:1001CA00000E056E2CDF060E026E00C004F001C0A0
:1001DA0005F0025005E005320432059EFF0FFAD7FA
:1001EA00040E016E04C000F0015004E000360090D5
:1001FA00FF0FFBD7300E0014036E04C000F005C0D9
:10020A0001F001320032019E01320032019E00C02B
:0C021A0067FF0F0E6616035066121200FC
:0C02260032DF36DF3ADF29DFF6DE12009F
:10023200BB50010F006E016A000E012219C004F0CA
:10024200000E056EF0DE060E026E00C004F001C064
:1002520005F0025005E005320432059EFF0FFAD781
:10026200040E016E04C000F0015004E0003600905C
:10027200FF0FFBD7300E0014036E04C000F005C060
:1002820001F001320032019E01320032019E00C0B3
:0C029200BEFF0F0EBD160350BD1212007F
:10029E00FF0E196EC7DF196A89DF196A4ADF196AFC
:1002AE0011DF680E0C6EE40E0D6E0D2EFED70C2EA9
:0602BE00FCD70000120055
:1002C400B0DFFF0E196EB3DF196A75DFCD0E196E3C
:0802D40035DF196AFCDE12009F
:1002DC00A4DFC80E196EA7DF196A69DF196A2ADF55
:0602EC00196AF1DE1200A8
:0C02F2005DDF8B948B928A9A8A90120038
:1002FE00196A98DF196A5ADF196A1BDF196AE2DE7A
:02030E001200DB
:100310008ADF196A8EDF196A50DFA00E196E10DFAE
:06032000196AD7DE12008D
:08032600676A6698669A1200EE
:08032E00BE6ABD98BD9A1200E1
:0A0336000F015E6B5D995D9B1200E4
:10034000000E80B6010E156E166A000E166E036A58
:1003500080B4032A03C000F0000E016E003601369F
:1003600000900050152601501622036A80B2032A1D
:1003700003C000F0000E016E00360136009000361A
:10038000013600900050152601501622036A80B0F5
:10039000032A030E026E03C000F0000E016E02502D
:1003A00005E0003600900136FF0FFAD70050152601
:1003B0000150162249D1808880B802D0809A01D09D
:1003C000808A80BA02D0809E01D0808E80BE02D00A
:1003D000809C01D0808CA2D1809C808E80BE02D077
:1003E000809A01D0808A80BA02D0809801D080881B
:1003F00069DF040E0B6E0C0E0C6E330E0D6E0D2E9F
:10040000FED70C2EFCD70B2EFAD70000000077DFAA
:10041000290E0B6E960E0C6E7F0E0D6E0D2EFED7F6
:100420000C2EFCD70B2EFAD779D1809E808C80BC05
:1004300002D0809A01D0808A80BA02D0809801D000
:10044000808840DF040E0B6E0C0E0C6E330E0D6EAA
:100450000D2EFED70C2EFCD70B2EFAD70000000075
:1004600048DF290E0B6E960E0C6E7F0E0D6E0D2E54
:10047000FED70C2EFCD70B2EFAD750D1809E80BE13
:1004800002D0809C01D0808C80B802D0809A01D0AC
:10049000808A3EDF030E0B6E8A0E0C6E550E0D6EBB
:1004A0000D2EFED70C2EFCD70B2EFAD70000000025
:1004B00026DF290E0B6E960E0C6E7F0E0D6E0D2E26
:1004C000FED70C2EFCD70B2EFAD728D1809A808C21
:1004D00080BC02D0809E01D0808E80BE02D08098E9
:1004E00001D08088FBDE030E0B6E8A0E0C6E550E5B
:1004F0000D6E0D2EFED70C2EFCD70B2EFAD700005A
:100500000000FDDE290E0B6E960E0C6E7F0E0D6E3A
:100510000D2EFED70C2EFCD70B2EFAD7FFD0809CC9
:1005200080BC02D0809A01D0808A808E80BE02D0AA
:10053000809801D08088D2DEF1D0809A80BA02D033
:10054000809E01D0808E808C80BC02D0809801D0AB
:100550008088A5DEE3D0809C80BC02D0809E01D044
:10056000808E80BE02D0809A01D0808A8088D6D0CA
:100570008098808C80BC02D0809A01D0808A80BA1A
:1005800002D0809E01D0808EC9D0809880B802D0E1
:10059000809C01D0808C808A80BA02D0809E01D05D
:1005A000808EBCD0809E80BE02D0809801D0808892
:1005B000808C80BC02D0809A01D0808AAFD0809895
:1005C00080B802D0809E01D0808E80BE02D0809CF8
:1005D00001D0808C808AA2D0809A80BA02D0809884
:1005E00001D08088808C80BC02D0809E01D0808E1B
:1005F00095D0809C80BC02D0809A01D0808A80BA3D
:1006000002D0809801D08088808E88D0809E80BE65
:1006100002D0809A01D0808A80BA02D0809801D01E
:100620008088808C7BD0809880B802D0809A01D05E
:10063000808A80BA02D0809E01D0808E80BE02D097
:10064000809C01D0808C6AD0000E161802E1000E4A
:100650001518D8B4B0D6000E161802E1010E151800
:10066000D8B4BAD6000E161802E1020E1518D8B486
:10067000DCD6000E161802E1030E1518D8B4FED60B
:10068000000E161802E1040E1518D8B41FD7000E7C
:10069000161802E1050E1518D8B441D7000E161829
:1006A00002E1060E1518D8B448D7000E161802E15C
:1006B000070E1518D8B44FD7000E161802E1080E11
:1006C0001518D8B455D7000E161802E1090E1518E2
:1006D000D8B45BD7000E161802E10A0E1518D8B46C
:1006E00061D7000E161802E10B0E1518D8B467D7A3
:1006F000000E161802E10C0E1518D8B46DD7000EB6
:10070000161802E10D0E1518D8B473D7000E16187E
:0E07100002E10E0E1518D8B479D785D7120065
:0A071E000F01586B5799579B12000A
:10072800660ED36E806A816A826A0F0E926EDE0E42
:10073800936EF90E946E0F01386B396B3A6BBA9061
:10074800BA92630EBB6EEFDDBA90BA92630EBB6EBF
:10075800E6DDBA90BA92630EBB6EE9DDBA90BA9242
:10076800630EBB6ED8DF196A60DD196A22DD196A6B
:10077800E3DC196AAADC86DC8ADC8EDC7DDC809C02
:10078800808E80BE02D0809A01D0808A80BA02D042
:10079800809801D08088040E0B6E0C0E0C6E330E00
:1007A8000D6E0D2EFED70C2EFCD70B2EFAD700009F
:1007B8000000809E808C80BC02D0809A01D0808A04
:1007C80080BA02D0809801D08088040E0B6E0C0E7F
:1007D8000C6E330E0D6E0D2EFED70C2EFCD70B2E85
:1007E800FAD700000000809A808C80BC02D0809EDE
:1007F80001D0808E80BE02D0809801D08088040EFF
:100808000B6E0C0E0C6E330E0D6E0D2EFED70C2ECD
:10081800FCD70B2EFAD7000000008098808A80BA97
:1008280002D0809E01D0808E80BE02D0809C01D0F4
:10083800808C040E0B6E0C0E0C6E330E0D6E0D2E8E
:10084800FED70C2EFCD70B2EFAD700000000808CA8
:1008580080BC02D0809E01D0808E80BE02D0809A5B
:1008680001D0808A80BA02D0809801D0808864DD67
:04087800FED7FFD7D1
:020000040030CA
:0D00010078183CFFBD81FF0FC00FE00F40DD
:00000001FF
