:040000007CEF01F0A0
:10000800F0A003D0F090010E166EF0A203D0F0928B
:06001800010E156E11003F
:0A001E009288F00E0F015417120033
:0A0028009494BA840C0EBD1212006D
:0A0032009492BA840C0E66121200BC
:0A003C009380F00E0F015717120019
:080046009484F00EBD161200B7
:08004E009482F00E6616120008
:0A005600938AF00E0F015D171200EF
:0C006000939ABA840C0E0F015D1312007D
:10006C000B6A0A6A096A00500402F4CF09F0F3CF54
:10007C0008F001500502F4CF0BF0F3CF0AF000505A
:10008C000502F3500926F4500A22E86A0B220150AB
:10009C000402F3500926F4500A22E86A0B2208C025
:1000AC0000F009C001F00AC002F00BC003F012000E
:0C00BC009298BA840C0E0F01541312002D
:0C00C8009390BA840C0E0F015713120025
:1000D400BB50010F006E016A000E01221BC004F028
:1000E400000E056EC1DF060E026E00C004F001C0F2
:1000F40005F0025005E005320432059EFF0FFAD7E1
:10010400040E016E04C000F0015004E000360090BB
:10011400FF0FFBD7300E0014036E04C000F005C0BF
:1001240001F001320032019E01320032019E00C012
:0C01340067FF0F0E6616035066121200E3
:0C01400073DF77DF8DDFC0DFB9DF120056
:0C014C007CDF7FDF82DF74DF64DF1200E5
:10015800BB50010F006E016A000E01221BC004F0A3
:10016800000E056E7FDF060E026E00C004F001C0AF
:1001780005F0025005E005320432059EFF0FFAD75C
:10018800040E016E04C000F0015004E00036009037
:10019800FF0FFBD7300E0014036E04C000F005C03B
:1001A80001F001320032019E01320032019E00C08E
:0E01B80058FF0F0E0F01571703505713120078
:1001C600BB50010F006E016A000E01221BC004F035
:1001D600000E056E48DF060E026E00C004F001C078
:1001E60005F0025005E005320432059EFF0FFAD7EE
:1001F600040E016E04C000F0015004E000360090C9
:10020600FF0FFBD7300E0014036E04C000F005C0CC
:1002160001F001320032019E01320032019E00C01F
:0C022600BEFF0F0EBD160350BD121200EB
:10023200BB50010F006E016A000E01221BC004F0C8
:10024200000E056E12DF060E026E00C004F001C041
:1002520005F0025005E005320432059EFF0FFAD781
:10026200040E016E04C000F0015004E0003600905C
:10027200FF0FFBD7300E0014036E04C000F005C060
:1002820001F001320032019E01320032019E00C0B3
:0E0292005EFF0F0E0F015D1703505D1312008B
:0802A000676A6698669A120075
:0802A800BE6ABD98BD9A120068
:1002B0000900F5CFE6FF0006FBE10106F9E11200B7
:0A02C0000F015E6B5D995D9B12005B
:1002CA003ADFBE0E1B6E7ADF1B6AFFDE8C0E1B6ED8
:0802DA00ABDF1B6A3CDF1200E0
:0C02E20034DF8B948B928A9A8A90120071
:0A02EE000F01586B5799579B12003F
:1002F800156A166A660ED36E806A816A826A0F0E64
:10030800926EDE0E936EF90E946E0F01386B396B98
:100318003A6BF086F088F19AF198F28EF28CBA90E6
:10032800BA92630EBB6EBCDFBA90BA92630EBB6E14
:10033800B3DFBA90BA92630EBB6EBEDFBA90BA92C0
:10034800630EBB6ED0DF1B6A3ADF1B6ABFDE1B6A17
:100358006CDF1B6AFDDE64DE68DE7EDEB1DE809C5B
:10036800808E80BE02D0809A01D0808A80BA02D066
:10037800809801D08088040E0B6E0C0E0C6E330E24
:100388000D6E0D2EFED70C2EFCD70B2EFAD70000C3
:100398000000809E808C80BC02D0809A01D0808A28
:1003A80080BA02D0809801D08088040E0B6E0C0EA3
:1003B8000C6E330E0D6E0D2EFED70C2EFCD70B2EA9
:1003C800FAD700000000809A808C80BC02D0809E02
:1003D80001D0808E80BE02D0809801D08088040E23
:1003E8000B6E0C0E0C6E330E0D6E0D2EFED70C2EF2
:1003F800FCD70B2EFAD7000000008098808A80BABC
:1004080002D0809E01D0808E80BE02D0809C01D018
:10041800808C040E0B6E0C0E0C6E330E0D6E0D2EB2
:10042800FED70C2EFCD70B2EFAD700000000808CCC
:1004380080BC02D0809E01D0808E80BE02D0809A7F
:1004480001D0808A80BA02D0809801D08088165264
:1004580003E1155201E112D0166A156A3EDF0B0E50
:100468000B6E260E0C6E5D0E0D6E0D2EFED70C2E2D
:10047800FCD70B2EFAD70000000001D022DFE7D707
:02048800FFD79C
:020000040030CA
:0D00010078183CFFBD81FF0FC00FE00F40DD
:00000001FF
