:0400000030EF09F0E4
:10000800F0A005D0F090010E396E010E2F6EF0A20F
:0E00180005D0F092010E386E010E2F6E110011
:0C0026009390BA840C0E0F0157131200C7
:0C003200939ABA840C0E0F015D131200AB
:0C003E009298BA840C0E0F0154131200AB
:10004A000B6A0A6A096A00500402F4CF09F0F3CF76
:10005A0008F001500502F4CF0BF0F3CF0AF000507C
:10006A000502F3500926F4500A22E86A0B220150CD
:10007A000402F3500926F4500A22E86A0B2208C047
:10008A0000F009C001F00AC002F00BC003F0120030
:0A009A009492BA840C0E6612120054
:0A00A4009494BA840C0EBD121200F1
:1000AE00BB50010F006E016A000E012251C004F018
:1000BE00000E056EC3DF060E026E00C004F001C016
:1000CE0005F0025005E005320432059EFF0FFAD707
:1000DE00040E016E04C000F0015004E000360090E2
:1000EE00FF0FFBD7300E0014036E04C000F005C0E6
:1000FE0001F001320032019E01320032019E00C039
:0C010E0067FF0F0E661603506612120009
:10011A00BB50010F006E016A000E012251C004F0AB
:10012A00000E056E8DDF060E026E00C004F001C0DF
:10013A0005F0025005E005320432059EFF0FFAD79A
:10014A00040E016E04C000F0015004E00036009075
:10015A00FF0FFBD7300E0014036E04C000F005C079
:10016A0001F001320032019E01320032019E00C0CC
:0C017A00BEFF0F0EBD160350BD12120098
:10018600BB50010F006E016A000E012251C004F03F
:10019600000E056E57DF060E026E00C004F001C0A9
:1001A60005F0025005E005320432059EFF0FFAD72E
:1001B600040E016E04C000F0015004E00036009009
:1001C600FF0FFBD7300E0014036E04C000F005C00D
:1001D60001F001320032019E01320032019E00C060
:0E01E6005EFF0F0E0F015D1703505D13120038
:0C01F40057DF51DF1CDF15DF20DF120099
:10020000BB50010F006E016A000E012251C004F0C4
:10021000000E056E1ADF060E026E00C004F001C06B
:1002200005F0025005E005320432059EFF0FFAD7B3
:10023000040E016E04C000F0015004E0003600908E
:10024000FF0FFBD7300E0014036E04C000F005C092
:1002500001F001320032019E01320032019E00C0E5
:0E02600058FF0F0E0F015717035057131200CF
:10026E00F29E34C004F035C005F036C006F037C03B
:10027E0007F0F28E04C000F005C001F006C002F0D7
:06028E0007C003F012009E
:10029400AFDFFF0E516E3FDF516A07DFCD0E516EA7
:0802A40070DF516AABDF1200AC
:1002AC00FF0E516E34DFFF0E516EFBDEFF0E516EF2
:0A02BC0064DFFF0E516E9EDF12009A
:1002C60096DFE60E516E26DF516AEEDE516A58DF82
:0602D600516A93DF1200E3
:1002DC008BDF516A1CDF516AE4DE516A4EDFC80EB7
:0602EC00516E88DF1200D4
:1002F20080DFB40E516E10DF516AD8DE516A42DFE0
:06030200516A7DDF1200CC
:10030800B2DF00C04DF001C04EF002C04FF003C094
:1003180050F044D0BBDF4DC01CF04EC01DF04FC0A4
:100328001EF050C01FF0010E1A6E41D04DC001F0F2
:100338004EC002F04FC003F050C004F01C50015EE4
:100348001D50025A1E50035A1F50045A000E045CD6
:1003580008E1000E035C05E1000E025C02E1140EE8
:10036800015C0BE393DF4DC01CF04EC01DF04FC085
:100378001EF050C01FF0020E1A6E19D082BC0AD0AF
:1003880085DF4DC01CF04EC01DF04FC01EF050C0A0
:100398001FF003D087DF1A6A256A09D01A50000AAD
:1003A800B9E01A50010AC2E01A50020AE7E0120046
:1003B8001DDF516AAEDE516A76DEB40E516EDFDEA5
:0603C800516A1ADF120069
:1003CE00516AA4DE516A6CDE516AD6DE516A11DFC3
:0203DE0012000B
:1003E00009DF516A9ADE516A62DEC80E516ECBDEB9
:0603F000516A06DF120055
:1003F600FEDEC80E516E8EDE516A56DE8C0E516ED2
:08040600BFDE516AFADE1200AC
:10040E00F2DEC80E516E82DE516A4ADE516AB4DEE9
:06041E00516AEFDE12003E
:1004240024DF00C049F001C04AF002C04BF003C011
:100434004CF064D181A416D081A214D0808E80BEE9
:1004440002D0809A01D0808A80BA02D0809801D0EC
:10045400808880B802D0809C01D0808CCADF010ED5
:10046400406E4FD081B41AD081B218D0808880B841
:1004740002D0809C01D0808C809E80BE02D0809A65
:1004840001D0808A11DF49C030F04AC031F04BC03E
:1004940032F04CC033F0060E406E33D081B218D027
:1004A400809A808E80BE02D0809801D0808880B8E7
:1004B40002D0809C01D0808CF7DE49C030F04AC065
:1004C40031F04BC032F04CC033F0020E406E19D004
:1004D40081B417D0809C808E80BE02D0809A01D0D7
:1004E400808A80BA02D0809801D08088DDDE49C03D
:1004F40030F04AC031F04BC032F04CC033F0040E3F
:10050400406E1ED1406A1CD149C001F04AC002F0BD
:100514004BC003F04CC004F03050015E3150025A1D
:100524003250035A3350045A000E045C08E1000EA2
:10053400035C05E1000E025C02E1640E015C0BE366
:10054400CBDE49C030F04AC031F04BC032F04CC071
:1005540033F0070E406EF4D049C001F04AC002F0F7
:100564004BC003F04CC004F03050015E3150025ACD
:100574003250035A3350045A000E045C08E1000E52
:10058400035C05E1010E025C02E12C0E015C0BE34D
:100594008BDE49C030F04AC031F04BC032F04CC061
:1005A40033F0080E406ECCD049C001F04AC002F0CE
:1005B4004BC003F04CC004F03050015E3150025A7D
:1005C4003250035A3350045A000E045C08E1000E02
:1005D400035C05E1000E025C02E1640E015CD8B02C
:1005E400406AAED049C001F04AC002F04BC003F0EB
:1005F4004CC004F03050015E3150025A3250035A5C
:100604003350045A000E045C08E1000E035C05E15B
:10061400000E025C02E1640E015C0BE3CBDE49C018
:1006240030F04AC031F04BC032F04CC033F0030E0E
:10063400406E86D049C001F04AC002F04BC003F0BE
:100644004CC004F03050015E3150025A3250035A0B
:100654003350045A000E045C08E1000E035C05E10B
:10066400000E025C02E1640E015CD8B0406A68D0FE
:1006740049C001F04AC002F04BC003F04CC004F082
:100684003050015E3150025A3250035A3350045AEA
:10069400000E045C08E1000E035C05E1000E025C40
:1006A40002E1320E015C0BE3B0DE49C030F04AC017
:1006B40031F04BC032F04CC033F0050E406E40D0E8
:1006C40049C001F04AC002F04BC003F04CC004F032
:1006D4003050015E3150025A3250035A3350045A9A
:1006E400000E045C08E1000E035C05E1000E025CF0
:1006F40002E1140E015CD8B0406A22D04050000AD6
:10070400D8B498D64050010AD8B4FCD64050060A52
:10071400D8B4FAD64050070AD8B41ED74050080AB5
:10072400D8B442D74050020AD8B45CD74050030A28
:10073400D8B480D74050040A9BE04050050AC0E07A
:020744001200A1
:1007460054D04BDE82AC03D0030E256E28D08CDD50
:1007560000C004F001C005F002C006F003C007F0B7
:100766003A50045E3B50055A3C50065A3D50075AD3
:100776000750000808E10650000805E1055000088A
:1007860002E10450C8080BE2010E3E6E6DDD00C0AA
:100796003AF001C03BF002C03CF003C03DF02BD064
:1007A600A5DD82AC03D0030E256E1ED05DDD00C034
:1007B60004F001C005F002C006F003C007F03A508D
:1007C600045E3B50055A3C50065A3D50075A0750A6
:1007D600000808E10650000805E10550000802E19E
:1007E6000450C808D8A0256A06D03E50000AA9E0E1
:0807F6003E50010AD5E012009B
:1007FE0037DD00C049F001C04AF002C04BF003C023
:10080E004CF061D059DD49C02BF04AC02CF04BC0E2
:10081E002DF04CC02EF0010E1B6E5ED081B803D0B1
:10082E00256A1B6A59D049C001F04AC002F04BC07C
:10083E0003F04CC004F02B50015E2C50025A2D5088
:10084E00035A2E50045A000E045C08E1000E035C9D
:10085E0005E1000E025C02E1640E015C0CE31FDD9B
:10086E0049C02BF04AC02CF04BC02DF04CC02EF0DE
:10087E00020E1B6E01D020DD2FD081B803D0256A69
:10088E001B6A2AD049C001F04AC002F04BC003F0E7
:10089E004CC004F02B50015E2C50025A2D50035ABE
:1008AE002E50045A000E045C08E1000E035C05E1B4
:1008BE00000E025C02E1640E015C03E3256A1B6A12
:1008CE0001D0EDDC09D01B50000A9CE01B50010A40
:0A08DE00A5E01B50020AD1E0120051
:1008E800C2DC00C049F001C04AF002C04BF003C0AE
:1008F8004CF057D071DD49C020F04AC021F04BC000
:1009080022F04CC023F0010E246E54D049C001F0EF
:100918004AC002F04BC003F04CC004F02050015E06
:100928002150025A2250035A2350045A000E045CE4
:1009380008E1000E035C05E1000E025C02E1640EB2
:10094800015C0CE3AFDC49C020F04AC021F04BC089
:1009580022F04CC023F0020E246E01D03DDD2AD0D7
:1009680049C001F04AC002F04BC003F04CC004F08B
:100978002050015E2150025A2250035A2350045A33
:10098800000E045C08E1000E035C05E1000E025C49
:1009980002E1640E015C03E3246A256A01D082DC6B
:1009A80009D02450000AA6E02450010AAFE02450E0
:0609B800020AD6E0120065
:1009BE0057DC00C049F001C04AF002C04BF003C042
:1009CE004CF01AD006DD49C015F04AC016F04BC0E7
:1009DE0017F04CC018F0010E196E17D082B006D069
:1009EE0082AC04D081B802D0020E196E0ED085DC16
:1009FE00256A010E196E09D01950010AE3E019504B
:0C0A0E00010AECE01950020AF2E01200AC
:100A1A0029DC00C049F001C04AF002C04BF003C013
:100A2A004CF056D0E3DC49C026F04AC027F04BC050
:100A3A0028F04CC029F0010E2A6E56D049C001F0A8
:100A4A004AC002F04BC003F04CC004F02650015ECD
:100A5A002750025A2850035A2950045A000E045C9F
:100A6A0008E1000E035C05E1000E025C02E1320EB1
:100A7A00015C0BE3A7DC49C026F04AC027F04BC053
:100A8A0028F04CC029F0020E2A6E2ED049C001F07F
:100A9A004AC002F04BC003F04CC004F02650015E7D
:100AAA002750025A2850035A2950045A000E045C4F
:100ABA0008E1000E035C05E1000E025C02E1640E2F
:100ACA00015C02E3030E2A6E0FD0256A2A6A0CD053
:100ADA002A50000AA7E02A50010AB0E02A50020A66
:0A0AEA00D5E02A50030AF1E01200E3
:100AF40037EC01F000C049F001C04AF002C04BF0ED
:100B040003C04CF01BD079EC01F049C041F04AC05D
:100B140042F04BC043F04CC044F0010E3F6E17D07E
:100B240082B006D082AC04D081B802D0020E3F6EEF
:100B34000ED084EC01F0256A3F6A09D03F50000AC8
:100B4400E2E03F50010AECE03F50020AF2E01200FA
:100B54002F5207E056EC01F063DC2F6A256A1A6A0B
:100B6400F0D0D1D082B007D082BC05D081B803D0F8
:100B7400010E256E4CD082A007D082BC05D081B86E
:100B840003D0020E256E43D082B007D082AC05D0CC
:100B940081B803D0030E256E3AD082A007D082AC70
:100BA40005D081B803D0040E256E31D082B007D0B1
:100BB40082BC05D081A803D0050E256E28D082A062
:100BC40012D082BC10D081A80ED0060E256E3E6ACB
:100BD40037EC01F000C03AF001C03BF002C03CF039
:100BE40003C03DF014D082B007D082AC05D081A8F8
:100BF40003D0070E256E0BD082A007D082AC05D09F
:100C040081A803D0080E256E02D0E7EC01F099D03C
:100C1400808880B802D0809A01D0808A80BA02D0BD
:100C2400809E01D0808E80BE02D0809C01D0808CBA
:100C3400F2DE87D0809C808880B802D0809A01D070
:100C4400808A80BA02D0809E01D0808E4BDE79D01B
:100C5400809E808880B802D0809A01D0808A80BA31
:100C640002D0809C01D0808C84EC01F06AD0809EFC
:100C740080BE02D0809C01D0808C808880B802D055
:100C8400809A01D0808A99DE5CD0809A808880B86E
:100C940002D0809E01D0808E80BE02D0809C01D084
:100CA400808CABDD4ED0809A80BA02D0809C01D07B
:100CB400808C808880B802D0809E01D0808E41DDF7
:100CC40040D0809A80BA02D0809E01D0808E8088E5
:100CD40080B802D0809C01D0808C0ADF32D0809A08
:100CE40080BA02D0809E01D0808E80BE02D0809CCB
:100CF40001D0808C808884EC01F023D0E7EC01F0F3
:100D0400256A1A6A1ED02550000AD8B42BD725505C
:100D1400010AD8B47DD72550020A8CE02550030A75
:100D240097E02550040AA3E02550050AAEE02550BB
:100D3400060AB9E02550070AC4E02550080ACFE0A6
:040D4400DDD71200E5
:080D4800676A6698669A1200C2
:080D5000BE6ABD98BD9A1200B5
:100D5800030ED56E830ED66EF28AF294F28E1200CE
:0A0D68000F015E6B5D995D9B1200A8
:100D72000900F5CFE6FF0006FBE10106F9E11200EA
:100D8200000E80B6010E456E466A000E466E036A7C
:100D920080B4032A03C000F0000E016E0036013653
:100DA20000900050452601504622036A80B2032A71
:100DB20003C000F0000E016E0036013600900036CE
:100DC200013600900050452601504622036A80B049
:100DD200032A030E026E03C000F0000E016E0250E1
:100DE20005E0003600900136FF0FFAD70050452685
:100DF20001504622C4D1808880B802D0809A01D0A6
:100E0200808A80BA02D0809E01D0808E80BE02D0BD
:100E1200809C01D0808C1DD2809C808E80BE02D0AE
:100E2200809A01D0808A80BA02D0809801D08088CE
:100E320081A415D081A213D0808E80BE02D0809A68
:100E420001D0808A80BA02D0809801D0808880B890
:100E520002D0809C01D0808CFBEC01F092D081B456
:100E62003DD081B23BD0808880B802D0809C01D036
:100E7200808C809E80BE02D0809A01D0808A56ECFF
:100E820001F0020E0B6E040E0C6EBA0E0D6E0D2EDC
:100E9200FED70C2EFCD70B2EFAD700006EEC01F019
:100EA200040E0B6E0C0E0C6E330E0D6E0D2EFED755
:100EB2000C2EFCD70B2EFAD70000000056EC01F0E6
:100EC200020E0B6E040E0C6EBA0E0D6E0D2EFED7B8
:100ED2000C2EFCD70B2EFAD7000053D081B22BD0A8
:100EE200809A808E80BE02D0809801D0808880B89F
:100EF20002D0809C01D0808C56EC01F0020E0B6E69
:100F0200040E0C6EBA0E0D6E0D2EFED70C2EFCD7F3
:100F12000B2EFAD70000DCEC01F0020E0B6E040E71
:100F22000C6EBA0E0D6E0D2EFED70C2EFCD70B2EAC
:100F3200FAD7000026D081B424D0809C808E80BE57
:100F420002D0809A01D0808A80BA02D0809801D0E3
:100F5200808856EC01F0820E0C6EDD0E0D6E0D2EA9
:100F6200FED70C2EFCD70000000007EC02F0340E76
:100F72000C6EF10E0D6E0D2EFED70C2EFCD700005E
:100F8200000067D1809E808C80BC02D0809A01D004
:100F9200808A80BA02D0809801D08088DADD59D167
:100FA200809E80BE02D0809C01D0808C80B802D00E
:100FB200809A01D0808AFBEC01F0150E0B6E4B0E6D
:100FC2000C6EBE0E0D6E0D2EFED70C2EFCD70B2E08
:100FD200FAD7000056EC01F0060E0B6E130E0C6EE3
:100FE200AD0E0D6E0D2EFED70C2EFCD70B2EFAD7A2
:100FF200000000002ED1809A808C80BC02D0809E9E
:1010020001D0808E80BE02D0809801D080886EECA4
:1010120001F0040E0B6E0C0E0C6E330E0D6E0D2EC7
:10102200FED70C2EFCD70B2EFAD70000000056EC90
:1010320001F0080E0B6E9D0E0C6E050E0D6E0D2E40
:10104200FED70C2EFCD70B2EFAD70000000001D1E0
:10105200809C80BC02D0809A01D0808A808E80BE23
:1010620002D0809801D0808879EC01F0F2D0809A89
:1010720080BA02D0809E01D0808E808C80BC02D04B
:10108200809801D080886EEC01F0E3D0809C80BC17
:1010920002D0809E01D0808E80BE02D0809A01D084
:1010A200808A8088D6D08098808C80BC02D0809A3A
:1010B20001D0808A80BA02D0809E01D0808EC9D0B1
:1010C200809880B802D0809C01D0808C808A80BABF
:1010D20002D0809E01D0808EBCD0809E80BE02D085
:1010E200809801D08088808C80BC02D0809A01D008
:1010F200808AAFD0809880B802D0809E01D0808E46
:1011020080BE02D0809C01D0808C808AA2D0809A3E
:1011120080BA02D0809801D08088808C80BC02D0B6
:10112200809E01D0808E95D0809C80BC02D0809A17
:1011320001D0808A80BA02D0809801D08088808EC7
:1011420088D0809E80BE02D0809A01D0808A80BAE8
:1011520002D0809801D08088808C7BD0809880B823
:1011620002D0809A01D0808A80BA02D0809E01D0BB
:10117200808E80BE02D0809C01D0808C6AD0000E0E
:10118200461802E1000E4518D8B435D6000E4618AE
:1011920002E1010E4518D8B43FD6000E461802E10E
:1011A200020E4518D8B4EED6000E461802E1030E20
:1011B2004518D8B4F5D6000E461802E1040E4518BB
:1011C200D8B419D7000E461802E1050E4518D8B456
:1011D2003FD7000E461802E1060E4518D8B447D78D
:1011E200000E461802E1070E4518D8B44FD7000E7C
:1011F200461802E1080E4518D8B455D7000E461815
:1012020002E1090E4518D8B45BD7000E461802E178
:101212000A0E4518D8B461D7000E461802E10B0E2B
:101222004518D8B467D7000E461802E10C0E4518CF
:10123200D8B46DD7000E461802E10D0E4518D8B489
:1012420073D7000E461802E10E0E4518D8B479D7AE
:0412520085D712002A
:0A1256000F01586B5799579B1200C7
:10126000C1EC0AF079DD660ED36E806A816A826A0B
:101270000F0E926EDE0E936EF90E946E0F01386BA8
:10128000396B3A6BF086F088F19AF198F28EF28C15
:10129000BA90BA92630EBB6E5BDDBA90BA92630EDF
:1012A000BB6E52DDBA90BA92630EBB6E5DDDBA9032
:1012B000BA92630EBB6ECFDF516A8DEC00F0516ABB
:1012C00057EC00F0516AC3EC00F0516A00EC01F0F9
:1012D00052EC00F04DEC00F019EC00F013EC00F0D3
:1012E00081BE97D0809C808E80BE02D0809A01D033
:1012F000808A80BA02D0809801D08088040E0B6E5C
:101300000C0E0C6E330E0D6E0D2EFED70C2EFCD770
:101310000B2EFAD700000000809E808C80BC02D08B
:10132000809A01D0808A80BA02D0809801D08088CB
:10133000040E0B6E0C0E0C6E330E0D6E0D2EFED7C2
:101340000C2EFCD70B2EFAD700000000809A808C60
:1013500080BC02D0809E01D0808E80BE02D080985A
:1013600001D08088040E0B6E0C0E0C6E330E0D6EC9
:101370000D2EFED70C2EFCD70B2EFAD70000000046
:101380008098808A80BA02D0809E01D0808E80BEF4
:1013900002D0809C01D0808C040E0B6E0C0E0C6E63
:1013A000330E0D6E0D2EFED70C2EFCD70B2EFAD75A
:1013B00000000000808C80BC02D0809E01D0808E16
:1013C00080BE02D0809A01D0808A80BA02D08098F4
:1013D00001D080880B0E0B6E260E0C6E5D0E0D6E0E
:1013E0000D2EFED70C2EFCD70B2EFAD700000000D6
:1013F000E7EC01F0030E0B6E8A0E0C6E550E0D6EAF
:101400000D2EFED70C2EFCD70B2EFAD700000000B5
:1014100067D781BE9BD0E7EC01F081BE97D0809C5E
:10142000808E80BE02D0809A01D0808A80BA02D09D
:10143000809801D08088040E0B6E0C0E0C6E330E5B
:101440000D6E0D2EFED70C2EFCD70B2EFAD70000FA
:101450000000809E808C80BC02D0809A01D0808A5F
:1014600080BA02D0809801D08088040E0B6E0C0EDA
:101470000C6E330E0D6E0D2EFED70C2EFCD70B2EE0
:10148000FAD700000000809A808C80BC02D0809E39
:1014900001D0808E80BE02D0809801D08088040E5A
:1014A0000B6E0C0E0C6E330E0D6E0D2EFED70C2E29
:1014B000FCD70B2EFAD7000000008098808A80BAF3
:1014C00002D0809E01D0808E80BE02D0809C01D050
:1014D000808C040E0B6E0C0E0C6E330E0D6E0D2EEA
:1014E000FED70C2EFCD70B2EFAD700000000808C04
:1014F00080BC02D0809E01D0808E80BE02D0809AB7
:1015000001D0808A80BA02D0809801D080880B0EEA
:101510000B6E260E0C6E5D0E0D6E0D2EFED70C2E74
:10152000FCD70B2EFAD700000000E7EC01F0030E09
:101530000B6E8A0E0C6E550E0D6E0D2EFED70C2EF8
:10154000FCD70B2EFAD70000000067D71ADC61D752
:02155000FFD7C3
:1015820010EE15F0300E006E010E016E520EF66E68
:0E159200150EF76E000EF86EB9EC06F01200A2
:041552000000000095
:011556000193
:011557000093
:011558000092
:04155900000000008E
:04155D00000000008A
:011561000089
:011562000088
:041563000000000084
:011567000083
:04156800000000007F
:01156C00007E
:04156D00000000007A
:041571000000000076
:011575000075
:011576000074
:041577000000000070
:01157B00006F
:01157C00006E
:01157D00006D
:04157E000000000069
:020000040030CA
:0D00010078183CFFBD81FF0FC00FE00F40DD
:00000001FF
