:0400000066EF01F0B6
:10000800F0A003D0F090010E156EF0A203D0F0928C
:06001800010E166E11003E
:0C001E009390BA840C0E0F0157131200CF
:0C002A009298BA840C0E0F0154131200BF
:0C003600939ABA840C0E0F015D131200A7
:0A0042009494BA840C0EBD12120053
:0A004C009492BA840C0E66121200A2
:100056000B6A0A6A096A00500402F4CF09F0F3CF6A
:1000660008F001500502F4CF0BF0F3CF0AF0005070
:100076000502F3500926F4500A22E86A0B220150C1
:100086000402F3500926F4500A22E86A0B2208C03B
:1000960000F009C001F00AC002F00BC003F0120024
:1000A600BB50010F006E016A000E01221BC004F056
:1000B600000E056ECDDF060E026E00C004F001C014
:1000C60005F0025005E005320432059EFF0FFAD70F
:1000D600040E016E04C000F0015004E000360090EA
:1000E600FF0FFBD7300E0014036E04C000F005C0EE
:1000F60001F001320032019E01320032019E00C041
:0E0106005EFF0F0E0F015D1703505D13120018
:10011400BB50010F006E016A000E01221BC004F0E7
:10012400000E056E96DF060E026E00C004F001C0DC
:1001340005F0025005E005320432059EFF0FFAD7A0
:10014400040E016E04C000F0015004E0003600907B
:10015400FF0FFBD7300E0014036E04C000F005C07F
:1001640001F001320032019E01320032019E00C0D2
:0C01740067FF0F0E6616035066121200A3
:10018000BB50010F006E016A000E01221BC004F07B
:10019000000E056E60DF060E026E00C004F001C0A6
:1001A00005F0025005E005320432059EFF0FFAD734
:1001B000040E016E04C000F0015004E0003600900F
:1001C000FF0FFBD7300E0014036E04C000F005C013
:1001D00001F001320032019E01320032019E00C066
:0C01E000BEFF0F0EBD160350BD12120032
:1001EC00BB50010F006E016A000E01221BC004F00F
:1001FC00000E056E2ADF060E026E00C004F001C070
:10020C0005F0025005E005320432059EFF0FFAD7C7
:10021C00040E016E04C000F0015004E000360090A2
:10022C00FF0FFBD7300E0014036E04C000F005C0A6
:10023C0001F001320032019E01320032019E00C0F9
:0E024C0058FF0F0E0F015717035057131200E3
:0C025A00F3DEF7DEEBDEDEDEE3DE12009A
:08026600676A6698669A1200AF
:08026E00BE6ABD98BD9A1200A2
:100276000900F5CFE6FF0006FBE10106F9E11200F1
:0A0286000F015E6B5D995D9B120095
:10029000FF0E1B6E75DFFF0E1B6E3CDFFF0E1B6E2D
:0A02A00002DFFF0E1B6EA2DF12004A
:1002AA00D7DFBE0E1B6E67DF1B6A2FDF8C0E1B6E3D
:0802BA00F5DE1B6A96DF12005D
:0A02C2000F01586B5799579B12006B
:1002CC00156A166A660ED36E806A816A826A0F0E90
:1002DC00926EDE0E936EF90E946E0F01386B396BC5
:1002EC003A6BF086F088F19AF198F28EF28CBA9013
:1002FC00BA92630EBB6EB5DFBA90BA92630EBB6E48
:10030C00ACDFBA90BA92630EBB6EB7DFBA90BA92FA
:10031C00630EBB6ED0DF1B6A2DDF1B6AF5DE1B6A1A
:10032C00BCDE1B6A5DDF87DE8BDE7FDE72DE809CCF
:10033C00808E80BE02D0809A01D0808A80BA02D092
:10034C00809801D08088040E0B6E0C0E0C6E330E50
:10035C000D6E0D2EFED70C2EFCD70B2EFAD70000EF
:10036C000000809E808C80BC02D0809A01D0808A54
:10037C0080BA02D0809801D08088040E0B6E0C0ECF
:10038C000C6E330E0D6E0D2EFED70C2EFCD70B2ED5
:10039C00FAD700000000809A808C80BC02D0809E2E
:1003AC0001D0808E80BE02D0809801D08088040E4F
:1003BC000B6E0C0E0C6E330E0D6E0D2EFED70C2E1E
:1003CC00FCD70B2EFAD7000000008098808A80BAE8
:1003DC0002D0809E01D0808E80BE02D0809C01D045
:1003EC00808C040E0B6E0C0E0C6E330E0D6E0D2EDF
:1003FC00FED70C2EFCD70B2EFAD700000000808CF9
:10040C0080BC02D0809E01D0808E80BE02D0809AAB
:10041C0001D0808A80BA02D0809801D0808881A4D3
:10042C0004D081A202D03BDFFAD72CDF520E0B6E28
:10043C002B0E0C6E000E0D6E0D2EFED70C2EFCD757
:0A044C000B2EFAD70000EBD7FFD704
:020000040030CA
:0D00010078183CFFBD81FF0FC00FE00F40DD
:00000001FF
