:04000000D9EF06F03E
:10000800F0A005D0F090010E246E010E226EF0A231
:0E00180005D0F092010E256E010E226E110031
:0C0026009298BA840C0E0F0154131200C3
:100032000B6A0A6A096A00500402F4CF09F0F3CF8E
:1000420008F001500502F4CF0BF0F3CF0AF0005094
:100052000502F3500926F4500A22E86A0B220150E5
:100062000402F3500926F4500A22E86A0B2208C05F
:1000720000F009C001F00AC002F00BC003F0120048
:0A0082009492BA840C0E661212006C
:0C008C00939ABA840C0E0F015D13120051
:0A0098009494BA840C0EBD121200FD
:0C00A2009390BA840C0E0F01571312004B
:1000AE00BB50010F006E016A000E012234C004F035
:1000BE00000E056EB7DF060E026E00C004F001C022
:1000CE0005F0025005E005320432059EFF0FFAD707
:1000DE00040E016E04C000F0015004E000360090E2
:1000EE00FF0FFBD7300E0014036E04C000F005C0E6
:1000FE0001F001320032019E01320032019E00C039
:0E010E0058FF0F0E0F01571703505713120022
:10011C00BB50010F006E016A000E012234C004F0C6
:10012C00000E056E80DF060E026E00C004F001C0EA
:10013C0005F0025005E005320432059EFF0FFAD798
:10014C00040E016E04C000F0015004E00036009073
:10015C00FF0FFBD7300E0014036E04C000F005C077
:10016C0001F001320032019E01320032019E00C0CA
:0C017C00BEFF0F0EBD160350BD12120096
:0C01880087DF7BDF7FDF89DF4ADF1200AA
:10019400BB50010F006E016A000E012234C004F04E
:1001A400000E056E44DF060E026E00C004F001C0AE
:1001B40005F0025005E005320432059EFF0FFAD720
:1001C400040E016E04C000F0015004E000360090FB
:1001D400FF0FFBD7300E0014036E04C000F005C0FF
:1001E40001F001320032019E01320032019E00C052
:0C01F40067FF0F0E661603506612120023
:10020000BB50010F006E016A000E012234C004F0E1
:10021000000E056E0EDF060E026E00C004F001C077
:1002200005F0025005E005320432059EFF0FFAD7B3
:10023000040E016E04C000F0015004E0003600908E
:10024000FF0FFBD7300E0014036E04C000F005C092
:1002500001F001320032019E01320032019E00C0E5
:0E0260005EFF0F0E0F015D1703505D131200BD
:10026E00FF0E346E54DFFF0E346E8DDFFF0E346ED4
:0A027E00C0DFFF0E346E14DF120023
:100288007FDF346A47DF346A81DFC80E346EB4DF3B
:06029800346A09DF1200C8
:10029E0074DFAA0E346E3BDF346A75DF346AA9DF71
:0602AE00346AFEDE1200BE
:1002B400346A32DF346A6CDF346AA0DF346AF5DE14
:0202C400120026
:1002C60060DFFF0E346E27DF346A61DFCD0E346ED9
:0802D60094DF346AE9DE120036
:1002DE00F29E1EC004F01FC005F020C006F021C023
:1002EE0007F0F28E04C000F005C001F006C002F067
:0602FE0007C003F012002E
:1003040041DFC80E346E08DF346A42DF8C0E346E6F
:0803140075DF346ACADE120035
:10031C00B5DF030E0B6E8A0E0C6E550E0D6E0D2E88
:10032C00FED70C2EFCD70B2EFAD70000000099DF5D
:02033C001200AD
:10033E0024DF346AECDE346A26DF346A5ADFB40E08
:10034E00346EAEDE030E0B6E080E0C6E770E0D6E57
:10035E000D2EFED70C2EFCD70B2EFAD781DF1200F6
:10036E000CDFE60E346ED3DE346A0DDF346A41DF05
:06037E00346A96DE120055
:1003840081A404D081A202D0BBDF5ED081B41FD08F
:1003940081B21DD06ADF020E0B6E040E0C6EBA0E13
:1003A4000D6E0D2EFED70C2EFCD70B2EFAD70000A7
:1003B400C4DF020E0B6E040E0C6EBA0E0D6E0D2E03
:1003C400FED70C2EFCD70B2EFAD700003DD081B2FD
:1003D4001DD04BDF020E0B6E040E0C6EBA0E0D6EAA
:1003E4000D2EFED70C2EFCD70B2EFAD7000094DF6F
:1003F400020E0B6E040E0C6EBA0E0D6E0D2EFED791
:100404000C2EFCD70B2EFAD700001ED081B41CD0C2
:100414002CDF020E0B6E040E0C6EBA0E0D6E0D2E3A
:10042400FED70C2EFCD70B2EFAD7000036DF020EB7
:100434000B6E040E0C6EBA0E0D6E0D2EFED70C2E26
:0A044400FCD70B2EFAD700001200BF
:10044E005ADF340E0C6EF10E0D6E0D2EFED70C2EE5
:10045E00FCD70000000030DF030E0B6E8A0E0C6E10
:10046E00550E0D6E0D2EFED70C2EFCD70B2EFAD779
:06047E0000000000120066
:100484002CDF00C030F001C031F002C032F003C0F4
:1004940033F056D035DF30C028F031C029F032C0F7
:1004A4002AF033C02BF0010E276E56D030C001F075
:1004B40031C002F032C003F033C004F02850015EB2
:1004C4002950025A2A50035A2B50045A000E045C35
:1004D40008E1000E035C05E1000E025C02E1320E4D
:1004E400015C0BE3E5DE30C028F031C029F032C0F6
:1004F4002AF033C02BF0020E276E2ED030C001F04C
:1005040031C002F032C003F033C004F02850015E61
:100514002950025A2A50035A2B50045A000E045CE4
:1005240008E1000E035C05E1000E025C02E1640ECA
:10053400015C02E3030E276E0FD0266A276A0CD0F3
:100544002750000AA7E02750010AB0E02750020A0A
:0A055400D5E02750030AF1E0120081
:10055E00BFDE00C030F001C031F002C032F003C087
:10056E0033F057D08ADE30C016F031C017F032C0EB
:10057E0018F033C019F0010E236E54D030C001F0C4
:10058E0031C002F032C003F033C004F01650015EE9
:10059E001750025A1850035A1950045A000E045C90
:1005AE0008E1000E035C05E1000E025C02E1640E40
:1005BE00015C0CE355DE30C016F031C017F032C0CE
:1005CE0018F033C019F0020E236E01D056DE2AD079
:1005DE0030C001F031C002F032C003F033C004F07D
:1005EE001650015E1750025A1850035A1950045AE9
:1005FE00000E045C08E1000E035C05E1000E025CD7
:10060E0002E1640E015C03E3236A266A01D028DE50
:10061E0009D02350000AA6E02350010AAFE0235070
:06062E00020AD6E01200F2
:1006340054DE00C030F001C031F002C032F003C01B
:1006440033F044D03EDE30C01AF031C01BF032C06B
:100654001CF033C01DF0010E156E41D030C001F006
:1006640031C002F032C003F033C004F01A50015E0E
:100674001B50025A1C50035A1D50045A000E045CAD
:1006840008E1000E035C05E1000E025C02E1140EB9
:10069400015C0BE316DE30C01AF031C01BF032C02F
:1006A4001CF033C01DF0020E156E19D082BC0AD0A6
:1006B40008DE30C01AF031C01BF032C01CF033C069
:1006C4001DF003D0D2DD156A266A09D01550000A40
:1006D400B9E01550010AC2E01550020AE7E0120021
:1006E400225206E0C2DD4CDE226A266A156A17D160
:1006F400F5D082B007D082BC05D081B803D0010EFA
:10070400266E40D082A007D082BC05D081B803D029
:10071400020E266E37D082B007D082AC05D081B8E5
:1007240003D0030E266E2ED082A007D082AC05D053
:1007340081B803D0040E266E25D082B007D082BCC7
:1007440005D081A803D0050E266E1CD082A007D048
:1007540082BC05D081A803D0060E266E13D082B0C9
:1007640007D082AC05D081A803D0070E266E0AD02C
:1007740082A007D082AC05D081A803D0080E266ED3
:1007840001D096DDCCD0808880B802D0809A01D088
:10079400808A80BA02D0809E01D0808E80BE02D032
:1007A400809C01D0808C6CDEBAD0809C808880B81C
:1007B40002D0809A01D0808A80BA02D0809E01D073
:1007C400808ECBDEACD0809E808880B802D0809AA8
:1007D40001D0808A80BA02D0809C01D0808C28DF2E
:1007E400266A9DD0809E80BE02D0809C01D0808CE1
:1007F400808880B802D0809A01D0808A43DD340E8C
:100804000C6EF10E0D6E0D2EFED70C2EFCD70000D3
:100814000000020E0B6E040E0C6EBA0E0D6E0D2E41
:10082400FED70C2EFCD70B2EFAD70000266A77D001
:10083400809A808880B802D0809E01D0808E80BE4D
:1008440002D0809C01D0808C90DD266A68D0809A8A
:1008540080BA02D0809C01D0808C808880B802D07D
:10086400809E01D0808E24DD266A59D0809A80BA79
:1008740002D0809E01D0808E808880B802D0809C77
:1008840001D0808C72DD050E0B6E0F0E0C6EF10E16
:100894000D6E0D2EFED70C2EFCD70B2EFAD7E5DCF1
:1008A400820E0C6EDD0E0D6E0D2EFED70C2EFCD7B7
:1008B40000000000266A33D0809A80BA02D0809E5D
:1008C40001D0808E80BE02D0809C01D0808C808834
:1008D400BCDD266A24D0ECDC266A21D02650000A2E
:1008E400D8B407D72650010AD8B44DD72650020AE7
:1008F400D8B45BD72650030AD8B465D72650040A67
:10090400D8B470D72650050A93E02650060A9FE013
:100914002650070AABE02650080ACEE0DCD71200C6
:08092400676A6698669A1200EA
:08092C00BE6ABD98BD9A1200DD
:10093400030ED56E830ED66EF28AF294F28E1200F6
:0A0944000F015E6B5D995D9B1200D0
:10094E000900F5CFE6FF0006FBE10106F9E1120012
:10095E00000E80B6010E2C6E2D6A000E2D6E036AEF
:10096E0080B4032A03C000F0000E016E003601367B
:10097E00009000502C2601502D22036A80B2032ACB
:10098E0003C000F0000E016E0036013600900036F6
:10099E000136009000502C2601502D22036A80B0A3
:1009AE00032A030E026E03C000F0000E016E025009
:1009BE0005E0003600900136FF0FFAD700502C26C6
:1009CE0001502D227FD1808880B802D0809A01D02C
:1009DE00808A80BA02D0809E01D0808E80BE02D0E6
:1009EE00809C01D0808CD8D1809C808E80BE02D01D
:1009FE00809A01D0808A80BA02D0809801D08088F7
:100A0E0081A404D081A202D076DC60D081B41FD044
:100A1E0081B21DD025DC020E0B6E040E0C6EBA0ECA
:100A2E000D6E0D2EFED70C2EFCD70B2EFAD7000016
:100A3E007FDC020E0B6E040E0C6EBA0E0D6E0D2EBA
:100A4E00FED70C2EFCD70B2EFAD700003FD081B26A
:100A5E001DD006DC020E0B6E040E0C6EBA0E0D6E61
:100A6E000D2EFED70C2EFCD70B2EFAD700004FDC26
:100A7E00020E0B6E040E0C6EBA0E0D6E0D2EFED700
:100A8E000C2EFCD70B2EFAD7000020D081B41ED02E
:100A9E0037EC01F0020E0B6E040E0C6EBA0E0D6EDC
:100AAE000D2EFED70C2EFCD70B2EFAD700004FECD6
:100ABE0001F0020E0B6E040E0C6EBA0E0D6E0D2EA4
:100ACE00FED70C2EFCD70B2EFAD7000065D1809ED8
:100ADE00808C80BC02D0809A01D0808A80BA02D0ED
:100AEE00809801D08088F7DD57D1809E80BE02D0DD
:100AFE00809C01D0808C80B802D0809A01D0808AF0
:100B0E0082EC01F0150E0B6E4B0E0C6EBE0E0D6EC2
:100B1E000D2EFED70C2EFCD70B2EFAD7000037EC7D
:100B2E0001F0060E0B6E130E0C6EAD0E0D6E0D2E2D
:100B3E00FED70C2EFCD70B2EFAD7000000002CD1BE
:100B4E00809A808C80BC02D0809E01D0808E80BE28
:100B5E0002D0809801D080884FEC01F0030E0B6E0E
:100B6E008A0E0C6E550E0D6E0D2EFED70C2EFCD76A
:100B7E000B2EFAD7000000005AEC01F0290E0B6E76
:100B8E00960E0C6E7F0E0D6E0D2EFED70C2EFCD714
:100B9E000B2EFAD701D1809C80BC02D0809A01D056
:100BAE00808A808E80BE02D0809801D080884FECE3
:100BBE0001F0F2D0809A80BA02D0809E01D0808E51
:100BCE00808C80BC02D0809801D080889FEC01F090
:100BDE00E3D0809C80BC02D0809E01D0808E80BEEF
:100BEE0002D0809A01D0808A8088D6D08098808C5E
:100BFE0080BC02D0809A01D0808A80BA02D0809EBA
:100C0E0001D0808EC9D0809880B802D0809C01D04F
:100C1E00808C808A80BA02D0809E01D0808EBCD01B
:100C2E00809E80BE02D0809801D08088808C80BC4F
:100C3E0002D0809A01D0808AAFD0809880B802D03E
:100C4E00809E01D0808E80BE02D0809C01D0808C90
:100C5E00808AA2D0809A80BA02D0809801D08088F3
:100C6E00808C80BC02D0809E01D0808E95D0809CDE
:100C7E0080BC02D0809A01D0808A80BA02D080983F
:100C8E0001D08088808E88D0809E80BE02D0809ACF
:100C9E0001D0808A80BA02D0809801D08088808C62
:100CAE007BD0809880B802D0809A01D0808A80BA9A
:100CBE0002D0809E01D0808E80BE02D0809C01D05A
:100CCE00808C6AD0000E2D1802E1000E2C18D8B4BC
:100CDE007AD6000E2D1802E1010E2C18D8B484D647
:100CEE00000E2D1802E1020E2C18D8B4F0D6000E0C
:100CFE002D1802E1030E2C18D8B4F7D6000E2D18BD
:100D0E0002E1040E2C18D8B41BD7000E2D1802E1E8
:100D1E00050E2C18D8B43FD7000E2D1802E1060E82
:100D2E002C18D8B447D7000E2D1802E1070E2C1838
:100D3E00D8B44FD7000E2D1802E1080E2C18D8B4D7
:100D4E0055D7000E2D1802E1090E2C18D8B45BD71A
:100D5E00000E2D1802E10A0E2C18D8B461D7000E21
:100D6E002D1802E10B0E2C18D8B467D7000E2D18D3
:100D7E0002E10C0E2C18D8B46DD7000E2D1802E11E
:100D8E000D0E2C18D8B473D7000E2D1802E10E0ECE
:0A0D9E002C18D8B479D785D71200BD
:0A0DA8000F01586B5799579B12007A
:100DB2005EEC08F0BEDD660ED36E806A816A826ADE
:100DC2000F0E926EDE0E936EF90E946E0F01386B5B
:100DD200396B3A6BF086F088F19AF198F28EF28CC8
:100DE200BA90BA92630EBB6EA0DDBA90BA92630E4D
:100DF200BB6E97DDBA90BA92630EBB6EA2DDBA905B
:100E0200BA92630EBB6ECFDF346A8EEC00F0346AA6
:100E1200CAEC00F0346A00EC01F0346A57EC00F0DE
:100E22004CEC00F041EC00F046EC00F051EC00F02C
:100E320081BE97D0809C808E80BE02D0809A01D0E5
:100E4200808A80BA02D0809801D08088040E0B6E0E
:100E52000C0E0C6E330E0D6E0D2EFED70C2EFCD723
:100E62000B2EFAD700000000809E808C80BC02D03E
:100E7200809A01D0808A80BA02D0809801D080887E
:100E8200040E0B6E0C0E0C6E330E0D6E0D2EFED775
:100E92000C2EFCD70B2EFAD700000000809A808C13
:100EA20080BC02D0809E01D0808E80BE02D080980D
:100EB20001D08088040E0B6E0C0E0C6E330E0D6E7C
:100EC2000D2EFED70C2EFCD70B2EFAD700000000F9
:100ED2008098808A80BA02D0809E01D0808E80BEA7
:100EE20002D0809C01D0808C040E0B6E0C0E0C6E16
:100EF200330E0D6E0D2EFED70C2EFCD70B2EFAD70D
:100F020000000000808C80BC02D0809E01D0808EC8
:100F120080BE02D0809A01D0808A80BA02D08098A6
:100F220001D080880B0E0B6E260E0C6E5D0E0D6EC0
:100F32000D2EFED70C2EFCD70B2EFAD70000000088
:100F42005AEC01F0030E0B6E8A0E0C6E550E0D6EEE
:100F52000D2EFED70C2EFCD70B2EFAD70000000068
:100F620067D781BE9BD05AEC01F081BE97D0809C9E
:100F7200808E80BE02D0809A01D0808A80BA02D050
:100F8200809801D08088040E0B6E0C0E0C6E330E0E
:100F92000D6E0D2EFED70C2EFCD70B2EFAD70000AD
:100FA2000000809E808C80BC02D0809A01D0808A12
:100FB20080BA02D0809801D08088040E0B6E0C0E8D
:100FC2000C6E330E0D6E0D2EFED70C2EFCD70B2E93
:100FD200FAD700000000809A808C80BC02D0809EEC
:100FE20001D0808E80BE02D0809801D08088040E0D
:100FF2000B6E0C0E0C6E330E0D6E0D2EFED70C2EDC
:10100200FCD70B2EFAD7000000008098808A80BAA5
:1010120002D0809E01D0808E80BE02D0809C01D002
:10102200808C040E0B6E0C0E0C6E330E0D6E0D2E9C
:10103200FED70C2EFCD70B2EFAD700000000808CB6
:1010420080BC02D0809E01D0808E80BE02D0809A69
:1010520001D0808A80BA02D0809801D080880B0E9D
:101062000B6E260E0C6E5D0E0D6E0D2EFED70C2E27
:10107200FCD70B2EFAD7000000005AEC01F0030E49
:101082000B6E8A0E0C6E550E0D6E0D2EFED70C2EAB
:10109200FCD70B2EFAD70000000067D75FDC61D7C0
:0210A200FFD776
:1010BC0010EE15F0170E006E010E016EA40EF66EFA
:0E10CC00100EF76E000EF86EA7EC04F0120086
:0110A400004B
:0410A5000000000047
:0410A9000000000043
:0410AD00000000003F
:0110B100003E
:0110B200003D
:0110B300003C
:0110B400003B
:0110B500003A
:0110B6000039
:0410B7000000000035
:020000040030CA
:0D00010078183CFFBD81FF0FC00FE00F40DD
:00000001FF
