:04000000DEEF07F038
:10000800F0A005D0F090010E3A6E010E396EF0A204
:0E00180005D0F092010E3B6E010E396E110004
:0C002600939ABA840C0E0F015D131200B7
:0A0032009492BA840C0E66121200BC
:0A003C009494BA840C0EBD12120059
:0C0046009298BA840C0E0F0154131200A3
:100052000B6A0A6A096A00500402F4CF09F0F3CF6E
:1000620008F001500502F4CF0BF0F3CF0AF0005074
:100072000502F3500926F4500A22E86A0B220150C5
:100082000402F3500926F4500A22E86A0B2208C03F
:1000920000F009C001F00AC002F00BC003F0120028
:0C00A2009390BA840C0E0F01571312004B
:1000AE00BB50010F006E016A000E01224CC004F01D
:1000BE00000E056EC7DF060E026E00C004F001C012
:1000CE0005F0025005E005320432059EFF0FFAD707
:1000DE00040E016E04C000F0015004E000360090E2
:1000EE00FF0FFBD7300E0014036E04C000F005C0E6
:1000FE0001F001320032019E01320032019E00C039
:0C010E0067FF0F0E661603506612120009
:10011A00BB50010F006E016A000E01224CC004F0B0
:10012A00000E056E91DF060E026E00C004F001C0DB
:10013A0005F0025005E005320432059EFF0FFAD79A
:10014A00040E016E04C000F0015004E00036009075
:10015A00FF0FFBD7300E0014036E04C000F005C079
:10016A0001F001320032019E01320032019E00C0CC
:0C017A00BEFF0F0EBD160350BD12120098
:10018600BB50010F006E016A000E01224CC004F044
:10019600000E056E5BDF060E026E00C004F001C0A5
:1001A60005F0025005E005320432059EFF0FFAD72E
:1001B600040E016E04C000F0015004E00036009009
:1001C600FF0FFBD7300E0014036E04C000F005C00D
:1001D60001F001320032019E01320032019E00C060
:0E01E6005EFF0F0E0F015D1703505D13120038
:0C01F40023DF1DDF16DF53DF24DF1200C5
:10020000BB50010F006E016A000E01224CC004F0C9
:10021000000E056E1EDF060E026E00C004F001C067
:1002200005F0025005E005320432059EFF0FFAD7B3
:10023000040E016E04C000F0015004E0003600908E
:10024000FF0FFBD7300E0014036E04C000F005C092
:1002500001F001320032019E01320032019E00C0E5
:0E02600058FF0F0E0F015717035057131200CF
:10026E00C2DFFF0E4C6E52DF4C6A1ADFCD0E4C6EA3
:08027E0083DF4C6ABEDF1200B1
:10028600F29E35C004F036C005F037C006F038C01F
:1002960007F0F28E04C000F005C001F006C002F0BF
:0602A60007C003F0120086
:1002AC00A3DF4C6A34DF4C6AFCDEC80E4C6E65DF93
:0602BC004C6AA0DF1200F5
:1002C200FF0E4C6E29DFFF0E4C6EF0DEFF0E4C6E01
:0A02D20059DFFF0E4C6E93DF12009F
:1002DC008BDFC80E4C6E1BDF4C6AE3DE8C0E4C6E53
:0802EC004CDF4C6A87DF1200B1
:1002F4007FDFAA0E4C6E0FDF4C6AD7DE4C6A41DFFB
:060304004C6A7CDF1200D0
:10030A0074DF4C6A05DF4C6ACDDE4C6A37DFB40E07
:10031A004C6E71DF030E0B6E080E0C6E770E0D6EAF
:10032A000D2EFED70C2EFCD70B2EFAD7C5DF1200E6
:10033A00A5DF00C048F001C049F002C04AF003C07E
:10034A004BF044D08FDF48C020F049C021F04AC0AA
:10035A0022F04BC023F0010E246E41D048C001F0B8
:10036A0049C002F04AC003F04BC004F02050015EBD
:10037A002150025A2250035A2350045A000E045C98
:10038A0008E1000E035C05E1000E025C02E1140EB6
:10039A00015C0BE367DF48C020F049C021F04AC086
:1003AA0022F04BC023F0020E246E19D082BC0AD070
:1003BA0059DF48C020F049C021F04AC022F04BC0A2
:1003CA0023F003D079DF246A256A09D02450000A71
:1003DA00B9E02450010AC2E02450020AE7E0120000
:1003EA0004DFE60E4C6E94DE4C6A5CDE4C6AC6DEB6
:0603FA004C6A01DF120055
:1004000055DF030E0B6E8A0E0C6E550E0D6E0D2E03
:10041000FED70C2EFCD70B2EFAD70000000051DFC0
:020420001200C8
:100422004C6A7ADE4C6A42DE4C6AACDE4C6AE7DE2B
:020432001200B6
:1004340053DF340E0C6EF10E0D6E0D2EFED70C2E06
:10044400FCD70000000011DF030E0B6E8A0E0C6E49
:10045400550E0D6E0D2EFED70C2EFCD70B2EFAD793
:0604640000000000120080
:10046A0081A404D081A202D034DF5ED081B41FD02F
:10047A0081B21DD021DF020E0B6E040E0C6EBA0E75
:10048A000D6E0D2EFED70C2EFCD70B2EFAD70000C0
:10049A0037DF020E0B6E040E0C6EBA0E0D6E0D2EA9
:1004AA00FED70C2EFCD70B2EFAD700003DD081B216
:1004BA001DD002DF020E0B6E040E0C6EBA0E0D6E0C
:1004CA000D2EFED70C2EFCD70B2EFAD7000093DF89
:1004DA00020E0B6E040E0C6EBA0E0D6E0D2EFED7AA
:1004EA000C2EFCD70B2EFAD700001ED081B41CD0DC
:1004FA00E3DE020E0B6E040E0C6EBA0E0D6E0D2E9E
:10050A00FED70C2EFCD70B2EFAD70000EEDE020E19
:10051A000B6E040E0C6EBA0E0D6E0D2EFED70C2E3F
:0A052A00FCD70B2EFAD700001200D8
:10053400A8DE00C044F001C045F002C046F003C08C
:1005440047F019D0D5DE44C01BF045C01CF046C0AE
:100554001DF047C01EF0010E156E16D082B006D0F5
:1005640082AC04D081B802D0020E156E0DD0E3DE49
:10057400256A156A09D01550000AE4E01550010AED
:0A058400EDE01550020AF3E012004A
:10058E007BDE00C044F001C045F002C046F003C05F
:10059E0047F01AD084DE44C02CF045C02DF046C082
:1005AE002EF047C02FF0010E306E17D082B006D05D
:1005BE0082AC04D081B802D0020E306E0ED0B6DE00
:1005CE00256A010E306E09D03050010AE3E030503A
:0C05DE00010AECE03050020AF2E01200CA
:1005EA004DDE00C044F001C045F002C046F003C031
:1005FA0047F057D056DE44C031F045C032F046C00D
:10060A0033F047C034F0010E2B6E54D044C001F0D1
:10061A0045C002F046C003F047C004F03150015E05
:10062A003250025A3350035A3450045A000E045CB2
:10063A0008E1000E035C05E1000E025C02E1640EB3
:10064A00015C0CE339DE44C031F045C032F046C0EB
:10065A0033F047C034F0020E2B6E01D022DE2AD0CE
:10066A0044C001F045C002F046C003F047C004F0A0
:10067A003150015E3250025A3350035A3450045AF0
:10068A00000E045C08E1000E035C05E1000E025C4A
:10069A0002E1640E015C03E32B6A256A01D00CDED9
:1006AA0009D02B50000AA6E02B50010AAFE02B50CC
:0606BA00020AD6E0120066
:1006C000E2DD00C044F001C045F002C046F003C0C6
:1006D00047F056D003DE44C026F045C027F046C0A0
:1006E00028F047C029F0010E2A6E56D044C001F010
:1006F00045C002F046C003F047C004F02650015E3A
:100700002750025A2850035A2950045A000E045CFC
:1007100008E1000E035C05E1000E025C02E1320E0E
:10072000015C0BE37EDE44C026F045C027F046C0E6
:1007300028F047C029F0020E2A6E2ED044C001F0E6
:1007400045C002F046C003F047C004F02650015EE9
:100750002750025A2850035A2950045A000E045CAC
:1007600008E1000E035C05E1000E025C02E1640E8C
:10077000015C02E3030E2A6E0FD0256A2A6A0CD0B0
:100780002A50000AA7E02A50010AB0E02A50020AC3
:0A079000D5E02A50030AF1E0120040
:10079A0054D087DD82AC03D0030E256E28D06EDDDF
:1007AA0000C004F001C005F002C006F003C007F063
:1007BA001650045E1750055A1850065A1950075A0F
:1007CA000750000808E10650000805E10550000836
:1007DA0002E10450C8080BE2010E1A6E4FDD00C098
:1007EA0016F001C017F002C018F003C019F02BD0A0
:1007FA007CDD82AC03D0030E256E1ED03FDD00C027
:10080A0004F001C005F002C006F003C007F016505C
:10081A00045E1750055A1850065A1950075A0750BD
:10082A00000808E10650000805E10550000802E149
:10083A000450C808D8A0256A06D01A50000AA9E0B0
:08084A001A50010AD5E012006A
:1008520019DD00C044F001C045F002C046F003C0FB
:1008620047F061D0C1DD44C03CF045C03DF046C018
:100872003EF047C03FF0010E1F6E5ED081B803D03C
:10088200256A1F6A59D044C001F045C002F046C033
:1008920003F047C004F03C50015E3D50025A3E5006
:1008A200035A3F50045A000E045C08E1000E035C38
:1008B20005E1000E025C02E1640E015C0CE300DD66
:1008C20044C03CF045C03DF046C03EF047C03FF05A
:1008D200020E1F6E01D088DD2FD081B803D0256AA9
:1008E2001F6A2AD044C001F045C002F046C003F09E
:1008F20047C004F03C50015E3D50025A3E50035A3C
:100902003F50045A000E045C08E1000E035C05E14E
:10091200000E025C02E1640E015C03E3256A1F6AB9
:1009220001D0CEDC09D01F50000A9CE01F50010A02
:0A093200A5E01F50020AD1E01200F8
:10093C00395206E0C0DC93DD396A256A246AEBD0B3
:10094C00CCD082B007D082BC05D081B803D0010EC8
:10095C00256E4AD082A007D082BC05D081B803D0C6
:10096C00020E256E41D082B007D082AC05D081B882
:10097C0003D0030E256E38D082A007D082AC05D0F0
:10098C0081B803D0040E256E2FD082B007D082BC64
:10099C0005D081A803D0050E256E26D082A011D0DB
:1009AC0082BC0FD081A80DD0060E256E1A6A65DCAC
:1009BC0000C016F001C017F002C018F003C019F007
:1009CC0013D082B007D082AC05D081A803D0070E1B
:1009DC00256E0AD082A007D082AC05D081A803D0A6
:1009EC00080E256E01D017DD96D0808880B802D015
:1009FC00809A01D0808A80BA02D0809E01D0808EED
:100A0C0080BE02D0809C01D0808C54DE84D0809C2F
:100A1C00808880B802D0809A01D0808A80BA02D0B7
:100A2C00809E01D0808EDBDD76D0809E808880B861
:100A3C0002D0809A01D0808A80BA02D0809C01D0EA
:100A4C00808C75DC68D0809E80BE02D0809C01D0EA
:100A5C00808C808880B802D0809A01D0808A91DD09
:100A6C005AD0809A808880B802D0809E01D0808E27
:100A7C0080BE02D0809C01D0808CE5DE4CD0809A68
:100A8C0080BA02D0809C01D0808C808880B802D043
:100A9C00809E01D0808E7BDE3ED0809A80BA02D0C0
:100AAC00809E01D0808E808880B802D0809C01D03E
:100ABC00808C3ADD30D0809A80BA02D0809E01D0F2
:100ACC00808E80BE02D0809C01D0808C8088ACDC73
:100ADC00256A21D0A0DC256A1ED02550000AD8B486
:100AEC0030D72550010AD8B480D72550020A8FE0A0
:100AFC002550030A9AE02550040AA5E02550050A62
:100B0C00B0E02550060ABBE02550070AC6E0255088
:080B1C00080AD1E0DFD7120046
:080B2400676A6698669A1200E8
:080B2C00BE6ABD98BD9A1200DB
:100B3400030ED56E830ED66EF28AF294F28E1200F4
:0A0B44000F015E6B5D995D9B1200CE
:100B4E000900F5CFE6FF0006FBE10106F9E1120010
:100B5E00000E80B6010E406E416A000E416E036AB1
:100B6E0080B4032A03C000F0000E016E0036013679
:100B7E0000900050402601504122036A80B2032AA1
:100B8E0003C000F0000E016E0036013600900036F4
:100B9E00013600900050402601504122036A80B079
:100BAE00032A030E026E03C000F0000E016E025007
:100BBE0005E0003600900136FF0FFAD700504026B0
:100BCE000150412284D1808880B802D0809A01D011
:100BDE00808A80BA02D0809E01D0808E80BE02D0E4
:100BEE00809C01D0808CDDD1809C808E80BE02D016
:100BFE00809A01D0808A80BA02D0809801D08088F5
:100C0E0081A405D081A203D06EEC01F064D081B432
:100C1E0021D081B21FD061EC01F0020E0B6E040EDA
:100C2E000C6EBA0E0D6E0D2EFED70C2EFCD70B2EA3
:100C3E00FAD7000085EC01F0020E0B6E040E0C6E5E
:100C4E00BA0E0D6E0D2EFED70C2EFCD70B2EFAD72C
:100C5E00000041D081B21FD061EC01F0020E0B6E8C
:100C6E00040E0C6EBA0E0D6E0D2EFED70C2EFCD78A
:100C7E000B2EFAD7000000EC02F0020E0B6E040EE3
:100C8E000C6EBA0E0D6E0D2EFED70C2EFCD70B2E43
:100C9E00FAD7000020D081B41ED061EC01F0020E14
:100CAE000B6E040E0C6EBA0E0D6E0D2EFED70C2EA4
:100CBE00FCD70B2EFAD700007AEC01F0020E0B6E69
:100CCE00040E0C6EBA0E0D6E0D2EFED70C2EFCD72A
:100CDE000B2EFAD7000065D1809E808C80BC02D08E
:100CEE00809A01D0808A80BA02D0809801D0808804
:100CFE001EDE57D1809E80BE02D0809C01D0808C9B
:100D0E0080B802D0809A01D0808A6EEC01F0150E68
:100D1E000B6E4B0E0C6EBE0E0D6E0D2EFED70C2EE8
:100D2E00FCD70B2EFAD7000061EC01F0060E0B6E0D
:100D3E00130E0C6EAD0E0D6E0D2EFED70C2EFCD7B7
:100D4E000B2EFAD7000000002CD1809A808C80BC2C
:100D5E0002D0809E01D0808E80BE02D0809801D0BD
:100D6E0080887AEC01F0030E0B6E8A0E0C6E550E17
:100D7E000D6E0D2EFED70C2EFCD70B2EFAD70000C3
:100D8E00000011EC02F0290E0B6E960E0C6E7F0E0B
:100D9E000D6E0D2EFED70C2EFCD70B2EFAD701D1D1
:100DAE00809C80BC02D0809A01D0808A808E80BECA
:100DBE0002D0809801D080887AEC01F0F2D0809A2F
:100DCE0080BA02D0809E01D0808E808C80BC02D0F2
:100DDE00809801D0808885EC01F0E3D0809C80BCA7
:100DEE0002D0809E01D0808E80BE02D0809A01D02B
:100DFE00808A8088D6D08098808C80BC02D0809AE1
:100E0E0001D0808A80BA02D0809E01D0808EC9D057
:100E1E00809880B802D0809C01D0808C808A80BA65
:100E2E0002D0809E01D0808EBCD0809E80BE02D02B
:100E3E00809801D08088808C80BC02D0809A01D0AE
:100E4E00808AAFD0809880B802D0809E01D0808EEC
:100E5E0080BE02D0809C01D0808C808AA2D0809AE5
:100E6E0080BA02D0809801D08088808C80BC02D05D
:100E7E00809E01D0808E95D0809C80BC02D0809ABE
:100E8E0001D0808A80BA02D0809801D08088808E6E
:100E9E0088D0809E80BE02D0809A01D0808A80BA8F
:100EAE0002D0809801D08088808C7BD0809880B8CA
:100EBE0002D0809A01D0808A80BA02D0809E01D062
:100ECE00808E80BE02D0809C01D0808C6AD0000EB5
:100EDE00411802E1000E4018D8B475D6000E411824
:100EEE0002E1010E4018D8B47FD6000E411802E17F
:100EFE00020E4018D8B4F0D6000E411802E1030ECF
:100F0E004018D8B4F7D6000E411802E1040E40186E
:100F1E00D8B41BD7000E411802E1050E4018D8B404
:100F2E003FD7000E411802E1060E4018D8B447D73D
:100F3E00000E411802E1070E4018D8B44FD7000E2C
:100F4E00411802E1080E4018D8B455D7000E4118CA
:100F5E0002E1090E4018D8B45BD7000E411802E129
:100F6E000A0E4018D8B461D7000E411802E10B0EDC
:100F7E004018D8B467D7000E411802E10C0E401885
:100F8E00D8B46DD7000E411802E10D0E4018D8B43A
:100F9E0073D7000E411802E10E0E4018D8B479D75F
:040FAE0085D71200D1
:0A0FB2000F01586B5799579B12006E
:100FBC006DEC09F0B9DD660ED36E806A816A826AC7
:100FCC000F0E926EDE0E936EF90E946E0F01386B4F
:100FDC00396B3A6BF086F088F19AF198F28EF28CBC
:100FEC00BA90BA92630EBB6E9BDDBA90BA92630E46
:100FFC00BB6E92DDBA90BA92630EBB6E9DDDBA9059
:10100C00BA92630EBB6ECFDF4C6A8DEC00F04C6A6B
:10101C0057EC00F04C6AC3EC00F04C6A00EC01F0A9
:10102C001EEC00F019EC00F013EC00F051EC00F0A9
:10103C0081BE97D0809C808E80BE02D0809A01D0D9
:10104C00808A80BA02D0809801D08088040E0B6E02
:10105C000C0E0C6E330E0D6E0D2EFED70C2EFCD717
:10106C000B2EFAD700000000809E808C80BC02D032
:10107C00809A01D0808A80BA02D0809801D0808872
:10108C00040E0B6E0C0E0C6E330E0D6E0D2EFED769
:10109C000C2EFCD70B2EFAD700000000809A808C07
:1010AC0080BC02D0809E01D0808E80BE02D0809801
:1010BC0001D08088040E0B6E0C0E0C6E330E0D6E70
:1010CC000D2EFED70C2EFCD70B2EFAD700000000ED
:1010DC008098808A80BA02D0809E01D0808E80BE9B
:1010EC0002D0809C01D0808C040E0B6E0C0E0C6E0A
:1010FC00330E0D6E0D2EFED70C2EFCD70B2EFAD701
:10110C0000000000808C80BC02D0809E01D0808EBC
:10111C0080BE02D0809A01D0808A80BA02D080989A
:10112C0001D080880B0E0B6E260E0C6E5D0E0D6EB4
:10113C000D2EFED70C2EFCD70B2EFAD7000000007C
:10114C0011EC02F0030E0B6E8A0E0C6E550E0D6E2A
:10115C000D2EFED70C2EFCD70B2EFAD7000000005C
:10116C0067D781BE9BD011EC02F081BE97D0809CDA
:10117C00808E80BE02D0809A01D0808A80BA02D044
:10118C00809801D08088040E0B6E0C0E0C6E330E02
:10119C000D6E0D2EFED70C2EFCD70B2EFAD70000A1
:1011AC000000809E808C80BC02D0809A01D0808A06
:1011BC0080BA02D0809801D08088040E0B6E0C0E81
:1011CC000C6E330E0D6E0D2EFED70C2EFCD70B2E87
:1011DC00FAD700000000809A808C80BC02D0809EE0
:1011EC0001D0808E80BE02D0809801D08088040E01
:1011FC000B6E0C0E0C6E330E0D6E0D2EFED70C2ED0
:10120C00FCD70B2EFAD7000000008098808A80BA99
:10121C0002D0809E01D0808E80BE02D0809C01D0F6
:10122C00808C040E0B6E0C0E0C6E330E0D6E0D2E90
:10123C00FED70C2EFCD70B2EFAD700000000808CAA
:10124C0080BC02D0809E01D0808E80BE02D0809A5D
:10125C0001D0808A80BA02D0809801D080880B0E91
:10126C000B6E260E0C6E5D0E0D6E0D2EFED70C2E1B
:10127C00FCD70B2EFAD70000000011EC02F0030E85
:10128C000B6E8A0E0C6E550E0D6E0D2EFED70C2E9F
:10129C00FCD70B2EFAD70000000067D75ADC61D7B9
:0212AC00FFD76A
:1012DA0010EE15F02B0E006E010E016EAE0EF66EBC
:0E12EA00120EF76E000EF86EA7EC05F0120063
:0112AE00003F
:0412AF00000000003B
:0112B300003A
:0412B4000000000036
:0112B8000035
:0412B9000000000031
:0112BD000030
:0112BE00002F
:0412BF00000000002B
:0112C300002A
:0112C4000029
:0412C5000000000025
:0112C9000123
:0412CA000000000020
:0412CE00000000001C
:0112D200001B
:0112D300001A
:0112D4000019
:0412D5000000000015
:020000040030CA
:0D00010078183CFFBD81FF0FC00FE00F40DD
:00000001FF
