:0400000097EF08F07E
:10000800F0A005D0F090010E396E010E2F6EF0A20F
:0E00180005D0F092010E386E010E2F6E110011
:0C0026009390BA840C0E0F0157131200C7
:0C0032009298BA840C0E0F0154131200B7
:10003E000B6A0A6A096A00500402F4CF09F0F3CF82
:10004E0008F001500502F4CF0BF0F3CF0AF0005088
:10005E000502F3500926F4500A22E86A0B220150D9
:10006E000402F3500926F4500A22E86A0B2208C053
:10007E0000F009C001F00AC002F00BC003F012003C
:0A008E009494BA840C0EBD12120007
:0A0098009492BA840C0E6612120056
:0C00A200939ABA840C0E0F015D1312003B
:1000AE00BB50010F006E016A000E012251C004F018
:1000BE00000E056EBDDF060E026E00C004F001C01C
:1000CE0005F0025005E005320432059EFF0FFAD707
:1000DE00040E016E04C000F0015004E000360090E2
:1000EE00FF0FFBD7300E0014036E04C000F005C0E6
:1000FE0001F001320032019E01320032019E00C039
:0C010E0067FF0F0E661603506612120009
:10011A00BB50010F006E016A000E012251C004F0AB
:10012A00000E056E87DF060E026E00C004F001C0E5
:10013A0005F0025005E005320432059EFF0FFAD79A
:10014A00040E016E04C000F0015004E00036009075
:10015A00FF0FFBD7300E0014036E04C000F005C079
:10016A0001F001320032019E01320032019E00C0CC
:0C017A00BEFF0F0EBD160350BD12120098
:0C01860083DF87DF8BDF4CDF51DF1200CE
:10019200BB50010F006E016A000E012251C004F033
:1001A200000E056E4BDF060E026E00C004F001C0A9
:1001B20005F0025005E005320432059EFF0FFAD722
:1001C200040E016E04C000F0015004E000360090FD
:1001D200FF0FFBD7300E0014036E04C000F005C001
:1001E20001F001320032019E01320032019E00C054
:0E01F20058FF0F0E0F0157170350571312003E
:10020000BB50010F006E016A000E012251C004F0C4
:10021000000E056E14DF060E026E00C004F001C071
:1002200005F0025005E005320432059EFF0FFAD7B3
:10023000040E016E04C000F0015004E0003600908E
:10024000FF0FFBD7300E0014036E04C000F005C092
:1002500001F001320032019E01320032019E00C0E5
:0E0260005EFF0F0E0F015D1703505D131200BD
:10026E008BDFFF0E516E52DF516A1ADFCD0E516ECB
:08027E00C0DF516A87DF1200A6
:10028600FF0E516E47DFFF0E516E0EDFFF0E516EF1
:0A029600B4DFFF0E516E7ADF120094
:1002A000F29E34C004F035C005F036C006F037C009
:1002B00007F0F28E04C000F005C001F006C002F0A5
:0602C00007C003F012006C
:1002C6005FDF516A27DF516AEFDEC80E516E95DF98
:0602D600516A5CDF12001A
:1002DC00E1DF00C04DF001C04EF002C04FF003C092
:1002EC0050F044D0BEDF4DC029F04EC02AF04FC0B4
:1002FC002BF050C02CF0010E2D6E41D04DC001F0F2
:10030C004EC002F04FC003F050C004F02950015E03
:10031C002A50025A2B50035A2C50045A000E045CDB
:10032C0008E1000E035C05E1000E025C02E1140E14
:10033C00015C0BE396DF4DC029F04EC02AF04FC094
:10034C002BF050C02CF0020E2D6E19D082BC0AD0AE
:10035C0088DF4DC029F04EC02AF04FC02BF050C0A2
:10036C002CF003D08ADF2D6A286A09D02D50000AA0
:10037C00B9E02D50010AC2E02D50020AE7E012004C
:10038C00FCDEE60E516EC3DE516A8BDE516A32DF43
:06039C00516AF9DE1200B7
:1003A200F1DEC80E516EB8DE516A80DE8C0E516EDF
:0803B20026DF516AEDDE1200A6
:1003BA00516AAEDE516A76DE516A1DDF516AE4DEA9
:0203CA0012001F
:1003CC00DCDEB40E516EA3DE516A6BDE516A12DFB5
:0603DC00516AD9DE120097
:1003E2005EDF00C049F001C04AF002C04BF003C01A
:1003F2004CF056D0D5DF49C01FF04AC020F04BC0A8
:1004020021F04CC022F0010E1A6E56D049C001F004
:100412004AC002F04BC003F04CC004F01F50015E12
:100422002050025A2150035A2250045A000E045CF2
:1004320008E1000E035C05E1000E025C02E1320EEF
:10044200015C0BE3B9DF49C01FF04AC020F04BC08A
:1004520021F04CC022F0020E1A6E2ED049C001F0DB
:100462004AC002F04BC003F04CC004F01F50015EC2
:100472002050025A2150035A2250045A000E045CA2
:1004820008E1000E035C05E1000E025C02E1640E6D
:10049200015C02E3030E1A6E0FD0286A1A6A0CD0AE
:1004A2001A50000AA7E01A50010AB0E01A50020AD4
:0A04B200D5E01A50030AF1E0120031
:1004BC00F1DE00C049F001C04AF002C04BF003C0AD
:1004CC004CF01AD0FADE49C015F04AC016F04BC0F9
:1004DC0017F04CC018F0010E196E17D082B006D070
:1004EC0082AC04D081B802D0020E196E0ED0F0DEB0
:1004FC00286A010E196E09D01950010AE3E019504F
:0C050C00010AECE01950020AF2E01200B3
:10051800C3DE00C049F001C04AF002C04BF003C07E
:100528004CF061D02FDF49C030F04AC031F04BC0E9
:1005380032F04CC033F0010E406E5ED081B803D06B
:10054800286A406A59D049C001F04AC002F04BC03D
:1005580003F04CC004F03050015E3150025A325062
:10056800035A3350045A000E045C08E1000E035C81
:1005780005E1000E025C02E1640E015C0CE37FDE23
:1005880049C030F04AC031F04BC032F04CC033F0B3
:10059800020E406E01D0F6DE2FD081B803D0286A53
:1005A800406A2AD049C001F04AC002F04BC003F0AB
:1005B8004CC004F03050015E3150025A3250035A98
:1005C8003350045A000E045C08E1000E035C05E198
:1005D800000E025C02E1640E015C03E3286A406AD3
:1005E80001D04DDE09D04050000A9CE04050010A7D
:0A05F800A5E04050020AD1E0120015
:080602009482F00E661612004E
:10060A0081B41BD081B219D0808880B802D0809C76
:10061A0001D0808C809E80BE02D0809A01D0808AD0
:10062A002DDE39DE00C01BF001C01CF002C01DF037
:10063A0003C01EF0010E2E6E35D081B219D0809AF9
:10064A00808E80BE02D0809801D0808880B802D087
:10065A00809C01D0808C12DE1EDE00C01BF001C01F
:10066A001CF002C01DF003C01EF0040E2E6E1AD03C
:10067A0081B418D0809C808E80BE02D0809A01D02E
:10068A00808A80BA02D0809801D08088F7DD03DEA4
:10069A0000C01BF001C01CF002C01DF003C01EF018
:0606AA00060E2E6E120088
:0A06B0009380F00E0F01571712009F
:0806BA009484F00EBD1612003D
:0A06C2009288F00E0F015417120089
:1006CC00E9DD00C049F001C04AF002C04BF003C0A4
:1006DC004CF019D075DE49C041F04AC042F04BC015
:1006EC0043F04CC044F0010E3F6E16D082B006D0E1
:1006FC0082AC04D081B802D0020E3F6E0DD0E8DD82
:10070C00286A3F6A09D03F50000AE4E03F50010AD2
:0A071C00EDE03F50020AF3E0120086
:10072600BCDD00C049F001C04AF002C04BF003C076
:100736004CF057D0C5DD49C023F04AC024F04BC069
:1007460025F04CC026F0010E276E54D049C001F0AA
:100756004AC002F04BC003F04CC004F02350015EC7
:100766002450025A2550035A2650045A000E045C9F
:1007760008E1000E035C05E1000E025C02E1640E76
:10078600015C0CE37DDD49C023F04AC024F04BC078
:1007960025F04CC026F0020E276E01D091DD2AD03E
:1007A60049C001F04AC002F04BC003F04CC004F04F
:1007B6002350015E2450025A2550035A2650045AEB
:1007C600000E045C08E1000E035C05E1000E025C0D
:1007D60002E1640E015C03E3276A286A01D050DD5A
:1007E60009D02750000AA6E02750010AAFE027509B
:0607F600020AD6E0120029
:0A07FC00938AF00E0F015D17120042
:1008060054D05EDD82AC03D0030E286E28D045DDC1
:1008160000C004F001C005F002C006F003C007F0F6
:100826003A50045E3B50055A3C50065A3D50075A12
:100836000750000808E10650000805E105500008C9
:1008460002E10450C8080BE2010E3E6E26DD00C030
:100856003AF001C03BF002C03CF003C03DF02BD0A3
:10086600B2DD82AC03D0030E286E1ED016DD00C0AA
:1008760004F001C005F002C006F003C007F03A50CC
:10088600045E3B50055A3C50065A3D50075A0750E5
:10089600000808E10650000805E10550000802E1DD
:1008A6000450C808D8A0286A06D03E50000AA9E01D
:0808B6003E50010AD5E01200DA
:1008BE0063DC516A2BDC516A57EC00F0516A99DC0B
:0808CE00C80E516E5FDC120040
:0C08D600F1DE94DE90DFE9DEF1DE1200BE
:1008E20051DCC80E516E18DC516A57EC00F0516AA7
:0808F20086DC516A4DDC1200A6
:1008FA002F5206E0C3DC84DE2F6A286A2D6AEBD009
:10090A00CCD082B007D082BC05D081B803D0010E0A
:10091A00286E4AD082A007D082BC05D081B803D005
:10092A00020E286E41D082B007D082AC05D081B8C1
:10093A0003D0030E286E38D082A007D082AC05D02F
:10094A0081B803D0040E286E2FD082B007D082BCA3
:10095A0005D081A803D0050E286E26D082A011D01A
:10096A0082BC0FD081A80DD0060E286E3E6A93DC99
:10097A0000C03AF001C03BF002C03CF003C03DF0B9
:10098A0013D082B007D082AC05D081A803D0070E5D
:10099A00286E0AD082A007D082AC05D081A803D0E5
:1009AA00080E286E01D004DD96D0808880B802D067
:1009BA00809A01D0808A80BA02D0809E01D0808E2F
:1009CA0080BE02D0809C01D0808C06DD84D0809CC1
:1009DA00808880B802D0809A01D0808A80BA02D0FA
:1009EA00809E01D0808E9ADE76D0809E808880B8E4
:1009FA0002D0809A01D0808A80BA02D0809C01D02D
:100A0A00808C67DC68D0809E80BE02D0809C01D03A
:100A1A00808C808880B802D0809A01D0808A49DD93
:100A2A005AD0809A808880B802D0809E01D0808E69
:100A3A0080BE02D0809C01D0808C69DD4CD0809A27
:100A4A0080BA02D0809C01D0808C808880B802D085
:100A5A00809E01D0808ED2DE3ED0809A80BA02D0AB
:100A6A00809E01D0808E808880B802D0809C01D080
:100A7A00808C27DE30D0809A80BA02D0809E01D046
:100A8A00808E80BE02D0809C01D0808C808821DC40
:100A9A0022D08EDC286A2D6A1ED02850000AD8B4CB
:100AAA0030D72850010AD8B480D72850020A8FE0DC
:100ABA002850030A9AE02850040AA5E02850050A9B
:100ACA00B0E02850060ABBE02850070AC6E02850C2
:080ADA00080AD1E0DED712008A
:100AE200C3EC00F0516A8DEC00F0516A57EC00F053
:100AF200B40E516E00EC01F0516AC9EC00F0120024
:080B0200676A6698669A12000A
:0A0B0A000F015E6B5D995D9B120008
:100B1400030ED56E830ED66EF28AF294F28E120014
:080B2400BE6ABD98BD9A1200E3
:100B2C00000E80B6010E456E466A000E466E036AD4
:100B3C0080B4032A03C000F0000E016E00360136AB
:100B4C0000900050452601504622036A80B2032AC9
:100B5C0003C000F0000E016E003601360090003626
:100B6C00013600900050452601504622036A80B0A1
:100B7C00032A030E026E03C000F0000E016E025039
:100B8C0005E0003600900136FF0FFAD700504526DD
:100B9C0001504622BDD1808880B802D0809A01D005
:100BAC00808A80BA02D0809E01D0808E80BE02D016
:100BBC00809C01D0808C16D2809C808E80BE02D00E
:100BCC00809A01D0808A80BA02D0809801D0808827
:100BDC0081A415D081A213D0808E80BE02D0809AC1
:100BEC0001D0808A80BA02D0809801D0808880B8E9
:100BFC0002D0809C01D0808CD1EC01F08DD081B4DE
:100C0C003CD081B23AD0808880B802D0809C01D090
:100C1C00808C809E80BE02D0809A01D0808A43EC6A
:100C2C0001F0020E0B6E040E0C6EBA0E0D6E0D2E34
:100C3C00FED70C2EFCD70B2EFAD700003ADE040E92
:100C4C000B6E0C0E0C6E330E0D6E0D2EFED70C2E85
:100C5C00FCD70B2EFAD70000000043EC01F0020E7B
:100C6C000B6E040E0C6EBA0E0D6E0D2EFED70C2EE6
:100C7C00FCD70B2EFAD700004FD081B229D0809A26
:100C8C00808E80BE02D0809801D0808880B802D03F
:100C9C00809C01D0808C19DE020E0B6E040E0C6E43
:100CAC00BA0E0D6E0D2EFED70C2EFCD70B2EFAD7CE
:100CBC00000011DF020E0B6E040E0C6EBA0E0D6EE0
:100CCC000D2EFED70C2EFCD70B2EFAD7000024D0FD
:100CDC0081B422D0809C808E80BE02D0809A01D0BC
:100CEC00808A80BA02D0809801D08088EEDD820E96
:100CFC000C6EDD0E0D6E0D2EFED70C2EFCD70000EB
:100D0C000000E9DD340E0C6EF10E0D6E0D2EFED7CB
:100D1C000C2EFCD70000000065D1809E808C80BC1E
:100D2C0002D0809A01D0808A80BA02D0809801D0FB
:100D3C008088DDDD57D1809E80BE02D0809C01D0A2
:100D4C00808C80B802D0809A01D0808AD1EC01F0DE
:100D5C00150E0B6E4B0E0C6EBE0E0D6E0D2EFED7C1
:100D6C000C2EFCD70B2EFAD7000043EC01F0060E2C
:100D7C000B6E130E0C6EAD0E0D6E0D2EFED70C2ED3
:100D8C00FCD70B2EFAD7000000002CD1809A808C57
:100D9C0080BC02D0809E01D0808E80BE02D0809814
:100DAC0001D0808886DD040E0B6E0C0E0C6E330E9B
:100DBC000D6E0D2EFED70C2EFCD70B2EFAD7000085
:100DCC00000043EC01F0080E0B6E9D0E0C6E050E30
:100DDC000D6E0D2EFED70C2EFCD70B2EFAD7000065
:100DEC00000000D1809C80BC02D0809A01D0808A07
:100DFC00808E80BE02D0809801D08088E6EC01F015
:100E0C00F1D0809A80BA02D0809E01D0808E808CE6
:100E1C0080BC02D0809801D080884BDDE3D0809CD0
:100E2C0080BC02D0809E01D0808E80BE02D0809A81
:100E3C0001D0808A8088D6D08098808C80BC02D0EB
:100E4C00809A01D0808A80BA02D0809E01D0808E98
:100E5C00C9D0809880B802D0809C01D0808C808AC8
:100E6C0080BA02D0809E01D0808EBCD0809E80BE85
:100E7C0002D0809801D08088808C80BC02D0809A6F
:100E8C0001D0808AAFD0809880B802D0809E01D0EB
:100E9C00808E80BE02D0809C01D0808C808AA2D0B3
:100EAC00809A80BA02D0809801D08088808C80BCD7
:100EBC0002D0809E01D0808E95D0809C80BC02D0C8
:100ECC00809A01D0808A80BA02D0809801D0808824
:100EDC00808E88D0809E80BE02D0809A01D0808A7D
:100EEC0080BA02D0809801D08088808C7BD080988A
:100EFC0080B802D0809A01D0808A80BA02D0809EBD
:100F0C0001D0808E80BE02D0809C01D0808C6AD0B3
:100F1C00000E461802E1000E4518D8B43CD6000E5F
:100F2C00461802E1010E4518D8B446D6000E4618F4
:100F3C0002E1020E4518D8B4F0D6000E461802E1B4
:100F4C00030E4518D8B4F7D6000E461802E1040E6D
:100F5C004518D8B41BD7000E461802E1050E4518EB
:100F6C00D8B440D7000E461802E1060E4518D8B486
:100F7C0048D7000E461802E1070E4518D8B44FD7D3
:100F8C00000E461802E1080E4518D8B455D7000ECD
:100F9C00461802E1090E4518D8B45BD7000E461866
:100FAC0002E10A0E4518D8B461D7000E461802E1CA
:100FBC000B0E4518D8B467D7000E461802E10C0E7C
:100FCC004518D8B46DD7000E461802E10D0E451821
:100FDC00D8B473D7000E461802E10E0E4518D8B4DB
:060FEC0079D785D7120041
:100FF2000900F5CFE6FF0006FBE10106F9E1120068
:0A1002000F01586B5799579B12001D
:10100C0081BE8ED0809C808E80BE02D0809A01D012
:10101C00808A80BA02D0809801D08088020E0B6E34
:10102C00040E0C6EBA0E0D6E0D2EFED70C2EFCD7C8
:10103C000B2EFAD70000809E808C80BC02D0809A48
:10104C0001D0808A80BA02D0809801D08088020EAC
:10105C000B6E040E0C6EBA0E0D6E0D2EFED70C2EF2
:10106C00FCD70B2EFAD70000809A808C80BC02D063
:10107C00809E01D0808E80BE02D0809801D0808866
:10108C00020E0B6E040E0C6EBA0E0D6E0D2EFED7EC
:10109C000C2EFCD70B2EFAD700008098808A80BAD1
:1010AC0002D0809E01D0808E80BE02D0809C01D068
:1010BC00808C020E0B6E040E0C6EBA0E0D6E0D2E85
:1010CC00FED70C2EFCD70B2EFAD70000808C80BCE0
:1010DC0002D0809E01D0808E80BE02D0809A01D03A
:1010EC00808A80BA02D0809801D08088820E0C6EE3
:1010FC00DD0E0D6E0D2EFED70C2EFCD70000000061
:10110C00DDEC01F0020E0B6E040E0C6EBA0E0D6EC1
:10111C000D2EFED70C2EFCD70B2EFAD7000070D755
:02112C001200AF
:10112E00F6EC08F0F0DC660ED36E806A816A826A95
:10113E000F0E926EDE0E936EF90E946E0F01386BDB
:10114E00396B3A6BF086F088F19AF198F28EF28C48
:10115E00BA90BA92630EBB6EDEDCBA90BA92630E90
:10116E00BB6EC8DCBA90BA92630EBB6EC7DCBA9087
:10117E00BA92630EBB6E3EDF516A8DEC00F0516A7F
:10118E0057EC00F0516A00EC01F0516AC9EC00F026
:10119E0047EC00F04CEC00F051EC00F013EC00F0DA
:0E11AE0081BE02D02CDF01D0BADCFAD7FFD709
:1011EC0010EE15F0300E006E010E016EBC0EF66E98
:0E11FC00110EF76E000EF86EF9EC07F01200FF
:0411BC00000000002F
:0111C000012D
:0111C100002D
:0411C2000000000029
:0411C6000000000025
:0411CA000000000021
:0111CE000020
:0111CF00001F
:0411D000000000001B
:0111D400001A
:0111D5000811
:0111D6000018
:0411D7000000000014
:0411DB000000000010
:0111DF00000F
:0111E000000E
:0411E100000000000A
:0111E5000009
:0111E6000008
:0111E7000007
:0411E8000000000003
:020000040030CA
:0D00010078183CFFBD81FF0FC00FE00F40DD
:00000001FF
