:04000000C3EF07F053
:10000800F0A005D0F090010E3A6E010E396EF0A204
:0E00180005D0F092010E3B6E010E396E110004
:0A0026009492BA840C0E66121200C8
:0A0030009494BA840C0EBD12120065
:0C003A009390BA840C0E0F0157131200B3
:0C0046009298BA840C0E0F0154131200A3
:0C005200939ABA840C0E0F015D1312008B
:10005E000B6A0A6A096A00500402F4CF09F0F3CF62
:10006E0008F001500502F4CF0BF0F3CF0AF0005068
:10007E000502F3500926F4500A22E86A0B220150B9
:10008E000402F3500926F4500A22E86A0B2208C033
:10009E0000F009C001F00AC002F00BC003F012001C
:0C00AE00C0DFBADFCFDFC2DFC7DF120007
:1000BA00BB50010F006E016A000E01224CC004F011
:1000CA00000E056EC7DF060E026E00C004F001C006
:1000DA0005F0025005E005320432059EFF0FFAD7FB
:1000EA00040E016E04C000F0015004E000360090D6
:1000FA00FF0FFBD7300E0014036E04C000F005C0DA
:10010A0001F001320032019E01320032019E00C02C
:0C011A0067FF0F0E6616035066121200FD
:10012600BB50010F006E016A000E01224CC004F0A4
:10013600000E056E91DF060E026E00C004F001C0CF
:1001460005F0025005E005320432059EFF0FFAD78E
:10015600040E016E04C000F0015004E00036009069
:10016600FF0FFBD7300E0014036E04C000F005C06D
:1001760001F001320032019E01320032019E00C0C0
:0C018600BEFF0F0EBD160350BD1212008C
:10019200BB50010F006E016A000E01224CC004F038
:1001A200000E056E5BDF060E026E00C004F001C099
:1001B20005F0025005E005320432059EFF0FFAD722
:1001C200040E016E04C000F0015004E000360090FD
:1001D200FF0FFBD7300E0014036E04C000F005C001
:1001E20001F001320032019E01320032019E00C054
:0E01F20058FF0F0E0F0157170350571312003E
:10020000BB50010F006E016A000E01224CC004F0C9
:10021000000E056E24DF060E026E00C004F001C061
:1002200005F0025005E005320432059EFF0FFAD7B3
:10023000040E016E04C000F0015004E0003600908E
:10024000FF0FFBD7300E0014036E04C000F005C092
:1002500001F001320032019E01320032019E00C0E5
:0E0260005EFF0F0E0F015D1703505D131200BD
:10026E00FF0E4C6E59DFFF0E4C6E20DFFF0E4C6EF4
:0A027E00C0DFFF0E4C6E86DF120099
:1002880012DF4C6A4CDF4C6A14DFC80E4C6EB4DFC8
:060298004C6A7BDF12003E
:10029E00F29E35C004F036C005F037C006F038C007
:1002AE0007F0F28E04C000F005C001F006C002F0A7
:0602BE0007C003F012006E
:1002C400F4DEFF0E4C6E2DDF4C6AF5DECD0E4C6E67
:0802D40095DF4C6A5CDF1200AB
:1002DC00E8DEC80E4C6E21DF4C6AE9DE8C0E4C6EEB
:0802EC0089DF4C6A50DF1200AB
:1002F4004C6A17DF4C6ADFDE4C6A80DF4C6A47DFEA
:020304001200E5
:10030600D3DEAA0E4C6E0CDF4C6AD4DE4C6A75DF67
:060316004C6A3CDF1200FE
:10031C00C8DE4C6A02DF4C6ACADE4C6A6BDFB40E74
:10032C004C6E31DF030E0B6E080E0C6E770E0D6EDD
:10033C000D2EFED70C2EFCD70B2EFAD792DF120007
:10034C009DDF030E0B6E8A0E0C6E550E0D6E0D2E70
:10035C00FED70C2EFCD70B2EFAD70000000081DF45
:02036C0012007D
:10036E009FDEE60E4C6ED8DE4C6AA0DE4C6A41DF94
:06037E004C6A08DF1200CA
:100384008CDF00C048F001C049F002C04AF003C04D
:100394004BF044D095DF48C03CF049C03DF04AC022
:1003A4003EF04BC03FF0010E1F6E41D048C001F03B
:1003B40049C002F04AC003F04BC004F03C50015E57
:1003C4003D50025A3E50035A3F50045A000E045CFA
:1003D40008E1000E035C05E1000E025C02E1140E6C
:1003E400015C0BE36DDF48C03CF049C03DF04AC0FE
:1003F4003EF04BC03FF0020E1F6E19D082BC0AD0F3
:100404005FDF48C03CF049C03DF04AC03EF04BC0FD
:100414003FF003D02ADF1F6A256A09D01F50000A63
:10042400B9E01F50010AC2E01F50020AE7E01200BF
:1004340034DF00C044F001C045F002C046F003C000
:1004440047F019D05EDF44C016F045C017F046C02F
:1004540018F047C019F0010E1A6E16D082B006D0FB
:1004640082AC04D081B802D0020E1A6E0DD088DF9F
:10047400256A1A6A09D01A50000AE4E01A50010ADF
:0A048400EDE01A50020AF3E0120046
:10048E0081A404D081A202D022DF5ED081B41FD01D
:10049E0081B21DD0E5DE020E0B6E040E0C6EBA0E8E
:1004AE000D6E0D2EFED70C2EFCD70B2EFAD700009C
:1004BE002EDF020E0B6E040E0C6EBA0E0D6E0D2E8E
:1004CE00FED70C2EFCD70B2EFAD700003DD081B2F2
:1004DE001DD0C6DE020E0B6E040E0C6EBA0E0D6E25
:1004EE000D2EFED70C2EFCD70B2EFAD7000027DFD1
:1004FE00020E0B6E040E0C6EBA0E0D6E0D2EFED786
:10050E000C2EFCD70B2EFAD700001ED081B41CD0B7
:10051E00A7DE020E0B6E040E0C6EBA0E0D6E0D2EB5
:10052E00FED70C2EFCD70B2EFAD70000E5DE020EFE
:10053E000B6E040E0C6EBA0E0D6E0D2EFED70C2E1B
:0A054E00FCD70B2EFAD700001200B4
:1005580054D096DE82AC03D0030E256E28D09BDEE5
:1005680000C004F001C005F002C006F003C007F0A7
:100578002C50045E2D50055A2E50065A2F50075AFB
:100588000750000808E10650000805E1055000087A
:1005980002E10450C8080BE2010E306E7CDE00C098
:1005A8002CF001C02DF002C02EF003C02FF02BD08C
:1005B800A6DE82AC03D0030E256E1ED06CDE00C012
:1005C80004F001C005F002C006F003C007F02C508B
:1005D800045E2D50055A2E50065A2F50075A0750C0
:1005E800000808E10650000805E10550000802E18E
:1005F8000450C808D8A0256A06D03050000AA9E0DF
:080608003050010AD5E0120098
:1006100046DE00C044F001C045F002C046F003C011
:1006200047F057D031DE44C031F045C032F046C00B
:1006300033F047C034F0010E2B6E54D044C001F0AB
:1006400045C002F046C003F047C004F03150015EDF
:100650003250025A3350035A3450045A000E045C8C
:1006600008E1000E035C05E1000E025C02E1640E8D
:10067000015C0CE3FCDD44C031F045C032F046C003
:1006800033F047C034F0020E2B6E01D0FDDD2AD0CE
:1006900044C001F045C002F046C003F047C004F07A
:1006A0003150015E3250025A3350035A3450045ACA
:1006B000000E045C08E1000E035C05E1000E025C24
:1006C00002E1640E015C03E32B6A256A01D0CFDDF1
:1006D00009D02B50000AA6E02B50010AAFE02B50A6
:0606E000020AD6E0120040
:1006E600DBDD00C044F001C045F002C046F003C0A7
:1006F60047F056D0F0DD44C026F045C027F046C08E
:1007060028F047C029F0010E2A6E56D044C001F0E9
:1007160045C002F046C003F047C004F02650015E13
:100726002750025A2850035A2950045A000E045CD6
:1007360008E1000E035C05E1000E025C02E1320EE8
:10074600015C0BE3D4DD44C026F045C027F046C06B
:1007560028F047C029F0020E2A6E2ED044C001F0C0
:1007660045C002F046C003F047C004F02650015EC3
:100776002750025A2850035A2950045A000E045C86
:1007860008E1000E035C05E1000E025C02E1640E66
:10079600015C02E3030E2A6E0FD0256A2A6A0CD08A
:1007A6002A50000AA7E02A50010AB0E02A50020A9D
:0A07B600D5E02A50030AF1E012001A
:1007C0006EDD00C044F001C045F002C046F003C039
:1007D00047F01AD059DD44C020F045C021F046C092
:1007E00022F047C023F0010E246E17D082B006D04D
:1007F00082AC04D081B802D0020E246E0ED0C2DDCD
:10080000256A010E246E09D02450010AE3E0245029
:0C081000010AECE02450020AF2E01200A1
:10081C0040DD00C044F001C045F002C046F003C00A
:10082C0047F061D09EDD44C01BF045C01CF046C0B3
:10083C001DF047C01EF0010E156E5ED081B803D0BE
:10084C00256A156A59D044C001F045C002F046C073
:10085C0003F047C004F01B50015E1C50025A1D509F
:10086C00035A1E50045A000E045C08E1000E035C8F
:10087C0005E1000E025C02E1640E015C0CE3F1DCAC
:10088C0044C01BF045C01CF046C01DF047C01EF014
:10089C00020E156E01D065DD2FD081B803D0256A0C
:1008AC00156A2AD044C001F045C002F046C003F0DE
:1008BC0047C004F01B50015E1C50025A1D50035AD5
:1008CC001E50045A000E045C08E1000E035C05E1A6
:1008DC00000E025C02E1640E015C03E3256A156AFA
:1008EC0001D0BFDC09D01550000A9CE01550010A5C
:0A08FC00A5E01550020AD1E0120039
:10090600395206E0B1DCC0DD396A256A1F6AEBD0D0
:10091600CCD082B007D082BC05D081B803D0010EFE
:10092600256E4AD082A007D082BC05D081B803D0FC
:10093600020E256E41D082B007D082AC05D081B8B8
:1009460003D0030E256E38D082A007D082AC05D026
:1009560081B803D0040E256E2FD082B007D082BC9A
:1009660005D081A803D0050E256E26D082A011D011
:1009760082BC0FD081A80DD0060E256E306A8CDCA5
:1009860000C02CF001C02DF002C02EF003C02FF0E5
:1009960013D082B007D082AC05D081A803D0070E51
:1009A600256E0AD082A007D082AC05D081A803D0DC
:1009B600080E256E01D09BDC96D0808880B802D0C8
:1009C600809A01D0808A80BA02D0809E01D0808E23
:1009D60080BE02D0809C01D0808C82DE84D0809C38
:1009E600808880B802D0809A01D0808A80BA02D0EE
:1009F600809E01D0808E09DE76D0809E808880B869
:100A060002D0809A01D0808A80BA02D0809C01D020
:100A1600808CB5DC68D0809E80BE02D0809C01D0E0
:100A2600808C808880B802D0809A01D0808AC5DE0A
:100A36005AD0809A808880B802D0809E01D0808E5D
:100A460080BE02D0809C01D0808CE5DE4CD0809A9E
:100A560080BA02D0809C01D0808C808880B802D079
:100A6600809E01D0808E75DD3ED0809A80BA02D0FD
:100A7600809E01D0808E808880B802D0809C01D074
:100A8600808CD5DC30D0809A80BA02D0809E01D08E
:100A9600808E80BE02D0809C01D0808C80886FDCE6
:100AA60022D025DC256A1F6A1ED02550000AD8B43C
:100AB60030D72550010AD8B480D72550020A8FE0D6
:100AC6002550030A9AE02550040AA5E02550050A98
:100AD600B0E02550060ABBE02550070AC6E02550BF
:080AE600080AD1E0DED712007E
:080AEE00676A6698669A12001F
:080AF600BE6ABD98BD9A120012
:100AFE00030ED56E830ED66EF28AF294F28E12002B
:0A0B0E000F015E6B5D995D9B120004
:100B18000900F5CFE6FF0006FBE10106F9E1120046
:100B2800000E80B6010E406E416A000E416E036AE7
:100B380080B4032A03C000F0000E016E00360136AF
:100B480000900050402601504122036A80B2032AD7
:100B580003C000F0000E016E00360136009000362A
:100B6800013600900050402601504122036A80B0AF
:100B7800032A030E026E03C000F0000E016E02503D
:100B880005E0003600900136FF0FFAD700504026E6
:100B98000150412284D1808880B802D0809A01D047
:100BA800808A80BA02D0809E01D0808E80BE02D01A
:100BB800809C01D0808CDDD1809C808E80BE02D04C
:100BC800809A01D0808A80BA02D0809801D080882B
:100BD80081A405D081A203D06EEC01F064D081B469
:100BE80021D081B21FD037EC01F0020E0B6E040E3B
:100BF8000C6EBA0E0D6E0D2EFED70C2EFCD70B2EDA
:100C0800FAD700008EEC01F0020E0B6E040E0C6E8B
:100C1800BA0E0D6E0D2EFED70C2EFCD70B2EFAD762
:100C2800000041D081B21FD037EC01F0020E0B6EEC
:100C3800040E0C6EBA0E0D6E0D2EFED70C2EFCD7C0
:100C48000B2EFAD70000A6EC01F0020E0B6E040E74
:100C58000C6EBA0E0D6E0D2EFED70C2EFCD70B2E79
:100C6800FAD7000020D081B41ED037EC01F0020E74
:100C78000B6E040E0C6EBA0E0D6E0D2EFED70C2EDA
:100C8800FCD70B2EFAD7000083EC01F0020E0B6E96
:100C9800040E0C6EBA0E0D6E0D2EFED70C2EFCD760
:100CA8000B2EFAD7000065D1809E808C80BC02D0C4
:100CB800809A01D0808A80BA02D0809801D080883A
:100CC8001EDE57D1809E80BE02D0809C01D0808CD1
:100CD80080B802D0809A01D0808A6EEC01F0150E9F
:100CE8000B6E4B0E0C6EBE0E0D6E0D2EFED70C2E1F
:100CF800FCD70B2EFAD7000037EC01F0060E0B6E6E
:100D0800130E0C6EAD0E0D6E0D2EFED70C2EFCD7ED
:100D18000B2EFAD7000000002CD1809A808C80BC62
:100D280002D0809E01D0808E80BE02D0809801D0F3
:100D3800808883EC01F0030E0B6E8A0E0C6E550E44
:100D48000D6E0D2EFED70C2EFCD70B2EFAD70000F9
:100D580000007AEC01F0290E0B6E960E0C6E7F0ED9
:100D68000D6E0D2EFED70C2EFCD70B2EFAD701D107
:100D7800809C80BC02D0809A01D0808A808E80BE00
:100D880002D0809801D0808883EC01F0F2D0809A5C
:100D980080BA02D0809E01D0808E808C80BC02D028
:100DA800809801D080888EEC01F0E3D0809C80BCD4
:100DB80002D0809E01D0808E80BE02D0809A01D061
:100DC800808A8088D6D08098808C80BC02D0809A17
:100DD80001D0808A80BA02D0809E01D0808EC9D08E
:100DE800809880B802D0809C01D0808C808A80BA9C
:100DF80002D0809E01D0808EBCD0809E80BE02D062
:100E0800809801D08088808C80BC02D0809A01D0E4
:100E1800808AAFD0809880B802D0809E01D0808E22
:100E280080BE02D0809C01D0808C808AA2D0809A1B
:100E380080BA02D0809801D08088808C80BC02D093
:100E4800809E01D0808E95D0809C80BC02D0809AF4
:100E580001D0808A80BA02D0809801D08088808EA4
:100E680088D0809E80BE02D0809A01D0808A80BAC5
:100E780002D0809801D08088808C7BD0809880B800
:100E880002D0809A01D0808A80BA02D0809E01D098
:100E9800808E80BE02D0809C01D0808C6AD0000EEB
:100EA800411802E1000E4018D8B475D6000E41185A
:100EB80002E1010E4018D8B47FD6000E411802E1B5
:100EC800020E4018D8B4F0D6000E411802E1030E05
:100ED8004018D8B4F7D6000E411802E1040E4018A5
:100EE800D8B41BD7000E411802E1050E4018D8B43B
:100EF8003FD7000E411802E1060E4018D8B447D774
:100F0800000E411802E1070E4018D8B44FD7000E62
:100F1800411802E1080E4018D8B455D7000E411800
:100F280002E1090E4018D8B45BD7000E411802E15F
:100F38000A0E4018D8B461D7000E411802E10B0E12
:100F48004018D8B467D7000E411802E10C0E4018BB
:100F5800D8B46DD7000E411802E10D0E4018D8B470
:100F680073D7000E411802E10E0E4018D8B479D795
:040F780085D7120007
:0A0F7C000F01586B5799579B1200A4
:100F860052EC09F0B9DD660ED36E806A816A826A18
:100F96000F0E926EDE0E936EF90E946E0F01386B85
:100FA600396B3A6BF086F088F19AF198F28EF28CF2
:100FB600BA90BA92630EBB6E9BDDBA90BA92630E7C
:100FC600BB6E92DDBA90BA92630EBB6E9DDDBA908F
:100FD600BA92630EBB6ECFDF4C6A93EC00F04C6A9C
:100FE6005DEC00F04C6A00EC01F04C6AC9EC00F0D4
:100FF60018EC00F013EC00F029EC00F01DEC00F00A
:1010060081BE97D0809C808E80BE02D0809A01D00F
:10101600808A80BA02D0809801D08088040E0B6E38
:101026000C0E0C6E330E0D6E0D2EFED70C2EFCD74D
:101036000B2EFAD700000000809E808C80BC02D068
:10104600809A01D0808A80BA02D0809801D08088A8
:10105600040E0B6E0C0E0C6E330E0D6E0D2EFED79F
:101066000C2EFCD70B2EFAD700000000809A808C3D
:1010760080BC02D0809E01D0808E80BE02D0809837
:1010860001D08088040E0B6E0C0E0C6E330E0D6EA6
:101096000D2EFED70C2EFCD70B2EFAD70000000023
:1010A6008098808A80BA02D0809E01D0808E80BED1
:1010B60002D0809C01D0808C040E0B6E0C0E0C6E40
:1010C600330E0D6E0D2EFED70C2EFCD70B2EFAD737
:1010D60000000000808C80BC02D0809E01D0808EF3
:1010E60080BE02D0809A01D0808A80BA02D08098D1
:1010F60001D080880B0E0B6E260E0C6E5D0E0D6EEB
:101106000D2EFED70C2EFCD70B2EFAD700000000B2
:101116007AEC01F0030E0B6E8A0E0C6E550E0D6EF8
:101126000D2EFED70C2EFCD70B2EFAD70000000092
:1011360067D781BE9BD07AEC01F081BE97D0809CA8
:10114600808E80BE02D0809A01D0808A80BA02D07A
:10115600809801D08088040E0B6E0C0E0C6E330E38
:101166000D6E0D2EFED70C2EFCD70B2EFAD70000D7
:101176000000809E808C80BC02D0809A01D0808A3C
:1011860080BA02D0809801D08088040E0B6E0C0EB7
:101196000C6E330E0D6E0D2EFED70C2EFCD70B2EBD
:1011A600FAD700000000809A808C80BC02D0809E16
:1011B60001D0808E80BE02D0809801D08088040E37
:1011C6000B6E0C0E0C6E330E0D6E0D2EFED70C2E06
:1011D600FCD70B2EFAD7000000008098808A80BAD0
:1011E60002D0809E01D0808E80BE02D0809C01D02D
:1011F600808C040E0B6E0C0E0C6E330E0D6E0D2EC7
:10120600FED70C2EFCD70B2EFAD700000000808CE0
:1012160080BC02D0809E01D0808E80BE02D0809A93
:1012260001D0808A80BA02D0809801D080880B0EC7
:101236000B6E260E0C6E5D0E0D6E0D2EFED70C2E51
:10124600FCD70B2EFAD7000000007AEC01F0030E53
:101256000B6E8A0E0C6E550E0D6E0D2EFED70C2ED5
:10126600FCD70B2EFAD70000000067D75ADC61D7EF
:02127600FFD7A0
:1012A40010EE15F02B0E006E010E016E780EF66E28
:0E12B400120EF76E000EF86E8CEC05F01200B4
:011278000075
:041279000000000071
:01127D000070
:04127E00000000006C
:01128200006B
:041283000000000067
:011287000165
:011288000065
:041289000000000061
:01128D000060
:01128E00005F
:04128F00000000005B
:01129300005A
:041294000000000056
:041298000000000052
:01129C000051
:01129D000050
:01129E00004F
:04129F00000000004B
:020000040030CA
:0D00010078183CFFBD81FF0FC00FE00F40DD
:00000001FF
