:04000000B4EF01F068
:10000800F0A003D0F090010E156EF0A203D0F0928C
:06001800010E166E11003E
:0C001E009390BA840C0E0F0157131200CF
:0C002A009298BA840C0E0F0154131200BF
:0C003600939ABA840C0E0F015D131200A7
:0A0042009494BA840C0EBD12120053
:0A004C009492BA840C0E66121200A2
:100056000B6A0A6A096A00500402F4CF09F0F3CF6A
:1000660008F001500502F4CF0BF0F3CF0AF0005070
:100076000502F3500926F4500A22E86A0B220150C1
:100086000402F3500926F4500A22E86A0B2208C03B
:1000960000F009C001F00AC002F00BC003F0120024
:1000A600BB50010F006E016A000E01221BC004F056
:1000B600000E056ECDDF060E026E00C004F001C014
:1000C60005F0025005E005320432059EFF0FFAD70F
:1000D600040E016E04C000F0015004E000360090EA
:1000E600FF0FFBD7300E0014036E04C000F005C0EE
:1000F60001F001320032019E01320032019E00C041
:0E01060058FF0F0E0F0157170350571312002A
:0C01140096DF9ADF8EDF81DF86DF1200AD
:10012000BB50010F006E016A000E01221BC004F0DB
:10013000000E056E90DF060E026E00C004F001C0D6
:1001400005F0025005E005320432059EFF0FFAD794
:10015000040E016E04C000F0015004E0003600906F
:10016000FF0FFBD7300E0014036E04C000F005C073
:1001700001F001320032019E01320032019E00C0C6
:0E0180005EFF0F0E0F015D1703505D1312009E
:10018E00BB50010F006E016A000E01221BC004F06D
:10019E00000E056E59DF060E026E00C004F001C09F
:1001AE0005F0025005E005320432059EFF0FFAD726
:1001BE00040E016E04C000F0015004E00036009001
:1001CE00FF0FFBD7300E0014036E04C000F005C005
:1001DE0001F001320032019E01320032019E00C058
:0C01EE00BEFF0F0EBD160350BD12120024
:1001FA00BB50010F006E016A000E01221BC004F001
:10020A00000E056E23DF060E026E00C004F001C068
:10021A0005F0025005E005320432059EFF0FFAD7B9
:10022A00040E016E04C000F0015004E00036009094
:10023A00FF0FFBD7300E0014036E04C000F005C098
:10024A0001F001320032019E01320032019E00C0EB
:0C025A0067FF0F0E6616035066121200BC
:10026600FF0E1B6E91DFFF0E1B6EC4DFFF0E1B6EB3
:0A02760054DFFF0E1B6E14DF1200B0
:1002800049DF1B6A84DF1B6AB8DFA00E1B6E48DFE4
:060290001B6A09DF1200E9
:08029600676A6698669A12007F
:0A029E000F015E6B5D995D9B12007D
:1002A8000900F5CFE6FF0006FBE10106F9E11200BF
:0802B800BE6ABD98BD9A120058
:0A02C0000F01586B5799579B12006D
:1002CA00DADF030E0B6E8A0E0C6E550E0D6E0D2EB6
:1002DA00FED70C2EFCD70B2EFAD700000000BEDF8B
:1002EA00060E0B6E130E0C6EAD0E0D6E0D2EFED796
:0E02FA000C2EFCD70B2EFAD7000000001200CD
:1003080005DFC80E1B6E3FDF1B6A73DF1B6A04DF45
:060318001B6AC5DE1200A5
:10031E00FADEAA0E1B6E34DF1B6A68DF780E1B6EC8
:08032E00F8DE1B6AB9DE1200C3
:10033600EEDE1B6A29DF1B6A5DDF1B6AEEDEAA0E94
:100346001B6EAEDE030E0B6E8A0E0C6E550E0D6E18
:100356000D2EFED70C2EFCD70B2EFAD70000000070
:02036600120083
:10036800156A166A660ED36E806A816A826A0F0EF3
:10037800926EDE0E936EF90E946E0F01386B396B28
:100388003A6BF086F088F19AF198F28EF28CBA9076
:10039800BA92630EBB6E8CDFBA90BA92630EBB6ED4
:1003A80076DFBA90BA92630EBB6E75DFBA90BA92D6
:1003B800630EBB6E81DF1B6AE6DE1B6A1ADF1B6AEF
:1003C800ABDE1B6A6CDE39DE3DDE31DE24DE809C6E
:1003D800808E80BE02D0809A01D0808A80BA02D0F6
:1003E800809801D08088040E0B6E0C0E0C6E330EB4
:1003F8000D6E0D2EFED70C2EFCD70B2EFAD7000053
:100408000000809E808C80BC02D0809A01D0808AB7
:1004180080BA02D0809801D08088040E0B6E0C0E32
:100428000C6E330E0D6E0D2EFED70C2EFCD70B2E38
:10043800FAD700000000809A808C80BC02D0809E91
:1004480001D0808E80BE02D0809801D08088040EB2
:100458000B6E0C0E0C6E330E0D6E0D2EFED70C2E81
:10046800FCD70B2EFAD7000000008098808A80BA4B
:1004780002D0809E01D0808E80BE02D0809C01D0A8
:10048800808C040E0B6E0C0E0C6E330E0D6E0D2E42
:10049800FED70C2EFCD70B2EFAD700000000808C5C
:1004A80080BC02D0809E01D0808E80BE02D0809A0F
:1004B80001D0808A80BA02D0809801D0808881A437
:1004C80004D081A202D027DF5ED081B41FD081B2D0
:1004D8001DD0C5DE020E0B6E040E0C6EBA0E0D6E2C
:1004E8000D2EFED70C2EFCD70B2EFAD700001FDFDF
:1004F800020E0B6E040E0C6EBA0E0D6E0D2EFED78C
:100508000C2EFCD70B2EFAD700003DD081B21DD09F
:10051800A6DE020E0B6E040E0C6EBA0E0D6E0D2EBC
:10052800FED70C2EFCD70B2EFAD70000CADE020E1F
:100538000B6E040E0C6EBA0E0D6E0D2EFED70C2E21
:10054800FCD70B2EFAD700001ED081B41CD087DE52
:10055800020E0B6E040E0C6EBA0E0D6E0D2EFED72B
:100568000C2EFCD70B2EFAD70000CADE020E0B6E3B
:10057800040E0C6EBA0E0D6E0D2EFED70C2EFCD787
:0A0588000B2EFAD700009BD7FFD717
:020000040030CA
:0D00010078183CFFBD81FF0FC00FE00F40DD
:00000001FF
