:040000007DEF06F09A
:10000800F0A005D0F090010E266E010E156EF0A23C
:0E00180005D0F092010E1F6E010E156E110044
:0C002600939ABA840C0E0F015D131200B7
:0A0032009492BA840C0E66121200BC
:0A003C009494BA840C0EBD12120059
:0C0046009390BA840C0E0F0157131200A7
:100052000B6A0A6A096A00500402F4CF09F0F3CF6E
:1000620008F001500502F4CF0BF0F3CF0AF0005074
:100072000502F3500926F4500A22E86A0B220150C5
:100082000402F3500926F4500A22E86A0B2208C03F
:1000920000F009C001F00AC002F00BC003F0120028
:0C00A2009298BA840C0E0F015413120047
:1000AE00BB50010F006E016A000E01222FC004F03A
:1000BE00000E056EC7DF060E026E00C004F001C012
:1000CE0005F0025005E005320432059EFF0FFAD707
:1000DE00040E016E04C000F0015004E000360090E2
:1000EE00FF0FFBD7300E0014036E04C000F005C0E6
:1000FE0001F001320032019E01320032019E00C039
:0C010E0067FF0F0E661603506612120009
:10011A00BB50010F006E016A000E01222FC004F0CD
:10012A00000E056E91DF060E026E00C004F001C0DB
:10013A0005F0025005E005320432059EFF0FFAD79A
:10014A00040E016E04C000F0015004E00036009075
:10015A00FF0FFBD7300E0014036E04C000F005C079
:10016A0001F001320032019E01320032019E00C0CC
:0C017A00BEFF0F0EBD160350BD12120098
:10018600BB50010F006E016A000E01222FC004F061
:10019600000E056E5BDF060E026E00C004F001C0A5
:1001A60005F0025005E005320432059EFF0FFAD72E
:1001B600040E016E04C000F0015004E00036009009
:1001C600FF0FFBD7300E0014036E04C000F005C00D
:1001D60001F001320032019E01320032019E00C060
:0E01E6005EFF0F0E0F015D1703505D13120038
:0C01F40023DF1DDF16DF25DF52DF1200C5
:10020000BB50010F006E016A000E01222FC004F0E6
:10021000000E056E1EDF060E026E00C004F001C067
:1002200005F0025005E005320432059EFF0FFAD7B3
:10023000040E016E04C000F0015004E0003600908E
:10024000FF0FFBD7300E0014036E04C000F005C092
:1002500001F001320032019E01320032019E00C0E5
:0E02600058FF0F0E0F015717035057131200CF
:10026E00C2DF2F6A53DF2F6A1BDFC80E2F6E84DFAB
:06027E002F6ABFDF120031
:10028400FF0E2F6E48DFFF0E2F6E0FDFFF0E2F6E57
:0A02940078DFFF0E2F6EB2DF1200BC
:10029E00E7DF030E0B6E8A0E0C6E550E0D6E0D2ED5
:1002AE00FED70C2EFCD70B2EFAD700000000E3DF92
:0202BE0012002C
:1002C00099DFAA0E2F6E29DF2F6AF1DE2F6A5BDF1E
:0602D0002F6A96DF120008
:1002D6008EDF2F6A1FDF2F6AE7DE2F6A51DFB40E2B
:1002E6002F6E8BDF030E0B6E080E0C6E770E0D6EE7
:1002F6000D2EFED70C2EFCD70B2EFAD7C0DF120020
:10030600F29E16C004F017C005F018C006F019C01A
:1003160007F0F28E04C000F005C001F006C002F03E
:0603260007C003F0120005
:10032C0063DFAA0E2F6EF3DE2F6ABBDE8C0E2F6EF0
:08033C0024DF2F6A5FDF1200CD
:1003440057DFFF0E2F6EE7DE2F6AAFDECD0E2F6E66
:0803540018DF2F6A53DF1200CD
:10035C002F6ADDDE2F6AA5DE2F6A0FDF2F6A4ADFD8
:02036C0012007D
:10036E0081A404D081A202D0DADF5ED081B41FD086
:10037E0081B21DD080DF020E0B6E040E0C6EBA0E13
:10038E000D6E0D2EFED70C2EFCD70B2EFAD70000BD
:10039E009BDF020E0B6E040E0C6EBA0E0D6E0D2E42
:1003AE00FED70C2EFCD70B2EFAD700003DD081B213
:1003BE001DD061DF020E0B6E040E0C6EBA0E0D6EAA
:1003CE000D2EFED70C2EFCD70B2EFAD7000060DFB9
:1003DE00020E0B6E040E0C6EBA0E0D6E0D2EFED7A7
:1003EE000C2EFCD70B2EFAD700001ED081B41CD0D9
:1003FE0042DF020E0B6E040E0C6EBA0E0D6E0D2E3B
:10040E00FED70C2EFCD70B2EFAD7000052DF020EB1
:10041E000B6E040E0C6EBA0E0D6E0D2EFED70C2E3C
:0A042E00FCD70B2EFAD700001200D5
:1004380066DF00C02BF001C02CF002C02DF003C015
:100448002EF057D010DF2BC020F02CC021F02DC08B
:1004580022F02EC023F0010E246E54D02BC001F0E0
:100468002CC002F02DC003F02EC004F02050015E15
:100478002150025A2250035A2350045A000E045C99
:1004880008E1000E035C05E1000E025C02E1640E67
:10049800015C0CE3F3DE2BC020F02CC021F02DC052
:1004A80022F02EC023F0020E246E01D0DCDE2AD00A
:1004B8002BC001F02CC002F02DC003F02EC004F0B8
:1004C8002050015E2150025A2250035A2350045AE8
:1004D800000E045C08E1000E035C05E1000E025CFE
:1004E80002E1640E015C03E3246A256A01D0C6DEDA
:1004F80009D02450000AA6E02450010AAFE0245095
:06050800020AD6E0120019
:10050E0072DEE60E2F6E02DE2F6ACADD2F6A34DE31
:06051E002F6A6FDE1200DF
:10052400F0DE00C02BF001C02CF002C02DF003C09F
:100534002EF044D005DF2BC01BF02CC01CF02DC0C6
:100544001DF02EC01EF0010E1A6E41D02BC001F01A
:100554002CC002F02DC003F02EC004F01B50015E2D
:100564001C50025A1D50035A1E50045A000E045CBB
:1005740008E1000E035C05E1000E025C02E1140ECA
:10058400015C0BE3DDDE2BC01BF02CC01CF02DC086
:100594001DF02EC01EF0020E1A6E19D082BC0AD0B5
:1005A400CFDE2BC01BF02CC01CF02DC01DF02EC0C4
:1005B4001EF003D065DE1A6A256A09D01A50000AB3
:1005C400B9E01A50010AC2E01A50020AE7E0120028
:1005D400ABDE340E0C6EF10E0D6E0D2EFED70C2E0E
:1005E400FCD700000000ACDE030E0B6E8A0E0C6E0E
:1005F400550E0D6E0D2EFED70C2EFCD70B2EFAD7F2
:06060400000000001200DE
:10060A00155206E03ADEAEDE156A256A1A6A33D159
:10061A0011D182B007D082BC05D081B803D0010EB7
:10062A00256E40D082A007D082BC05D081B803D005
:10063A00020E256E37D082B007D082AC05D081B8C1
:10064A0003D0030E256E2ED082A007D082AC05D02F
:10065A0081B803D0040E256E25D082B007D082BCA3
:10066A0005D081A803D0050E256E1CD082A007D024
:10067A0082BC05D081A803D0060E256E13D082B0A5
:10068A0007D082AC05D081A803D0070E256E0AD008
:10069A0082A007D082AC05D081A803D0080E256EAF
:1006AA0001D057DEE8D0808880B802D0809A01D085
:1006BA00808A80BA02D0809E01D0808E80BE02D00D
:1006CA00809C01D0808C2DDE030E0B6E8A0E0C6E80
:1006DA00550E0D6E0D2EFED70C2EFCD70B2EFAD70B
:1006EA000000000036DE030E0B6E080E0C6E770E4D
:1006FA000D6E0D2EFED70C2EFCD70B2EFAD7256ABF
:10070A00BAD0809C808880B802D0809A01D0808A32
:10071A0080BA02D0809E01D0808E89DEACD0809EC5
:10072A00808880B802D0809A01D0808A80BA02D0AC
:10073A00809C01D0808CF1DE256A9DD0809E80BE8F
:10074A0002D0809C01D0808C808880B802D0809AA8
:10075A0001D0808A87DD340E0C6EF10E0D6E0D2EDF
:10076A00FED70C2EFCD700000000020E0B6E040E02
:10077A000C6EBA0E0D6E0D2EFED70C2EFCD70B2E5C
:10078A00FAD70000256A77D0809A808880B802D08C
:10079A00809E01D0808E80BE02D0809C01D0808C49
:1007AA00B1DE256A68D0809A80BA02D0809C01D0D6
:1007BA00808C808880B802D0809E01D0808EC9DD6E
:1007CA00256A59D0809A80BA02D0809E01D0808E44
:1007DA00808880B802D0809C01D0808C93DE050E80
:1007EA000B6E0F0E0C6EF10E0D6E0D2EFED70C2E2B
:1007FA00FCD70B2EFAD741DD820E0C6EDD0E0D6E84
:10080A000D2EFED70C2EFCD700000000256A33D02F
:10081A00809A80BA02D0809E01D0808E80BE02D09B
:10082A00809C01D0808C8088D0DE256A24D091DD1E
:10083A00256A21D02550000AD8B4EBD62550010AE2
:10084A00D8B431D72550020AD8B45BD72550030A49
:10085A00D8B465D72550040AD8B470D72550050AEC
:10086A0093E02550060A9FE02550070AABE0255081
:08087A00080ACEE0DCD71200F1
:08088200676A6698669A12008D
:08088A00BE6ABD98BD9A120080
:10089200030ED56E830ED66EF28AF294F28E120099
:0A08A2000F015E6B5D995D9B120073
:1008AC000900F5CFE6FF0006FBE10106F9E11200B5
:1008BC00000E80B6010E276E286A000E286E036AA1
:1008CC0080B4032A03C000F0000E016E003601361E
:1008DC0000900050272601502822036A80B2032A78
:1008EC0003C000F0000E016E003601360090003699
:1008FC00013600900050272601502822036A80B050
:10090C00032A030E026E03C000F0000E016E0250AB
:10091C0005E0003600900136FF0FFAD7005027266D
:10092C000150282274D1808880B802D0809A01D0DE
:10093C00808A80BA02D0809E01D0808E80BE02D088
:10094C00809C01D0808CCDD1809C808E80BE02D0CA
:10095C00809A01D0808A80BA02D0809801D0808899
:10096C0081A404D081A202D0DBDC5ED081B41FD084
:10097C0081B21DD081DC020E0B6E040E0C6EBA0E11
:10098C000D6E0D2EFED70C2EFCD70B2EFAD70000B9
:10099C009CDC020E0B6E040E0C6EBA0E0D6E0D2E40
:1009AC00FED70C2EFCD70B2EFAD700003DD081B20F
:1009BC001DD062DC020E0B6E040E0C6EBA0E0D6EA8
:1009CC000D2EFED70C2EFCD70B2EFAD7000061DCB7
:1009DC00020E0B6E040E0C6EBA0E0D6E0D2EFED7A3
:1009EC000C2EFCD70B2EFAD700001ED081B41CD0D5
:1009FC0043DC020E0B6E040E0C6EBA0E0D6E0D2E39
:100A0C00FED70C2EFCD70B2EFAD7000053DC020EAF
:100A1C000B6E040E0C6EBA0E0D6E0D2EFED70C2E38
:100A2C00FCD70B2EFAD700005CD1809E808C80BC4A
:100A3C0002D0809A01D0808A80BA02D0809801D0EE
:100A4C008088DDDD4ED1809E80BE02D0809C01D09E
:100A5C00808C80B802D0809A01D0808A52DD050E3D
:100A6C000B6E0F0E0C6EF10E0D6E0D2EFED70C2EA6
:100A7C00FCD70B2EFAD700DC820E0C6EDD0E0D6E41
:100A8C000D2EFED70C2EFCD7000000002AD1809A28
:100A9C00808C80BC02D0809E01D0808E80BE02D023
:100AAC00809801D0808806DC030E0B6E8A0E0C6ECB
:100ABC00550E0D6E0D2EFED70C2EFCD70B2EFAD725
:100ACC000000000045DC290E0B6E960E0C6E7F0E9E
:100ADC000D6E0D2EFED70C2EFCD70B2EFAD701D196
:100AEC00809C80BC02D0809A01D0808A808E80BE8F
:100AFC0002D0809801D0808860EC01F0F2D0809A0E
:100B0C0080BA02D0809E01D0808E808C80BC02D0B6
:100B1C00809801D080886BEC01F0E3D0809C80BC85
:100B2C0002D0809E01D0808E80BE02D0809A01D0EF
:100B3C00808A8088D6D08098808C80BC02D0809AA5
:100B4C0001D0808A80BA02D0809E01D0808EC9D01C
:100B5C00809880B802D0809C01D0808C808A80BA2A
:100B6C0002D0809E01D0808EBCD0809E80BE02D0F0
:100B7C00809801D08088808C80BC02D0809A01D073
:100B8C00808AAFD0809880B802D0809E01D0808EB1
:100B9C0080BE02D0809C01D0808C808AA2D0809AAA
:100BAC0080BA02D0809801D08088808C80BC02D022
:100BBC00809E01D0808E95D0809C80BC02D0809A83
:100BCC0001D0808A80BA02D0809801D08088808E33
:100BDC0088D0809E80BE02D0809A01D0808A80BA54
:100BEC0002D0809801D08088808C7BD0809880B88F
:100BFC0002D0809A01D0808A80BA02D0809E01D027
:100C0C00808E80BE02D0809C01D0808C6AD0000E79
:100C1C00281802E1000E2718D8B485D6000E281823
:100C2C0002E1010E2718D8B48FD6000E281802E165
:100C3C00020E2718D8B4F9D6000E281802E1030EBC
:100C4C002718D8B400D7000E281802E1040E271874
:100C5C00D8B41DD7000E281802E1050E2718D8B4F9
:100C6C003FD7000E281802E1060E2718D8B447D734
:100C7C00000E281802E1070E2718D8B44FD7000E23
:100C8C00281802E1080E2718D8B455D7000E2818DA
:100C9C0002E1090E2718D8B45BD7000E281802E120
:100CAC000A0E2718D8B461D7000E281802E10B0ED3
:100CBC002718D8B467D7000E281802E10C0E271895
:100CCC00D8B46DD7000E281802E10D0E2718D8B431
:100CDC0073D7000E281802E10E0E2718D8B479D756
:040CEC0085D7120096
:0A0CF0000F01586B5799579B120033
:100CFA00FFEC07F0C9DD660ED36E806A816A826AEC
:100D0A000F0E926EDE0E936EF90E946E0F01386B13
:100D1A00396B3A6BF086F088F19AF198F28EF28C80
:100D2A00BA90BA92630EBB6EABDDBA90BA92630EFA
:100D3A00BB6EA2DDBA90BA92630EBB6EADDDBA90FD
:100D4A00BA92630EBB6ECFDF2F6A8DEC00F02F6A6A
:100D5A0057EC00F02F6AC3EC00F02F6A00EC01F0A8
:100D6A001EEC00F019EC00F013EC00F023EC00F09C
:100D7A0081BE97D0809C808E80BE02D0809A01D09E
:100D8A00808A80BA02D0809801D08088040E0B6EC7
:100D9A000C0E0C6E330E0D6E0D2EFED70C2EFCD7DC
:100DAA000B2EFAD700000000809E808C80BC02D0F7
:100DBA00809A01D0808A80BA02D0809801D0808837
:100DCA00040E0B6E0C0E0C6E330E0D6E0D2EFED72E
:100DDA000C2EFCD70B2EFAD700000000809A808CCC
:100DEA0080BC02D0809E01D0808E80BE02D08098C6
:100DFA0001D08088040E0B6E0C0E0C6E330E0D6E35
:100E0A000D2EFED70C2EFCD70B2EFAD700000000B1
:100E1A008098808A80BA02D0809E01D0808E80BE5F
:100E2A0002D0809C01D0808C040E0B6E0C0E0C6ECE
:100E3A00330E0D6E0D2EFED70C2EFCD70B2EFAD7C5
:100E4A0000000000808C80BC02D0809E01D0808E81
:100E5A0080BE02D0809A01D0808A80BA02D080985F
:100E6A0001D080880B0E0B6E260E0C6E5D0E0D6E79
:100E7A000D2EFED70C2EFCD70B2EFAD70000000041
:100E8A00AEEC01F0030E0B6E8A0E0C6E550E0D6E53
:100E9A000D2EFED70C2EFCD70B2EFAD70000000021
:100EAA0067D781BE9BD0AEEC01F081BE97D0809C03
:100EBA00808E80BE02D0809A01D0808A80BA02D009
:100ECA00809801D08088040E0B6E0C0E0C6E330EC7
:100EDA000D6E0D2EFED70C2EFCD70B2EFAD7000066
:100EEA000000809E808C80BC02D0809A01D0808ACB
:100EFA0080BA02D0809801D08088040E0B6E0C0E46
:100F0A000C6E330E0D6E0D2EFED70C2EFCD70B2E4B
:100F1A00FAD700000000809A808C80BC02D0809EA4
:100F2A0001D0808E80BE02D0809801D08088040EC5
:100F3A000B6E0C0E0C6E330E0D6E0D2EFED70C2E94
:100F4A00FCD70B2EFAD7000000008098808A80BA5E
:100F5A0002D0809E01D0808E80BE02D0809C01D0BB
:100F6A00808C040E0B6E0C0E0C6E330E0D6E0D2E55
:100F7A00FED70C2EFCD70B2EFAD700000000808C6F
:100F8A0080BC02D0809E01D0808E80BE02D0809A22
:100F9A0001D0808A80BA02D0809801D080880B0E56
:100FAA000B6E260E0C6E5D0E0D6E0D2EFED70C2EE0
:100FBA00FCD70B2EFAD700000000AEEC01F0030EAE
:100FCA000B6E8A0E0C6E550E0D6E0D2EFED70C2E64
:100FDA00FCD70B2EFAD70000000067D76ADC61D76E
:020FEA00FFD72F
:100FFE0010EE15F0120E006E010E016EEC0EF66E76
:0E100E000F0EF76E000EF86E56EC04F0120096
:010FEC000004
:040FED000000000000
:010FF10000FF
:040FF20000000000FB
:010FF60000FA
:040FF70000000000F6
:010FFB0000F5
:010FFC0000F4
:010FFD0000F3
:020000040030CA
:0D00010078183CFFBD81FF0FC00FE00F40DD
:00000001FF
