:0400000044EF06F0D3
:10000800F0A005D0F090010E1C6E010E1A6EF0A241
:0E00180005D0F092010E1D6E010E1A6E110041
:0C0026009298BA840C0E0F0154131200C3
:0A0032009492BA840C0E66121200BC
:0A003C009494BA840C0EBD12120059
:0C004600939ABA840C0E0F015D13120097
:100052000B6A0A6A096A00500402F4CF09F0F3CF6E
:1000620008F001500502F4CF0BF0F3CF0AF0005074
:100072000502F3500926F4500A22E86A0B220150C5
:100082000402F3500926F4500A22E86A0B2208C03F
:1000920000F009C001F00AC002F00BC003F0120028
:0C00A2009390BA840C0E0F01571312004B
:1000AE00BB50010F006E016A000E01222AC004F03F
:1000BE00000E056EC7DF060E026E00C004F001C012
:1000CE0005F0025005E005320432059EFF0FFAD707
:1000DE00040E016E04C000F0015004E000360090E2
:1000EE00FF0FFBD7300E0014036E04C000F005C0E6
:1000FE0001F001320032019E01320032019E00C039
:0C010E0067FF0F0E661603506612120009
:10011A00BB50010F006E016A000E01222AC004F0D2
:10012A00000E056E91DF060E026E00C004F001C0DB
:10013A0005F0025005E005320432059EFF0FFAD79A
:10014A00040E016E04C000F0015004E00036009075
:10015A00FF0FFBD7300E0014036E04C000F005C079
:10016A0001F001320032019E01320032019E00C0CC
:0C017A00BEFF0F0EBD160350BD12120098
:10018600BB50010F006E016A000E01222AC004F066
:10019600000E056E5BDF060E026E00C004F001C0A5
:1001A60005F0025005E005320432059EFF0FFAD72E
:1001B600040E016E04C000F0015004E00036009009
:1001C600FF0FFBD7300E0014036E04C000F005C00D
:1001D60001F001320032019E01320032019E00C060
:0E01E6005EFF0F0E0F015D1703505D13120038
:0C01F40023DF1DDF26DF53DF14DF1200C5
:10020000BB50010F006E016A000E01222AC004F0EB
:10021000000E056E1EDF060E026E00C004F001C067
:1002200005F0025005E005320432059EFF0FFAD7B3
:10023000040E016E04C000F0015004E0003600908E
:10024000FF0FFBD7300E0014036E04C000F005C092
:1002500001F001320032019E01320032019E00C0E5
:0E02600058FF0F0E0F015717035057131200CF
:10026E00FF0E2A6E53DFFF0E2A6E1ADFFF0E2A6E66
:0A027E0083DFFF0E2A6EBDDF1200C1
:10028800B5DF2A6A46DF2A6A0EDFA00E2A6E77DFFC
:060298002A6AB2DF120029
:10029E00F4DF030E0B6E8A0E0C6E550E0D6E0D2EC8
:1002AE00FED70C2EFCD70B2EFAD700000000D8DF9D
:0202BE0012002C
:1002C00099DFAA0E2A6E29DF2A6AF1DE2A6A5BDF2D
:0602D0002A6A96DF12000D
:1002D600F29E1EC004F01FC005F020C006F021C02B
:1002E60007F0F28E04C000F005C001F006C002F06F
:0602F60007C003F0120036
:1002FC007BDFFF0E2A6E0BDF2A6AD3DECD0E2A6E51
:08030C003CDF2A6A77DF1200D2
:100314006FDF2A6A00DF2A6AC8DE2A6A32DFB40E77
:100324002A6E6CDF030E0B6E080E0C6E770E0D6ECC
:100334000D2EFED70C2EFCD70B2EFAD796DF12000B
:1003440057DFAA0E2A6EE7DE2A6AAFDE8C0E2A6E0B
:0803540018DF2A6A53DF1200D2
:10035C002A6ADDDE2A6AA5DE2A6A0FDF2A6A4ADFEC
:02036C0012007D
:10036E00B3DF00C026F001C027F002C028F003C0A2
:10037E0029F044D0E0DF26C015F027C016F028C0C3
:10038E0017F029C018F0010E1B6E41D026C001F0E7
:10039E0027C002F028C003F029C004F01550015EFA
:1003AE001650025A1750035A1850045A000E045C85
:1003BE0008E1000E035C05E1000E025C02E1140E82
:1003CE00015C0BE394DF26C015F027C016F028C0A1
:1003DE0017F029C018F0020E1B6E19D082BC0AD07D
:1003EE0086DF26C015F027C016F028C017F029C0EA
:1003FE0018F003D0ACDF1B6A196A09D01B50000A33
:10040E00B9E01B50010AC2E01B50020AE7E01200DD
:10041E0081A404D081A202D08EDF5ED081B41FD021
:10042E0081B21DD01DDF020E0B6E040E0C6EBA0EC5
:10043E000D6E0D2EFED70C2EFCD70B2EFAD700000C
:10044E0062DF020E0B6E040E0C6EBA0E0D6E0D2ECA
:10045E00FED70C2EFCD70B2EFAD700003DD081B262
:10046E001DD0FEDE020E0B6E040E0C6EBA0E0D6E5D
:10047E000D2EFED70C2EFCD70B2EFAD7000008DF60
:10048E00020E0B6E040E0C6EBA0E0D6E0D2EFED7F6
:10049E000C2EFCD70B2EFAD700001ED081B41CD028
:1004AE00DFDE020E0B6E040E0C6EBA0E0D6E0D2EEE
:1004BE00FED70C2EFCD70B2EFAD70000FADE020E5A
:1004CE000B6E040E0C6EBA0E0D6E0D2EFED70C2E8C
:0A04DE00FCD70B2EFAD70000120025
:1004E8002DDF340E0C6EF10E0D6E0D2EFED70C2E78
:1004F800FCD700000000FEDE030E0B6E8A0E0C6EA9
:10050800550E0D6E0D2EFED70C2EFCD70B2EFAD7DE
:06051800000000001200CB
:10051E006ADEE60E2A6EFADD2A6AC2DD2A6A2CDE51
:06052E002A6A67DE1200DC
:100534001A5206E09ADE71DF1A6A196A1B6A67D1D9
:1005440044D182B007D082BC05D081B803D0010E5B
:10055400196E40D082A007D082BC05D081B803D0E8
:10056400020E196E37D082B007D082AC05D081B8A4
:1005740003D0030E196E2ED082A007D082AC05D012
:1005840081B803D0040E196E25D082B007D082BC86
:1005940005D081A803D0050E196E1CD082A007D007
:1005A40082BC05D081A803D0060E196E13D082B088
:1005B40007D082AC05D081A803D0070E196E0AD0EB
:1005C40082A007D082AC05D081A803D0080E196E92
:1005D40001D0C2DE1CD1808880B802D0809A01D0BC
:1005E400808A80BA02D0809E01D0808E80BE02D0E4
:1005F400809C01D0808CA4DE030E0B6E8A0E0C6EE0
:10060400550E0D6E0D2EFED70C2EFCD70B2EFAD7E1
:1006140000000000A1DE030E0B6E080E0C6E770EB8
:100624000D6E0D2EFED70C2EFCD70B2EFAD7196AA1
:10063400EED0809C808880B802D0809A01D0808AD5
:1006440080BA02D0809E01D0808E1CDE020E0B6E1A
:10065400040E0C6EBA0E0D6E0D2EFED70C2EFCD7AA
:100664000B2EFAD7000001DE020E0B6E040E0C6E88
:10067400BA0E0D6E0D2EFED70C2EFCD70B2EFAD70C
:100684000000196AC4D0809E808880B802D0809A05
:1006940001D0808A80BA02D0809C01D0808C65DE33
:1006A400196AB5D0809E80BE02D0809C01D0808C17
:1006B400808880B802D0809A01D0808AE3DD340E2D
:1006C4000C6EF10E0D6E0D2EFED70C2EFCD7000015
:1006D4000000020E0B6E040E0C6EBA0E0D6E0D2E83
:1006E400FED70C2EFCD70B2EFAD70000196A8FD038
:1006F400809A808880B802D0809E01D0808E80BE8F
:1007040002D0809C01D0808C08DF050E0B6E0F0E8A
:100714000C6EF10E0D6E0D2EFED70C2EFCD70B2E8B
:10072400FAD7A3DD820E0C6EDD0E0D6E0D2EFED7F4
:100734000C2EFCD700000000196A69D0809A80BA98
:1007440002D0809C01D0808C808880B802D0809EAA
:1007540001D0808E01DE196A5AD0809A80BA02D004
:10076400809E01D0808E808880B802D0809C01D089
:10077400808CD3DE050E0B6E0F0E0C6EF10E0D6E1B
:100784000D2EFED70C2EFCD70B2EFAD76EDD820E63
:100794000C6EDD0E0D6E0D2EFED70C2EFCD7000058
:1007A4000000196A34D0809A80BA02D0809E01D0A9
:1007B400808E80BE02D0809C01D0808C808892DEA6
:1007C400196A25D0C9DD196A22D01950000AD8B493
:1007D400B8D61950010AD8B4FED61950020AD8B4B2
:1007E40028D71950030AD8B44ED71950040AD8B4DC
:1007F40059D71950050AD8B47BD71950060A9EE078
:100804001950070AAAE01950080ACDE0DBD71200F4
:08081400676A6698669A1200FB
:08081C00BE6ABD98BD9A1200EE
:10082400030ED56E830ED66EF28AF294F28E120007
:0A0834000F015E6B5D995D9B1200E1
:10083E000900F5CFE6FF0006FBE10106F9E1120023
:10084E00000E80B6010E226E236A000E236E036A1E
:10085E0080B4032A03C000F0000E016E003601368C
:10086E0000900050222601502322036A80B2032AF0
:10087E0003C000F0000E016E003601360090003607
:10088E00013600900050222601502322036A80B0C8
:10089E00032A030E026E03C000F0000E016E02501A
:1008AE0005E0003600900136FF0FFAD700502226E1
:1008BE000150232272D1808880B802D0809A01D054
:1008CE00808A80BA02D0809E01D0808E80BE02D0F7
:1008DE00809C01D0808CCBD1809C808E80BE02D03B
:1008EE00809A01D0808A80BA02D0809801D0808808
:1008FE0081A404D081A202D01EDD5ED081B41FD0AF
:10090E0081B21DD0ADDC020E0B6E040E0C6EBA0E53
:10091E000D6E0D2EFED70C2EFCD70B2EFAD7000027
:10092E00F2DC020E0B6E040E0C6EBA0E0D6E0D2E58
:10093E00FED70C2EFCD70B2EFAD700003DD081B27D
:10094E001DD08EDC020E0B6E040E0C6EBA0E0D6EEA
:10095E000D2EFED70C2EFCD70B2EFAD7000098DCEE
:10096E00020E0B6E040E0C6EBA0E0D6E0D2EFED711
:10097E000C2EFCD70B2EFAD700001ED081B41CD043
:10098E006FDC020E0B6E040E0C6EBA0E0D6E0D2E7B
:10099E00FED70C2EFCD70B2EFAD700008ADC020EE7
:1009AE000B6E040E0C6EBA0E0D6E0D2EFED70C2EA7
:1009BE00FCD70B2EFAD700005AD1809E808C80BCBB
:1009CE0002D0809A01D0808A80BA02D0809801D05D
:1009DE008088A9DD4CD1809E80BE02D0809C01D043
:1009EE00808C80B802D0809A01D0808A91DD050E6D
:1009FE000B6E0F0E0C6EF10E0D6E0D2EFED70C2E15
:100A0E00FCD70B2EFAD72CDC820E0C6EDD0E0D6E83
:100A1E000D2EFED70C2EFCD70000000028D1809A98
:100A2E00808C80BC02D0809E01D0808E80BE02D091
:100A3E00809801D080883DDC030E0B6E8A0E0C6E02
:100A4E00550E0D6E0D2EFED70C2EFCD70B2EFAD793
:100A5E00000000007CDC290E0B6E960E0C6E7F0ED5
:100A6E000D6E0D2EFED70C2EFCD70B2EFAD7FFD007
:100A7E00809C80BC02D0809A01D0808A808E80BEFD
:100A8E0002D0809801D0808814DCF1D0809A80BA90
:100A9E0002D0809E01D0808E808C80BC02D0809847
:100AAE0001D0808830DCE3D0809C80BC02D0809E58
:100ABE0001D0808E80BE02D0809A01D0808A80883C
:100ACE00D6D08098808C80BC02D0809A01D0808A4B
:100ADE0080BA02D0809E01D0808EC9D0809880B816
:100AEE0002D0809C01D0808C808A80BA02D0809EF9
:100AFE0001D0808EBCD0809E80BE02D0809801D066
:100B0E008088808C80BC02D0809A01D0808AAFD041
:100B1E00809880B802D0809E01D0808E80BE02D098
:100B2E00809C01D0808C808AA2D0809A80BA02D01C
:100B3E00809801D08088808C80BC02D0809E01D0AD
:100B4E00808E95D0809C80BC02D0809A01D0808A05
:100B5E0080BA02D0809801D08088808E88D0809E06
:100B6E0080BE02D0809A01D0808A80BA02D080984E
:100B7E0001D08088808C7BD0809880B802D0809AFB
:100B8E0001D0808A80BA02D0809E01D0808E80BE35
:100B9E0002D0809C01D0808C6AD0000E231802E116
:100BAE00000E2218D8B487D6000E231802E1010ECB
:100BBE002218D8B491D6000E231802E1020E221884
:100BCE00D8B4FBD6000E231802E1030E2218D8B4B7
:100BDE0002D7000E231802E1040E2218D8B41FD734
:100BEE00000E231802E1050E2218D8B441D7000ECC
:100BFE00231802E1060E2218D8B448D7000E231887
:100C0E0002E1070E2218D8B44FD7000E231802E1C6
:100C1E00080E2218D8B455D7000E231802E1090E7B
:100C2E002218D8B45BD7000E231802E10A0E221840
:100C3E00D8B461D7000E231802E10B0E2218D8B4D7
:100C4E0067D7000E231802E10C0E2218D8B46DD708
:100C5E00000E231802E10D0E2218D8B473D7000E21
:100C6E00231802E10E0E2218D8B479D785D71200B8
:0A0C7E000F01586B5799579B1200A5
:100C8800C4EC07F0CBDD660ED36E806A816A826A97
:100C98000F0E926EDE0E936EF90E946E0F01386B86
:100CA800396B3A6BF086F088F19AF198F28EF28CF3
:100CB800BA90BA92630EBB6EADDDBA90BA92630E6B
:100CC800BB6EA4DDBA90BA92630EBB6EAFDDBA906C
:100CD800BA92630EBB6ECFDF2A6A8DEC00F02A6AE7
:100CE80057EC00F02A6AC3EC00F02A6A00EC01F025
:100CF8001EEC00F019EC00F023EC00F051EC00F0D1
:100D080081BE97D0809C808E80BE02D0809A01D010
:100D1800808A80BA02D0809801D08088040E0B6E39
:100D28000C0E0C6E330E0D6E0D2EFED70C2EFCD74E
:100D38000B2EFAD700000000809E808C80BC02D069
:100D4800809A01D0808A80BA02D0809801D08088A9
:100D5800040E0B6E0C0E0C6E330E0D6E0D2EFED7A0
:100D68000C2EFCD70B2EFAD700000000809A808C3E
:100D780080BC02D0809E01D0808E80BE02D0809838
:100D880001D08088040E0B6E0C0E0C6E330E0D6EA7
:100D98000D2EFED70C2EFCD70B2EFAD70000000024
:100DA8008098808A80BA02D0809E01D0808E80BED2
:100DB80002D0809C01D0808C040E0B6E0C0E0C6E41
:100DC800330E0D6E0D2EFED70C2EFCD70B2EFAD738
:100DD80000000000808C80BC02D0809E01D0808EF4
:100DE80080BE02D0809A01D0808A80BA02D08098D2
:100DF80001D080880B0E0B6E260E0C6E5D0E0D6EEC
:100E08000D2EFED70C2EFCD70B2EFAD700000000B3
:100E1800AEEC01F0030E0B6E8A0E0C6E550E0D6EC5
:100E28000D2EFED70C2EFCD70B2EFAD70000000093
:100E380067D781BE9BD0AEEC01F081BE97D0809C75
:100E4800808E80BE02D0809A01D0808A80BA02D07B
:100E5800809801D08088040E0B6E0C0E0C6E330E39
:100E68000D6E0D2EFED70C2EFCD70B2EFAD70000D8
:100E78000000809E808C80BC02D0809A01D0808A3D
:100E880080BA02D0809801D08088040E0B6E0C0EB8
:100E98000C6E330E0D6E0D2EFED70C2EFCD70B2EBE
:100EA800FAD700000000809A808C80BC02D0809E17
:100EB80001D0808E80BE02D0809801D08088040E38
:100EC8000B6E0C0E0C6E330E0D6E0D2EFED70C2E07
:100ED800FCD70B2EFAD7000000008098808A80BAD1
:100EE80002D0809E01D0808E80BE02D0809C01D02E
:100EF800808C040E0B6E0C0E0C6E330E0D6E0D2EC8
:100F0800FED70C2EFCD70B2EFAD700000000808CE1
:100F180080BC02D0809E01D0808E80BE02D0809A94
:100F280001D0808A80BA02D0809801D080880B0EC8
:100F38000B6E260E0C6E5D0E0D6E0D2EFED70C2E52
:100F4800FCD70B2EFAD700000000AEEC01F0030E20
:100F58000B6E8A0E0C6E550E0D6E0D2EFED70C2ED6
:100F6800FCD70B2EFAD70000000067D76CDC61D7DE
:020F7800FFD7A1
:100F880010EE15F00D0E006E010E016E7A0EF66E63
:0E0F98000F0EF76E000EF86E1FEC04F0120044
:040F7A000000000073
:010F7E000072
:010F7F000071
:010F80000070
:010F8100006F
:010F8200006E
:040F8300000000006A
:020000040030CA
:0D00010078183CFFBD81FF0FC00FE00F40DD
:00000001FF
